{
  "contractName": "BInterestRateModel",
  "abi": [
    {
      "anonymous": false,
      "inputs": [
        {
          "indexed": false,
          "internalType": "uint256",
          "name": "interestAccumulated",
          "type": "uint256"
        },
        {
          "indexed": false,
          "internalType": "uint256",
          "name": "borrowIndex",
          "type": "uint256"
        },
        {
          "indexed": false,
          "internalType": "uint256",
          "name": "totalBorrows",
          "type": "uint256"
        }
      ],
      "name": "AccrueInterest",
      "type": "event"
    },
    {
      "anonymous": false,
      "inputs": [
        {
          "indexed": true,
          "internalType": "address",
          "name": "owner",
          "type": "address"
        },
        {
          "indexed": true,
          "internalType": "address",
          "name": "spender",
          "type": "address"
        },
        {
          "indexed": false,
          "internalType": "uint256",
          "name": "value",
          "type": "uint256"
        }
      ],
      "name": "Approval",
      "type": "event"
    },
    {
      "anonymous": false,
      "inputs": [
        {
          "indexed": false,
          "internalType": "uint256",
          "name": "borrowRate",
          "type": "uint256"
        }
      ],
      "name": "CalculateBorrowRate",
      "type": "event"
    },
    {
      "anonymous": false,
      "inputs": [
        {
          "indexed": false,
          "internalType": "uint256",
          "name": "kinkBorrowRate",
          "type": "uint256"
        }
      ],
      "name": "CalculateKinkBorrowRate",
      "type": "event"
    },
    {
      "anonymous": false,
      "inputs": [
        {
          "indexed": true,
          "internalType": "address",
          "name": "sender",
          "type": "address"
        },
        {
          "indexed": true,
          "internalType": "address",
          "name": "minter",
          "type": "address"
        },
        {
          "indexed": false,
          "internalType": "uint256",
          "name": "mintAmount",
          "type": "uint256"
        },
        {
          "indexed": false,
          "internalType": "uint256",
          "name": "mintTokens",
          "type": "uint256"
        }
      ],
      "name": "Mint",
      "type": "event"
    },
    {
      "anonymous": false,
      "inputs": [
        {
          "indexed": true,
          "internalType": "address",
          "name": "sender",
          "type": "address"
        },
        {
          "indexed": true,
          "internalType": "address",
          "name": "redeemer",
          "type": "address"
        },
        {
          "indexed": false,
          "internalType": "uint256",
          "name": "redeemAmount",
          "type": "uint256"
        },
        {
          "indexed": false,
          "internalType": "uint256",
          "name": "redeemTokens",
          "type": "uint256"
        }
      ],
      "name": "Redeem",
      "type": "event"
    },
    {
      "anonymous": false,
      "inputs": [
        {
          "indexed": false,
          "internalType": "uint256",
          "name": "totalBalance",
          "type": "uint256"
        }
      ],
      "name": "Sync",
      "type": "event"
    },
    {
      "anonymous": false,
      "inputs": [
        {
          "indexed": true,
          "internalType": "address",
          "name": "from",
          "type": "address"
        },
        {
          "indexed": true,
          "internalType": "address",
          "name": "to",
          "type": "address"
        },
        {
          "indexed": false,
          "internalType": "uint256",
          "name": "value",
          "type": "uint256"
        }
      ],
      "name": "Transfer",
      "type": "event"
    },
    {
      "constant": true,
      "inputs": [],
      "name": "DOMAIN_SEPARATOR",
      "outputs": [
        {
          "internalType": "bytes32",
          "name": "",
          "type": "bytes32"
        }
      ],
      "payable": false,
      "stateMutability": "view",
      "type": "function"
    },
    {
      "constant": true,
      "inputs": [],
      "name": "KINK_BORROW_RATE_MAX",
      "outputs": [
        {
          "internalType": "uint256",
          "name": "",
          "type": "uint256"
        }
      ],
      "payable": false,
      "stateMutability": "view",
      "type": "function"
    },
    {
      "constant": true,
      "inputs": [],
      "name": "KINK_BORROW_RATE_MIN",
      "outputs": [
        {
          "internalType": "uint256",
          "name": "",
          "type": "uint256"
        }
      ],
      "payable": false,
      "stateMutability": "view",
      "type": "function"
    },
    {
      "constant": true,
      "inputs": [],
      "name": "KINK_MULTIPLIER",
      "outputs": [
        {
          "internalType": "uint256",
          "name": "",
          "type": "uint256"
        }
      ],
      "payable": false,
      "stateMutability": "view",
      "type": "function"
    },
    {
      "constant": true,
      "inputs": [],
      "name": "MINIMUM_LIQUIDITY",
      "outputs": [
        {
          "internalType": "uint256",
          "name": "",
          "type": "uint256"
        }
      ],
      "payable": false,
      "stateMutability": "view",
      "type": "function"
    },
    {
      "constant": true,
      "inputs": [],
      "name": "PERMIT_TYPEHASH",
      "outputs": [
        {
          "internalType": "bytes32",
          "name": "",
          "type": "bytes32"
        }
      ],
      "payable": false,
      "stateMutability": "view",
      "type": "function"
    },
    {
      "constant": false,
      "inputs": [],
      "name": "_setFactory",
      "outputs": [],
      "payable": false,
      "stateMutability": "nonpayable",
      "type": "function"
    },
    {
      "constant": true,
      "inputs": [],
      "name": "accrualTimestamp",
      "outputs": [
        {
          "internalType": "uint32",
          "name": "",
          "type": "uint32"
        }
      ],
      "payable": false,
      "stateMutability": "view",
      "type": "function"
    },
    {
      "constant": true,
      "inputs": [],
      "name": "adjustSpeed",
      "outputs": [
        {
          "internalType": "uint256",
          "name": "",
          "type": "uint256"
        }
      ],
      "payable": false,
      "stateMutability": "view",
      "type": "function"
    },
    {
      "constant": true,
      "inputs": [
        {
          "internalType": "address",
          "name": "",
          "type": "address"
        },
        {
          "internalType": "address",
          "name": "",
          "type": "address"
        }
      ],
      "name": "allowance",
      "outputs": [
        {
          "internalType": "uint256",
          "name": "",
          "type": "uint256"
        }
      ],
      "payable": false,
      "stateMutability": "view",
      "type": "function"
    },
    {
      "constant": false,
      "inputs": [
        {
          "internalType": "address",
          "name": "spender",
          "type": "address"
        },
        {
          "internalType": "uint256",
          "name": "value",
          "type": "uint256"
        }
      ],
      "name": "approve",
      "outputs": [
        {
          "internalType": "bool",
          "name": "",
          "type": "bool"
        }
      ],
      "payable": false,
      "stateMutability": "nonpayable",
      "type": "function"
    },
    {
      "constant": true,
      "inputs": [
        {
          "internalType": "address",
          "name": "",
          "type": "address"
        }
      ],
      "name": "balanceOf",
      "outputs": [
        {
          "internalType": "uint256",
          "name": "",
          "type": "uint256"
        }
      ],
      "payable": false,
      "stateMutability": "view",
      "type": "function"
    },
    {
      "constant": true,
      "inputs": [
        {
          "internalType": "address",
          "name": "",
          "type": "address"
        },
        {
          "internalType": "address",
          "name": "",
          "type": "address"
        }
      ],
      "name": "borrowAllowance",
      "outputs": [
        {
          "internalType": "uint256",
          "name": "",
          "type": "uint256"
        }
      ],
      "payable": false,
      "stateMutability": "view",
      "type": "function"
    },
    {
      "constant": true,
      "inputs": [],
      "name": "borrowIndex",
      "outputs": [
        {
          "internalType": "uint112",
          "name": "",
          "type": "uint112"
        }
      ],
      "payable": false,
      "stateMutability": "view",
      "type": "function"
    },
    {
      "constant": true,
      "inputs": [],
      "name": "borrowRate",
      "outputs": [
        {
          "internalType": "uint48",
          "name": "",
          "type": "uint48"
        }
      ],
      "payable": false,
      "stateMutability": "view",
      "type": "function"
    },
    {
      "constant": true,
      "inputs": [],
      "name": "borrowTracker",
      "outputs": [
        {
          "internalType": "address",
          "name": "",
          "type": "address"
        }
      ],
      "payable": false,
      "stateMutability": "view",
      "type": "function"
    },
    {
      "constant": true,
      "inputs": [],
      "name": "collateral",
      "outputs": [
        {
          "internalType": "address",
          "name": "",
          "type": "address"
        }
      ],
      "payable": false,
      "stateMutability": "view",
      "type": "function"
    },
    {
      "constant": true,
      "inputs": [],
      "name": "decimals",
      "outputs": [
        {
          "internalType": "uint8",
          "name": "",
          "type": "uint8"
        }
      ],
      "payable": false,
      "stateMutability": "view",
      "type": "function"
    },
    {
      "constant": false,
      "inputs": [],
      "name": "exchangeRate",
      "outputs": [
        {
          "internalType": "uint256",
          "name": "",
          "type": "uint256"
        }
      ],
      "payable": false,
      "stateMutability": "nonpayable",
      "type": "function"
    },
    {
      "constant": true,
      "inputs": [],
      "name": "exchangeRateLast",
      "outputs": [
        {
          "internalType": "uint256",
          "name": "",
          "type": "uint256"
        }
      ],
      "payable": false,
      "stateMutability": "view",
      "type": "function"
    },
    {
      "constant": true,
      "inputs": [],
      "name": "factory",
      "outputs": [
        {
          "internalType": "address",
          "name": "",
          "type": "address"
        }
      ],
      "payable": false,
      "stateMutability": "view",
      "type": "function"
    },
    {
      "constant": true,
      "inputs": [],
      "name": "kinkBorrowRate",
      "outputs": [
        {
          "internalType": "uint48",
          "name": "",
          "type": "uint48"
        }
      ],
      "payable": false,
      "stateMutability": "view",
      "type": "function"
    },
    {
      "constant": true,
      "inputs": [],
      "name": "kinkUtilizationRate",
      "outputs": [
        {
          "internalType": "uint256",
          "name": "",
          "type": "uint256"
        }
      ],
      "payable": false,
      "stateMutability": "view",
      "type": "function"
    },
    {
      "constant": false,
      "inputs": [
        {
          "internalType": "address",
          "name": "minter",
          "type": "address"
        }
      ],
      "name": "mint",
      "outputs": [
        {
          "internalType": "uint256",
          "name": "mintTokens",
          "type": "uint256"
        }
      ],
      "payable": false,
      "stateMutability": "nonpayable",
      "type": "function"
    },
    {
      "constant": true,
      "inputs": [],
      "name": "name",
      "outputs": [
        {
          "internalType": "string",
          "name": "",
          "type": "string"
        }
      ],
      "payable": false,
      "stateMutability": "view",
      "type": "function"
    },
    {
      "constant": true,
      "inputs": [
        {
          "internalType": "address",
          "name": "",
          "type": "address"
        }
      ],
      "name": "nonces",
      "outputs": [
        {
          "internalType": "uint256",
          "name": "",
          "type": "uint256"
        }
      ],
      "payable": false,
      "stateMutability": "view",
      "type": "function"
    },
    {
      "constant": false,
      "inputs": [
        {
          "internalType": "address",
          "name": "owner",
          "type": "address"
        },
        {
          "internalType": "address",
          "name": "spender",
          "type": "address"
        },
        {
          "internalType": "uint256",
          "name": "value",
          "type": "uint256"
        },
        {
          "internalType": "uint256",
          "name": "deadline",
          "type": "uint256"
        },
        {
          "internalType": "uint8",
          "name": "v",
          "type": "uint8"
        },
        {
          "internalType": "bytes32",
          "name": "r",
          "type": "bytes32"
        },
        {
          "internalType": "bytes32",
          "name": "s",
          "type": "bytes32"
        }
      ],
      "name": "permit",
      "outputs": [],
      "payable": false,
      "stateMutability": "nonpayable",
      "type": "function"
    },
    {
      "constant": true,
      "inputs": [],
      "name": "rateUpdateTimestamp",
      "outputs": [
        {
          "internalType": "uint32",
          "name": "",
          "type": "uint32"
        }
      ],
      "payable": false,
      "stateMutability": "view",
      "type": "function"
    },
    {
      "constant": false,
      "inputs": [
        {
          "internalType": "address",
          "name": "redeemer",
          "type": "address"
        }
      ],
      "name": "redeem",
      "outputs": [
        {
          "internalType": "uint256",
          "name": "redeemAmount",
          "type": "uint256"
        }
      ],
      "payable": false,
      "stateMutability": "nonpayable",
      "type": "function"
    },
    {
      "constant": true,
      "inputs": [],
      "name": "reserveFactor",
      "outputs": [
        {
          "internalType": "uint256",
          "name": "",
          "type": "uint256"
        }
      ],
      "payable": false,
      "stateMutability": "view",
      "type": "function"
    },
    {
      "constant": false,
      "inputs": [
        {
          "internalType": "address",
          "name": "to",
          "type": "address"
        }
      ],
      "name": "skim",
      "outputs": [],
      "payable": false,
      "stateMutability": "nonpayable",
      "type": "function"
    },
    {
      "constant": true,
      "inputs": [],
      "name": "symbol",
      "outputs": [
        {
          "internalType": "string",
          "name": "",
          "type": "string"
        }
      ],
      "payable": false,
      "stateMutability": "view",
      "type": "function"
    },
    {
      "constant": false,
      "inputs": [],
      "name": "sync",
      "outputs": [],
      "payable": false,
      "stateMutability": "nonpayable",
      "type": "function"
    },
    {
      "constant": true,
      "inputs": [],
      "name": "totalBalance",
      "outputs": [
        {
          "internalType": "uint256",
          "name": "",
          "type": "uint256"
        }
      ],
      "payable": false,
      "stateMutability": "view",
      "type": "function"
    },
    {
      "constant": true,
      "inputs": [],
      "name": "totalBorrows",
      "outputs": [
        {
          "internalType": "uint112",
          "name": "",
          "type": "uint112"
        }
      ],
      "payable": false,
      "stateMutability": "view",
      "type": "function"
    },
    {
      "constant": true,
      "inputs": [],
      "name": "totalSupply",
      "outputs": [
        {
          "internalType": "uint256",
          "name": "",
          "type": "uint256"
        }
      ],
      "payable": false,
      "stateMutability": "view",
      "type": "function"
    },
    {
      "constant": false,
      "inputs": [
        {
          "internalType": "address",
          "name": "to",
          "type": "address"
        },
        {
          "internalType": "uint256",
          "name": "value",
          "type": "uint256"
        }
      ],
      "name": "transfer",
      "outputs": [
        {
          "internalType": "bool",
          "name": "",
          "type": "bool"
        }
      ],
      "payable": false,
      "stateMutability": "nonpayable",
      "type": "function"
    },
    {
      "constant": false,
      "inputs": [
        {
          "internalType": "address",
          "name": "from",
          "type": "address"
        },
        {
          "internalType": "address",
          "name": "to",
          "type": "address"
        },
        {
          "internalType": "uint256",
          "name": "value",
          "type": "uint256"
        }
      ],
      "name": "transferFrom",
      "outputs": [
        {
          "internalType": "bool",
          "name": "",
          "type": "bool"
        }
      ],
      "payable": false,
      "stateMutability": "nonpayable",
      "type": "function"
    },
    {
      "constant": true,
      "inputs": [],
      "name": "underlying",
      "outputs": [
        {
          "internalType": "address",
          "name": "",
          "type": "address"
        }
      ],
      "payable": false,
      "stateMutability": "view",
      "type": "function"
    },
    {
      "constant": false,
      "inputs": [],
      "name": "accrueInterest",
      "outputs": [],
      "payable": false,
      "stateMutability": "nonpayable",
      "type": "function"
    },
    {
      "constant": true,
      "inputs": [],
      "name": "getBlockTimestamp",
      "outputs": [
        {
          "internalType": "uint32",
          "name": "",
          "type": "uint32"
        }
      ],
      "payable": false,
      "stateMutability": "view",
      "type": "function"
    }
  ],
  "bytecode": "0x60806040526012600260006101000a81548160ff021916908360ff1602179055506001600b60006101000a81548160ff021916908315150217905550670de0b6b3a7640000600e60006101000a8154816dffffffffffffffffffffffffffff02191690836dffffffffffffffffffffffffffff160217905550640100000000428161008657fe5b06600e601c6101000a81548163ffffffff021916908363ffffffff160217905550635e80a6c0601060066101000a81548165ffffffffffff021916908365ffffffffffff16021790555064010000000042816100de57fe5b066010600c6101000a81548163ffffffff021916908363ffffffff16021790555067016345785d8a00006011556709b6e64a8ec600006012556486bd6db020601355612dab8061012f6000396000f3fe608060405234801561001057600080fd5b50600436106102535760003560e01c8063796b89b911610146578063ba9a7a56116100c3578063d505accf11610087578063d505accf14610a76578063d8dfeb4514610b0f578063dd62ed3e14610b59578063e076600014610bd1578063e12b630614610bef578063fff6cae914610c1957610253565b8063ba9a7a561461097e578063bc25cf771461099c578063be340e32146109e0578063c45a0155146109fe578063c914b43714610a4857610253565b8063a6afed951161010a578063a6afed9514610888578063a9059cbb14610892578063aa5af0fd146108f8578063ad7a672f14610936578063b95b92a31461095457610253565b8063796b89b9146106fd5780637ecebe001461072757806391b427451461077f57806395a2251f146107ad57806395d89b411461080557610253565b80634322b714116101d45780635b2b9d1a116101985780635b2b9d1a1461056d5780636a6278421461058b5780636bd76d24146105e35780636f307dc31461065b57806370a08231146106a557610253565b80634322b7141461049f578063452ae95f146104bd57806347bd3718146104db5780634a5d316c14610519578063559572201461052357610253565b80632d5231d31161021b5780632d5231d31461040357806330adf81f14610421578063313ce5671461043f5780633644e515146104635780633ba0b9a91461048157610253565b806306fdde0314610258578063095ea7b3146102db57806318160ddd146103415780631aebf12f1461035f57806323b872dd1461037d575b600080fd5b610260610c23565b6040518080602001828103825283818151815260200191508051906020019080838360005b838110156102a0578082015181840152602081019050610285565b50505050905090810190601f1680156102cd5780820380516001836020036101000a031916815260200191505b509250505060405180910390f35b610327600480360360408110156102f157600080fd5b81019080803573ffffffffffffffffffffffffffffffffffffffff16906020019092919080359060200190929190505050610cc1565b604051808215151515815260200191505060405180910390f35b610349610cd8565b6040518082815260200191505060405180910390f35b610367610cde565b6040518082815260200191505060405180910390f35b6103e96004803603606081101561039357600080fd5b81019080803573ffffffffffffffffffffffffffffffffffffffff169060200190929190803573ffffffffffffffffffffffffffffffffffffffff16906020019092919080359060200190929190505050610ce4565b604051808215151515815260200191505060405180910390f35b61040b610ee6565b6040518082815260200191505060405180910390f35b610429610eec565b6040518082815260200191505060405180910390f35b610447610f13565b604051808260ff1660ff16815260200191505060405180910390f35b61046b610f26565b6040518082815260200191505060405180910390f35b610489610f2c565b6040518082815260200191505060405180910390f35b6104a7610f96565b6040518082815260200191505060405180910390f35b6104c5610f9c565b6040518082815260200191505060405180910390f35b6104e3610fa5565b60405180826dffffffffffffffffffffffffffff166dffffffffffffffffffffffffffff16815260200191505060405180910390f35b610521610fc4565b005b61052b6110cb565b604051808273ffffffffffffffffffffffffffffffffffffffff1673ffffffffffffffffffffffffffffffffffffffff16815260200191505060405180910390f35b6105756110f1565b6040518082815260200191505060405180910390f35b6105cd600480360360208110156105a157600080fd5b81019080803573ffffffffffffffffffffffffffffffffffffffff1690602001909291905050506110f6565b6040518082815260200191505060405180910390f35b610645600480360360408110156105f957600080fd5b81019080803573ffffffffffffffffffffffffffffffffffffffff169060200190929190803573ffffffffffffffffffffffffffffffffffffffff169060200190929190505050611409565b6040518082815260200191505060405180910390f35b61066361142e565b604051808273ffffffffffffffffffffffffffffffffffffffff1673ffffffffffffffffffffffffffffffffffffffff16815260200191505060405180910390f35b6106e7600480360360208110156106bb57600080fd5b81019080803573ffffffffffffffffffffffffffffffffffffffff169060200190929190505050611454565b6040518082815260200191505060405180910390f35b61070561146c565b604051808263ffffffff1663ffffffff16815260200191505060405180910390f35b6107696004803603602081101561073d57600080fd5b81019080803573ffffffffffffffffffffffffffffffffffffffff169060200190929190505050611482565b6040518082815260200191505060405180910390f35b61078761149a565b604051808265ffffffffffff1665ffffffffffff16815260200191505060405180910390f35b6107ef600480360360208110156107c357600080fd5b81019080803573ffffffffffffffffffffffffffffffffffffffff1690602001909291905050506114b2565b6040518082815260200191505060405180910390f35b61080d611763565b6040518080602001828103825283818151815260200191508051906020019080838360005b8381101561084d578082015181840152602081019050610832565b50505050905090810190601f16801561087a5780820380516001836020036101000a031916815260200191505b509250505060405180910390f35b610890611801565b005b6108de600480360360408110156108a857600080fd5b81019080803573ffffffffffffffffffffffffffffffffffffffff16906020019092919080359060200190929190505050611a54565b604051808215151515815260200191505060405180910390f35b610900611a6b565b60405180826dffffffffffffffffffffffffffff166dffffffffffffffffffffffffffff16815260200191505060405180910390f35b61093e611a8b565b6040518082815260200191505060405180910390f35b61095c611a91565b604051808263ffffffff1663ffffffff16815260200191505060405180910390f35b610986611aa7565b6040518082815260200191505060405180910390f35b6109de600480360360208110156109b257600080fd5b81019080803573ffffffffffffffffffffffffffffffffffffffff169060200190929190505050611aad565b005b6109e8611c5f565b6040518082815260200191505060405180910390f35b610a06611c65565b604051808273ffffffffffffffffffffffffffffffffffffffff1673ffffffffffffffffffffffffffffffffffffffff16815260200191505060405180910390f35b610a50611c8b565b604051808265ffffffffffff1665ffffffffffff16815260200191505060405180910390f35b610b0d600480360360e0811015610a8c57600080fd5b81019080803573ffffffffffffffffffffffffffffffffffffffff169060200190929190803573ffffffffffffffffffffffffffffffffffffffff1690602001909291908035906020019092919080359060200190929190803560ff1690602001909291908035906020019092919080359060200190929190505050611ca3565b005b610b17611cea565b604051808273ffffffffffffffffffffffffffffffffffffffff1673ffffffffffffffffffffffffffffffffffffffff16815260200191505060405180910390f35b610bbb60048036036040811015610b6f57600080fd5b81019080803573ffffffffffffffffffffffffffffffffffffffff169060200190929190803573ffffffffffffffffffffffffffffffffffffffff169060200190929190505050611d10565b6040518082815260200191505060405180910390f35b610bd9611d35565b6040518082815260200191505060405180910390f35b610bf7611d3d565b604051808263ffffffff1663ffffffff16815260200191505060405180910390f35b610c21611d53565b005b60008054600181600116156101000203166002900480601f016020809104026020016040519081016040528092919081815260200182805460018160011615610100020316600290048015610cb95780601f10610c8e57610100808354040283529160200191610cb9565b820191906000526020600020905b815481529060010190602001808311610c9c57829003601f168201915b505050505081565b6000610cce338484611e15565b6001905092915050565b60035481565b60125481565b60007fffffffffffffffffffffffffffffffffffffffffffffffffffffffffffffffff600560008673ffffffffffffffffffffffffffffffffffffffff1673ffffffffffffffffffffffffffffffffffffffff16815260200190815260200160002060003373ffffffffffffffffffffffffffffffffffffffff1673ffffffffffffffffffffffffffffffffffffffff1681526020019081526020016000205414610ed057610e4f826040518060400160405280601e81526020017f496d7065726d61783a205452414e534645525f4e4f545f414c4c4f5745440000815250600560008873ffffffffffffffffffffffffffffffffffffffff1673ffffffffffffffffffffffffffffffffffffffff16815260200190815260200160002060003373ffffffffffffffffffffffffffffffffffffffff1673ffffffffffffffffffffffffffffffffffffffff16815260200190815260200160002054611f009092919063ffffffff16565b600560008673ffffffffffffffffffffffffffffffffffffffff1673ffffffffffffffffffffffffffffffffffffffff16815260200190815260200160002060003373ffffffffffffffffffffffffffffffffffffffff1673ffffffffffffffffffffffffffffffffffffffff168152602001908152602001600020819055505b610edb848484611fc0565b600190509392505050565b60135481565b7f6e71edae12b1b97f4d1f60370fef10105fa2faae0126114a169c64845d6126c960001b81565b600260009054906101000a900460ff1681565b60065481565b60008060035490506000600a5490506000821480610f4a5750600081145b15610f6157670de0b6b3a764000092505050610f93565b610f8e82610f80670de0b6b3a76400008461218b90919063ffffffff16565b61221190919063ffffffff16565b925050505b90565b60115481565b6407620d070081565b600e809054906101000a90046dffffffffffffffffffffffffffff1681565b600073ffffffffffffffffffffffffffffffffffffffff16600960009054906101000a900473ffffffffffffffffffffffffffffffffffffffff1673ffffffffffffffffffffffffffffffffffffffff1614611088576040517f08c379a000000000000000000000000000000000000000000000000000000000815260040180806020018281038252601d8152602001807f496d7065726d61783a20464143544f52595f414c52454144595f53455400000081525060200191505060405180910390fd5b33600960006101000a81548173ffffffffffffffffffffffffffffffffffffffff021916908373ffffffffffffffffffffffffffffffffffffffff160217905550565b601460009054906101000a900473ffffffffffffffffffffffffffffffffffffffff1681565b600581565b6000600b60009054906101000a900460ff1661117a576040517f08c379a00000000000000000000000000000000000000000000000000000000081526004018080602001828103825260138152602001807f496d7065726d61783a205245454e54455245440000000000000000000000000081525060200191505060405180910390fd5b6000600b60006101000a81548160ff0219169083151502179055506000600860009054906101000a900473ffffffffffffffffffffffffffffffffffffffff1673ffffffffffffffffffffffffffffffffffffffff166370a08231306040518263ffffffff1660e01b8152600401808273ffffffffffffffffffffffffffffffffffffffff1673ffffffffffffffffffffffffffffffffffffffff16815260200191505060206040518083038186803b15801561123657600080fd5b505afa15801561124a573d6000803e3d6000fd5b505050506040513d602081101561126057600080fd5b81019080805190602001909291905050509050600061128a600a548361225b90919063ffffffff16565b90506112c0611297610f2c565b6112b2670de0b6b3a76400008461218b90919063ffffffff16565b61221190919063ffffffff16565b9250600060035414156112f2576112e26103e88461225b90919063ffffffff16565b92506112f160006103e86122a5565b5b60008311611368576040517f08c379a000000000000000000000000000000000000000000000000000000000815260040180806020018281038252601a8152602001807f496d7065726d61783a204d494e545f414d4f554e545f5a45524f00000000000081525060200191505060405180910390fd5b61137284846122a5565b8373ffffffffffffffffffffffffffffffffffffffff163373ffffffffffffffffffffffffffffffffffffffff167f2f00e3cdd69a77be7ed215ec7b2a36784dd158f921fca79ac29deffa353fe6ee8386604051808381526020018281526020019250505060405180910390a350506113e96123bf565b6001600b60006101000a81548160ff021916908315150217905550919050565b600c602052816000526040600020602052806000526040600020600091509150505481565b600860009054906101000a900473ffffffffffffffffffffffffffffffffffffffff1681565b60046020528060005260406000206000915090505481565b6000640100000000428161147c57fe5b06905090565b60076020528060005260406000206000915090505481565b601060069054906101000a900465ffffffffffff1681565b6000600b60009054906101000a900460ff16611536576040517f08c379a00000000000000000000000000000000000000000000000000000000081526004018080602001828103825260138152602001807f496d7065726d61783a205245454e54455245440000000000000000000000000081525060200191505060405180910390fd5b6000600b60006101000a81548160ff0219169083151502179055506000600460003073ffffffffffffffffffffffffffffffffffffffff1673ffffffffffffffffffffffffffffffffffffffff1681526020019081526020016000205490506115c9670de0b6b3a76400006115bb6115ac610f2c565b8461218b90919063ffffffff16565b61221190919063ffffffff16565b915060008211611641576040517f08c379a000000000000000000000000000000000000000000000000000000000815260040180806020018281038252601c8152602001807f496d7065726d61783a2052454445454d5f414d4f554e545f5a45524f0000000081525060200191505060405180910390fd5b600a548211156116b9576040517f08c379a000000000000000000000000000000000000000000000000000000000815260040180806020018281038252601b8152602001807f496d7065726d61783a20494e53554646494349454e545f43415348000000000081525060200191505060405180910390fd5b6116c383836124da565b6116cd3082612748565b8273ffffffffffffffffffffffffffffffffffffffff163373ffffffffffffffffffffffffffffffffffffffff167f3f693fff038bb8a046aa76d9516190ac7444f7d69cf952c4cbdc086fdef2d6fc8484604051808381526020018281526020019250505060405180910390a3506117436123bf565b6001600b60006101000a81548160ff021916908315150217905550919050565b60018054600181600116156101000203166002900480601f0160208091040260200160405190810160405280929190818152602001828054600181600116156101000203166002900480156117f95780601f106117ce576101008083540402835291602001916117f9565b820191906000526020600020905b8154815290600101906020018083116117dc57829003601f168201915b505050505081565b6000600e60009054906101000a90046dffffffffffffffffffffffffffff166dffffffffffffffffffffffffffff1690506000600e809054906101000a90046dffffffffffffffffffffffffffff166dffffffffffffffffffffffffffff1690506000600e601c9054906101000a900463ffffffff169050600061188361146c565b90508063ffffffff168263ffffffff1614156118a25750505050611a52565b6000828203905081600e601c6101000a81548163ffffffff021916908363ffffffff16021790555060006119018263ffffffff16601060009054906101000a900465ffffffffffff1665ffffffffffff1661218b90919063ffffffff16565b90506000611932670de0b6b3a7640000611924888561218b90919063ffffffff16565b61221190919063ffffffff16565b9050611947818761286290919063ffffffff16565b9550611988611979670de0b6b3a764000061196b8a8661218b90919063ffffffff16565b61221190919063ffffffff16565b8861286290919063ffffffff16565b9650611993876128ea565b600e60006101000a8154816dffffffffffffffffffffffffffff02191690836dffffffffffffffffffffffffffff1602179055506119d0866128ea565b600e806101000a8154816dffffffffffffffffffffffffffff02191690836dffffffffffffffffffffffffffff1602179055507f875352fb3fadeb8c0be7cbbe8ff761b308fa7033470cd0287f02f3436fd76cb981888860405180848152602001838152602001828152602001935050505060405180910390a1505050505050505b565b6000611a61338484611fc0565b6001905092915050565b600e60009054906101000a90046dffffffffffffffffffffffffffff1681565b600a5481565b600e601c9054906101000a900463ffffffff1681565b6103e881565b600b60009054906101000a900460ff16611b2f576040517f08c379a00000000000000000000000000000000000000000000000000000000081526004018080602001828103825260138152602001807f496d7065726d61783a205245454e54455245440000000000000000000000000081525060200191505060405180910390fd5b6000600b60006101000a81548160ff021916908315150217905550611c4181611c3c600a54600860009054906101000a900473ffffffffffffffffffffffffffffffffffffffff1673ffffffffffffffffffffffffffffffffffffffff166370a08231306040518263ffffffff1660e01b8152600401808273ffffffffffffffffffffffffffffffffffffffff1673ffffffffffffffffffffffffffffffffffffffff16815260200191505060206040518083038186803b158015611bf357600080fd5b505afa158015611c07573d6000803e3d6000fd5b505050506040513d6020811015611c1d57600080fd5b810190808051906020019092919050505061225b90919063ffffffff16565b6124da565b6001600b60006101000a81548160ff02191690831515021790555050565b600f5481565b600960009054906101000a900473ffffffffffffffffffffffffffffffffffffffff1681565b601060009054906101000a900465ffffffffffff1681565b611cd6878787878787877f6e71edae12b1b97f4d1f60370fef10105fa2faae0126114a169c64845d6126c960001b612978565b611ce1878787611e15565b50505050505050565b600b60019054906101000a900473ffffffffffffffffffffffffffffffffffffffff1681565b6005602052816000526040600020602052806000526040600020600091509150505481565b6312e687c081565b6010600c9054906101000a900463ffffffff1681565b600b60009054906101000a900460ff16611dd5576040517f08c379a00000000000000000000000000000000000000000000000000000000081526004018080602001828103825260138152602001807f496d7065726d61783a205245454e54455245440000000000000000000000000081525060200191505060405180910390fd5b6000600b60006101000a81548160ff021916908315150217905550611df86123bf565b6001600b60006101000a81548160ff021916908315150217905550565b80600560008573ffffffffffffffffffffffffffffffffffffffff1673ffffffffffffffffffffffffffffffffffffffff16815260200190815260200160002060008473ffffffffffffffffffffffffffffffffffffffff1673ffffffffffffffffffffffffffffffffffffffff168152602001908152602001600020819055508173ffffffffffffffffffffffffffffffffffffffff168373ffffffffffffffffffffffffffffffffffffffff167f8c5be1e5ebec7d5bd14f71427d1e84f3dd0314c0f7b2291e5b200ac8c7c3b925836040518082815260200191505060405180910390a3505050565b6000838311158290611fad576040517f08c379a00000000000000000000000000000000000000000000000000000000081526004018080602001828103825283818151815260200191508051906020019080838360005b83811015611f72578082015181840152602081019050611f57565b50505050905090810190601f168015611f9f5780820380516001836020036101000a031916815260200191505b509250505060405180910390fd5b5060008385039050809150509392505050565b612049816040518060400160405280601b81526020017f496d7065726d61783a205452414e534645525f544f4f5f484947480000000000815250600460008773ffffffffffffffffffffffffffffffffffffffff1673ffffffffffffffffffffffffffffffffffffffff16815260200190815260200160002054611f009092919063ffffffff16565b600460008573ffffffffffffffffffffffffffffffffffffffff1673ffffffffffffffffffffffffffffffffffffffff168152602001908152602001600020819055506120de81600460008573ffffffffffffffffffffffffffffffffffffffff1673ffffffffffffffffffffffffffffffffffffffff1681526020019081526020016000205461286290919063ffffffff16565b600460008473ffffffffffffffffffffffffffffffffffffffff1673ffffffffffffffffffffffffffffffffffffffff168152602001908152602001600020819055508173ffffffffffffffffffffffffffffffffffffffff168373ffffffffffffffffffffffffffffffffffffffff167fddf252ad1be2c89b69c2b068fc378daa952ba7f163c4a11628f55a4df523b3ef836040518082815260200191505060405180910390a3505050565b60008083141561219e576000905061220b565b60008284029050828482816121af57fe5b0414612206576040517f08c379a0000000000000000000000000000000000000000000000000000000008152600401808060200182810382526021815260200180612d566021913960400191505060405180910390fd5b809150505b92915050565b600061225383836040518060400160405280601a81526020017f536166654d6174683a206469766973696f6e206279207a65726f000000000000815250612c8f565b905092915050565b600061229d83836040518060400160405280601f81526020017f536166654d6174683a207375627472616374696f6e20756e646572666c6f7700815250611f00565b905092915050565b6122ba8160035461286290919063ffffffff16565b60038190555061231281600460008573ffffffffffffffffffffffffffffffffffffffff1673ffffffffffffffffffffffffffffffffffffffff1681526020019081526020016000205461286290919063ffffffff16565b600460008473ffffffffffffffffffffffffffffffffffffffff1673ffffffffffffffffffffffffffffffffffffffff168152602001908152602001600020819055508173ffffffffffffffffffffffffffffffffffffffff16600073ffffffffffffffffffffffffffffffffffffffff167fddf252ad1be2c89b69c2b068fc378daa952ba7f163c4a11628f55a4df523b3ef836040518082815260200191505060405180910390a35050565b600860009054906101000a900473ffffffffffffffffffffffffffffffffffffffff1673ffffffffffffffffffffffffffffffffffffffff166370a08231306040518263ffffffff1660e01b8152600401808273ffffffffffffffffffffffffffffffffffffffff1673ffffffffffffffffffffffffffffffffffffffff16815260200191505060206040518083038186803b15801561245e57600080fd5b505afa158015612472573d6000803e3d6000fd5b505050506040513d602081101561248857600080fd5b8101908080519060200190929190505050600a819055507f8a0df8ef054fae2c3d2d19a7b322e864870cc9fd3cb07fb9526309c596244bf4600a546040518082815260200191505060405180910390a1565b60006060600860009054906101000a900473ffffffffffffffffffffffffffffffffffffffff1673ffffffffffffffffffffffffffffffffffffffff166040518060400160405280601981526020017f7472616e7366657228616464726573732c75696e743235362900000000000000815250805190602001208585604051602401808373ffffffffffffffffffffffffffffffffffffffff1673ffffffffffffffffffffffffffffffffffffffff16815260200182815260200192505050604051602081830303815290604052907bffffffffffffffffffffffffffffffffffffffffffffffffffffffff19166020820180517bffffffffffffffffffffffffffffffffffffffffffffffffffffffff83818316178352505050506040518082805190602001908083835b602083106126295780518252602082019150602081019050602083039250612606565b6001836020036101000a0380198251168184511680821785525050505050509050019150506000604051808303816000865af19150503d806000811461268b576040519150601f19603f3d011682016040523d82523d6000602084013e612690565b606091505b50915091508180156126d057506000815114806126cf57508080602001905160208110156126bd57600080fd5b81019080805190602001909291905050505b5b612742576040517f08c379a00000000000000000000000000000000000000000000000000000000081526004018080602001828103825260198152602001807f496d7065726d61783a205452414e534645525f4641494c45440000000000000081525060200191505060405180910390fd5b50505050565b61279a81600460008573ffffffffffffffffffffffffffffffffffffffff1673ffffffffffffffffffffffffffffffffffffffff1681526020019081526020016000205461225b90919063ffffffff16565b600460008473ffffffffffffffffffffffffffffffffffffffff1673ffffffffffffffffffffffffffffffffffffffff168152602001908152602001600020819055506127f28160035461225b90919063ffffffff16565b600381905550600073ffffffffffffffffffffffffffffffffffffffff168273ffffffffffffffffffffffffffffffffffffffff167fddf252ad1be2c89b69c2b068fc378daa952ba7f163c4a11628f55a4df523b3ef836040518082815260200191505060405180910390a35050565b6000808284019050838110156128e0576040517f08c379a000000000000000000000000000000000000000000000000000000000815260040180806020018281038252601b8152602001807f536166654d6174683a206164646974696f6e206f766572666c6f77000000000081525060200191505060405180910390fd5b8091505092915050565b60006e0100000000000000000000000000008210612970576040517f08c379a00000000000000000000000000000000000000000000000000000000081526004018080602001828103825260118152602001807f496d7065726d61783a205341464531313200000000000000000000000000000081525060200191505060405180910390fd5b819050919050565b428510156129ee576040517f08c379a00000000000000000000000000000000000000000000000000000000081526004018080602001828103825260118152602001807f496d7065726d61783a204558504952454400000000000000000000000000000081525060200191505060405180910390fd5b6000600654828a8a8a600760008f73ffffffffffffffffffffffffffffffffffffffff1673ffffffffffffffffffffffffffffffffffffffff1681526020019081526020016000206000815480929190600101919050558b604051602001808781526020018673ffffffffffffffffffffffffffffffffffffffff1673ffffffffffffffffffffffffffffffffffffffff1681526020018573ffffffffffffffffffffffffffffffffffffffff1673ffffffffffffffffffffffffffffffffffffffff16815260200184815260200183815260200182815260200196505050505050506040516020818303038152906040528051906020012060405160200180807f190100000000000000000000000000000000000000000000000000000000000081525060020183815260200182815260200192505050604051602081830303815290604052805190602001209050600060018287878760405160008152602001604052604051808581526020018460ff1660ff1681526020018381526020018281526020019450505050506020604051602081039080840390855afa158015612b9d573d6000803e3d6000fd5b505050602060405103519050600073ffffffffffffffffffffffffffffffffffffffff168173ffffffffffffffffffffffffffffffffffffffff1614158015612c1157508973ffffffffffffffffffffffffffffffffffffffff168173ffffffffffffffffffffffffffffffffffffffff16145b612c83576040517f08c379a000000000000000000000000000000000000000000000000000000000815260040180806020018281038252601b8152602001807f496d7065726d61783a20494e56414c49445f5349474e4154555245000000000081525060200191505060405180910390fd5b50505050505050505050565b60008083118290612d3b576040517f08c379a00000000000000000000000000000000000000000000000000000000081526004018080602001828103825283818151815260200191508051906020019080838360005b83811015612d00578082015181840152602081019050612ce5565b50505050905090810190601f168015612d2d5780820380516001836020036101000a031916815260200191505b509250505060405180910390fd5b506000838581612d4757fe5b04905080915050939250505056fe536166654d6174683a206d756c7469706c69636174696f6e206f766572666c6f77a265627a7a7231582063f72795a138fd672bcd4edf61ddfbc43af50ea54a3b462033755b03fe1c590a64736f6c63430005100032",
  "source": "pragma solidity =0.5.16;\r\n\r\nimport \"./BStorage.sol\";\r\nimport \"./PoolToken.sol\";\r\n\r\ncontract BInterestRateModel is PoolToken, BStorage {\r\n\r\n\t// When utilization is 100% borrowRate is kinkBorrowRate * KINK_MULTIPLIER\r\n\t// kinkBorrowRate relative adjustment per second belongs to [1-adjustSpeed, 1+adjustSpeed*(KINK_MULTIPLIER-1)]\r\n\tuint public constant KINK_MULTIPLIER = 5;\r\n\tuint public constant KINK_BORROW_RATE_MAX = 31.7097920e9; //100% per year\r\n\tuint public constant KINK_BORROW_RATE_MIN = 0.31709792e9; //1% per year\r\n\r\n\tevent AccrueInterest(uint interestAccumulated, uint borrowIndex, uint totalBorrows);\r\n\tevent CalculateKinkBorrowRate(uint kinkBorrowRate);\r\n\tevent CalculateBorrowRate(uint borrowRate);\r\n\t\t\r\n\tfunction _calculateBorrowRate() internal {\r\n\t\tuint _kinkUtilizationRate = kinkUtilizationRate;\t\t\r\n\t\tuint _adjustSpeed = adjustSpeed;\r\n\t\tuint _borrowRate = borrowRate;\t\r\n\t\tuint _kinkBorrowRate = kinkBorrowRate;\r\n\t\tuint32 _rateUpdateTimestamp = rateUpdateTimestamp;\t\t\r\n\t\r\n\t\t// update kinkBorrowRate using previous borrowRate\r\n\t\tuint32 timeElapsed = getBlockTimestamp() - _rateUpdateTimestamp; // underflow is desired\r\n\t\tif(timeElapsed > 0) {\r\n\t\t\trateUpdateTimestamp = getBlockTimestamp();\r\n\t\t\tuint adjustFactor;\r\n\t\t\t\r\n\t\t\tif (_borrowRate < _kinkBorrowRate) {\r\n\t\t\t\t// never overflows, _kinkBorrowRate is never 0\r\n\t\t\t\tuint tmp = (_kinkBorrowRate - _borrowRate) * 1e18 / _kinkBorrowRate * _adjustSpeed * timeElapsed / 1e18;\r\n\t\t\t\tadjustFactor = tmp > 1e18 ? 0 : 1e18 - tmp;\r\n\t\t\t} else {\r\n\t\t\t\t// never overflows, _kinkBorrowRate is never 0\r\n\t\t\t\tuint tmp = (_borrowRate - _kinkBorrowRate) * 1e18 / _kinkBorrowRate * _adjustSpeed * timeElapsed / 1e18;\r\n\t\t\t\tadjustFactor = tmp + 1e18;\r\n\t\t\t}\r\n\t\t\t\r\n\t\t\t// never overflows\r\n\t\t\t_kinkBorrowRate = _kinkBorrowRate * adjustFactor / 1e18;\r\n\t\t\tif(_kinkBorrowRate > KINK_BORROW_RATE_MAX) _kinkBorrowRate = KINK_BORROW_RATE_MAX;\r\n\t\t\tif(_kinkBorrowRate < KINK_BORROW_RATE_MIN) _kinkBorrowRate = KINK_BORROW_RATE_MIN;\r\n\r\n\t\t\tkinkBorrowRate = uint48(_kinkBorrowRate);\r\n\t\t\temit CalculateKinkBorrowRate(_kinkBorrowRate);\r\n\t\t}\r\n\t\t\r\n\t\tuint _utilizationRate;\r\n\t\t{ // avoid stack to deep\r\n\t\tuint _totalBorrows = totalBorrows; // gas savings\r\n\t\tuint _actualBalance = totalBalance.add(_totalBorrows);\r\n\t\t_utilizationRate = (_actualBalance == 0) ? 0 : _totalBorrows * 1e18 / _actualBalance;\r\n\t\t}\r\n\t\t\r\n\t\t// update borrowRate using the new kinkBorrowRate\t\r\n\t\tif(_utilizationRate <= _kinkUtilizationRate) {\r\n\t\t\t// never overflows, _kinkUtilizationRate is never 0\r\n\t\t\t_borrowRate = _kinkBorrowRate * _utilizationRate / _kinkUtilizationRate;\r\n\t\t} else {\r\n\t\t\t// never overflows, _kinkUtilizationRate is always < 1e18\r\n\t\t\tuint overUtilization = (_utilizationRate - _kinkUtilizationRate) * 1e18 / (1e18 - _kinkUtilizationRate);\r\n\t\t\t// never overflows\r\n\t\t\t_borrowRate = ((KINK_MULTIPLIER - 1) * overUtilization + 1e18) * _kinkBorrowRate / 1e18;\r\n\t\t}\r\n\t\tborrowRate = uint48(_borrowRate);\r\n\t\temit CalculateBorrowRate(_borrowRate);\r\n\t}\r\n\t\r\n\t// applies accrued interest to total borrows and reserves\r\n\tfunction accrueInterest() public {\r\n\t\tuint _borrowIndex = borrowIndex;\r\n\t\tuint _totalBorrows = totalBorrows;\r\n\t\tuint32 _accrualTimestamp = accrualTimestamp;\r\n\t\t\r\n\t\tuint32 blockTimestamp = getBlockTimestamp();\r\n\t\tif (_accrualTimestamp == blockTimestamp) return;\r\n\t\tuint32 timeElapsed = blockTimestamp - _accrualTimestamp; // underflow is desired\r\n\t\taccrualTimestamp = blockTimestamp;\r\n\t\t\r\n\t\tuint interestFactor = uint(borrowRate).mul(timeElapsed);\t\r\n\t\tuint interestAccumulated = interestFactor.mul(_totalBorrows).div(1e18);\r\n\t\t_totalBorrows = _totalBorrows.add( interestAccumulated );\r\n\t\t_borrowIndex = _borrowIndex.add( interestFactor.mul(_borrowIndex).div(1e18) );\r\n\t\r\n\t\tborrowIndex = safe112(_borrowIndex);\r\n\t\ttotalBorrows = safe112(_totalBorrows);\r\n\t\temit AccrueInterest(interestAccumulated, _borrowIndex, _totalBorrows);\r\n\t}\r\n\t\t\r\n\tfunction getBlockTimestamp() public view returns (uint32) {\r\n\t\treturn uint32(block.timestamp % 2**32);\r\n\t}\r\n}",
  "sourcePath": "C:\\Users\\simor\\Desktop\\impermax-x-uniswapv2-periphery\\test\\Contracts\\imx-univ2-core\\BInterestRateModel.sol",
  "compiler": {
    "name": "solc",
    "version": "0.5.16+commit.9c3226ce.Emscripten.clang"
  },
  "schemaVersion": "3.3.2",
  "updatedAt": "2021-01-07T23:07:24.715Z",
  "devdoc": {
    "methods": {}
  },
  "userdoc": {
    "methods": {
      "_setFactory()": {
        "notice": "* Initialize **"
      }
    }
  }
}