{
  "contractName": "Borrowable",
  "abi": [
    {
      "inputs": [],
      "payable": false,
      "stateMutability": "nonpayable",
      "type": "constructor"
    },
    {
      "anonymous": false,
      "inputs": [
        {
          "indexed": false,
          "internalType": "uint256",
          "name": "interestAccumulated",
          "type": "uint256"
        },
        {
          "indexed": false,
          "internalType": "uint256",
          "name": "borrowIndex",
          "type": "uint256"
        },
        {
          "indexed": false,
          "internalType": "uint256",
          "name": "totalBorrows",
          "type": "uint256"
        }
      ],
      "name": "AccrueInterest",
      "type": "event"
    },
    {
      "anonymous": false,
      "inputs": [
        {
          "indexed": true,
          "internalType": "address",
          "name": "owner",
          "type": "address"
        },
        {
          "indexed": true,
          "internalType": "address",
          "name": "spender",
          "type": "address"
        },
        {
          "indexed": false,
          "internalType": "uint256",
          "name": "value",
          "type": "uint256"
        }
      ],
      "name": "Approval",
      "type": "event"
    },
    {
      "anonymous": false,
      "inputs": [
        {
          "indexed": true,
          "internalType": "address",
          "name": "sender",
          "type": "address"
        },
        {
          "indexed": true,
          "internalType": "address",
          "name": "borrower",
          "type": "address"
        },
        {
          "indexed": true,
          "internalType": "address",
          "name": "receiver",
          "type": "address"
        },
        {
          "indexed": false,
          "internalType": "uint256",
          "name": "borrowAmount",
          "type": "uint256"
        },
        {
          "indexed": false,
          "internalType": "uint256",
          "name": "repayAmount",
          "type": "uint256"
        },
        {
          "indexed": false,
          "internalType": "uint256",
          "name": "accountBorrowsPrior",
          "type": "uint256"
        },
        {
          "indexed": false,
          "internalType": "uint256",
          "name": "accountBorrows",
          "type": "uint256"
        },
        {
          "indexed": false,
          "internalType": "uint256",
          "name": "totalBorrows",
          "type": "uint256"
        }
      ],
      "name": "Borrow",
      "type": "event"
    },
    {
      "anonymous": false,
      "inputs": [
        {
          "indexed": true,
          "internalType": "address",
          "name": "owner",
          "type": "address"
        },
        {
          "indexed": true,
          "internalType": "address",
          "name": "spender",
          "type": "address"
        },
        {
          "indexed": false,
          "internalType": "uint256",
          "name": "value",
          "type": "uint256"
        }
      ],
      "name": "BorrowApproval",
      "type": "event"
    },
    {
      "anonymous": false,
      "inputs": [
        {
          "indexed": false,
          "internalType": "uint256",
          "name": "borrowRate",
          "type": "uint256"
        }
      ],
      "name": "CalculateBorrowRate",
      "type": "event"
    },
    {
      "anonymous": false,
      "inputs": [
        {
          "indexed": false,
          "internalType": "uint256",
          "name": "kinkRate",
          "type": "uint256"
        }
      ],
      "name": "CalculateKink",
      "type": "event"
    },
    {
      "anonymous": false,
      "inputs": [
        {
          "indexed": false,
          "internalType": "uint256",
          "name": "kinkBorrowRate",
          "type": "uint256"
        }
      ],
      "name": "CalculateKinkBorrowRate",
      "type": "event"
    },
    {
      "anonymous": false,
      "inputs": [
        {
          "indexed": true,
          "internalType": "address",
          "name": "sender",
          "type": "address"
        },
        {
          "indexed": true,
          "internalType": "address",
          "name": "borrower",
          "type": "address"
        },
        {
          "indexed": true,
          "internalType": "address",
          "name": "liquidator",
          "type": "address"
        },
        {
          "indexed": false,
          "internalType": "uint256",
          "name": "seizeTokens",
          "type": "uint256"
        },
        {
          "indexed": false,
          "internalType": "uint256",
          "name": "repayAmount",
          "type": "uint256"
        },
        {
          "indexed": false,
          "internalType": "uint256",
          "name": "accountBorrowsPrior",
          "type": "uint256"
        },
        {
          "indexed": false,
          "internalType": "uint256",
          "name": "accountBorrows",
          "type": "uint256"
        },
        {
          "indexed": false,
          "internalType": "uint256",
          "name": "totalBorrows",
          "type": "uint256"
        }
      ],
      "name": "Liquidate",
      "type": "event"
    },
    {
      "anonymous": false,
      "inputs": [
        {
          "indexed": true,
          "internalType": "address",
          "name": "sender",
          "type": "address"
        },
        {
          "indexed": true,
          "internalType": "address",
          "name": "minter",
          "type": "address"
        },
        {
          "indexed": false,
          "internalType": "uint256",
          "name": "mintAmount",
          "type": "uint256"
        },
        {
          "indexed": false,
          "internalType": "uint256",
          "name": "mintTokens",
          "type": "uint256"
        }
      ],
      "name": "Mint",
      "type": "event"
    },
    {
      "anonymous": false,
      "inputs": [
        {
          "indexed": false,
          "internalType": "uint256",
          "name": "newAdjustSpeed",
          "type": "uint256"
        }
      ],
      "name": "NewAdjustSpeed",
      "type": "event"
    },
    {
      "anonymous": false,
      "inputs": [
        {
          "indexed": false,
          "internalType": "address",
          "name": "newBorrowTracker",
          "type": "address"
        }
      ],
      "name": "NewBorrowTracker",
      "type": "event"
    },
    {
      "anonymous": false,
      "inputs": [
        {
          "indexed": false,
          "internalType": "uint256",
          "name": "newKinkUtilizationRate",
          "type": "uint256"
        }
      ],
      "name": "NewKinkUtilizationRate",
      "type": "event"
    },
    {
      "anonymous": false,
      "inputs": [
        {
          "indexed": false,
          "internalType": "uint256",
          "name": "newReserveFactor",
          "type": "uint256"
        }
      ],
      "name": "NewReserveFactor",
      "type": "event"
    },
    {
      "anonymous": false,
      "inputs": [
        {
          "indexed": true,
          "internalType": "address",
          "name": "sender",
          "type": "address"
        },
        {
          "indexed": true,
          "internalType": "address",
          "name": "redeemer",
          "type": "address"
        },
        {
          "indexed": false,
          "internalType": "uint256",
          "name": "redeemAmount",
          "type": "uint256"
        },
        {
          "indexed": false,
          "internalType": "uint256",
          "name": "redeemTokens",
          "type": "uint256"
        }
      ],
      "name": "Redeem",
      "type": "event"
    },
    {
      "anonymous": false,
      "inputs": [
        {
          "indexed": false,
          "internalType": "uint256",
          "name": "totalBalance",
          "type": "uint256"
        }
      ],
      "name": "Sync",
      "type": "event"
    },
    {
      "anonymous": false,
      "inputs": [
        {
          "indexed": true,
          "internalType": "address",
          "name": "from",
          "type": "address"
        },
        {
          "indexed": true,
          "internalType": "address",
          "name": "to",
          "type": "address"
        },
        {
          "indexed": false,
          "internalType": "uint256",
          "name": "value",
          "type": "uint256"
        }
      ],
      "name": "Transfer",
      "type": "event"
    },
    {
      "constant": true,
      "inputs": [],
      "name": "ADJUST_SPEED_MAX",
      "outputs": [
        {
          "internalType": "uint256",
          "name": "",
          "type": "uint256"
        }
      ],
      "payable": false,
      "stateMutability": "view",
      "type": "function"
    },
    {
      "constant": true,
      "inputs": [],
      "name": "ADJUST_SPEED_MIN",
      "outputs": [
        {
          "internalType": "uint256",
          "name": "",
          "type": "uint256"
        }
      ],
      "payable": false,
      "stateMutability": "view",
      "type": "function"
    },
    {
      "constant": true,
      "inputs": [],
      "name": "BORROW_FEE",
      "outputs": [
        {
          "internalType": "uint256",
          "name": "",
          "type": "uint256"
        }
      ],
      "payable": false,
      "stateMutability": "view",
      "type": "function"
    },
    {
      "constant": true,
      "inputs": [],
      "name": "BORROW_PERMIT_TYPEHASH",
      "outputs": [
        {
          "internalType": "bytes32",
          "name": "",
          "type": "bytes32"
        }
      ],
      "payable": false,
      "stateMutability": "view",
      "type": "function"
    },
    {
      "constant": true,
      "inputs": [],
      "name": "DOMAIN_SEPARATOR",
      "outputs": [
        {
          "internalType": "bytes32",
          "name": "",
          "type": "bytes32"
        }
      ],
      "payable": false,
      "stateMutability": "view",
      "type": "function"
    },
    {
      "constant": true,
      "inputs": [],
      "name": "KINK_BORROW_RATE_MAX",
      "outputs": [
        {
          "internalType": "uint256",
          "name": "",
          "type": "uint256"
        }
      ],
      "payable": false,
      "stateMutability": "view",
      "type": "function"
    },
    {
      "constant": true,
      "inputs": [],
      "name": "KINK_BORROW_RATE_MIN",
      "outputs": [
        {
          "internalType": "uint256",
          "name": "",
          "type": "uint256"
        }
      ],
      "payable": false,
      "stateMutability": "view",
      "type": "function"
    },
    {
      "constant": true,
      "inputs": [],
      "name": "KINK_MULTIPLIER",
      "outputs": [
        {
          "internalType": "uint256",
          "name": "",
          "type": "uint256"
        }
      ],
      "payable": false,
      "stateMutability": "view",
      "type": "function"
    },
    {
      "constant": true,
      "inputs": [],
      "name": "KINK_UR_MAX",
      "outputs": [
        {
          "internalType": "uint256",
          "name": "",
          "type": "uint256"
        }
      ],
      "payable": false,
      "stateMutability": "view",
      "type": "function"
    },
    {
      "constant": true,
      "inputs": [],
      "name": "KINK_UR_MIN",
      "outputs": [
        {
          "internalType": "uint256",
          "name": "",
          "type": "uint256"
        }
      ],
      "payable": false,
      "stateMutability": "view",
      "type": "function"
    },
    {
      "constant": true,
      "inputs": [],
      "name": "MINIMUM_LIQUIDITY",
      "outputs": [
        {
          "internalType": "uint256",
          "name": "",
          "type": "uint256"
        }
      ],
      "payable": false,
      "stateMutability": "view",
      "type": "function"
    },
    {
      "constant": true,
      "inputs": [],
      "name": "PERMIT_TYPEHASH",
      "outputs": [
        {
          "internalType": "bytes32",
          "name": "",
          "type": "bytes32"
        }
      ],
      "payable": false,
      "stateMutability": "view",
      "type": "function"
    },
    {
      "constant": true,
      "inputs": [],
      "name": "RESERVE_FACTOR_MAX",
      "outputs": [
        {
          "internalType": "uint256",
          "name": "",
          "type": "uint256"
        }
      ],
      "payable": false,
      "stateMutability": "view",
      "type": "function"
    },
    {
      "constant": false,
      "inputs": [
        {
          "internalType": "string",
          "name": "_name",
          "type": "string"
        },
        {
          "internalType": "string",
          "name": "_symbol",
          "type": "string"
        },
        {
          "internalType": "address",
          "name": "_underlying",
          "type": "address"
        },
        {
          "internalType": "address",
          "name": "_collateral",
          "type": "address"
        }
      ],
      "name": "_initialize",
      "outputs": [],
      "payable": false,
      "stateMutability": "nonpayable",
      "type": "function"
    },
    {
      "constant": false,
      "inputs": [
        {
          "internalType": "uint256",
          "name": "newAdjustSpeed",
          "type": "uint256"
        }
      ],
      "name": "_setAdjustSpeed",
      "outputs": [],
      "payable": false,
      "stateMutability": "nonpayable",
      "type": "function"
    },
    {
      "constant": false,
      "inputs": [
        {
          "internalType": "address",
          "name": "newBorrowTracker",
          "type": "address"
        }
      ],
      "name": "_setBorrowTracker",
      "outputs": [],
      "payable": false,
      "stateMutability": "nonpayable",
      "type": "function"
    },
    {
      "constant": false,
      "inputs": [],
      "name": "_setFactory",
      "outputs": [],
      "payable": false,
      "stateMutability": "nonpayable",
      "type": "function"
    },
    {
      "constant": false,
      "inputs": [
        {
          "internalType": "uint256",
          "name": "newKinkUtilizationRate",
          "type": "uint256"
        }
      ],
      "name": "_setKinkUtilizationRate",
      "outputs": [],
      "payable": false,
      "stateMutability": "nonpayable",
      "type": "function"
    },
    {
      "constant": false,
      "inputs": [
        {
          "internalType": "uint256",
          "name": "newReserveFactor",
          "type": "uint256"
        }
      ],
      "name": "_setReserveFactor",
      "outputs": [],
      "payable": false,
      "stateMutability": "nonpayable",
      "type": "function"
    },
    {
      "constant": true,
      "inputs": [],
      "name": "accrualTimestamp",
      "outputs": [
        {
          "internalType": "uint32",
          "name": "",
          "type": "uint32"
        }
      ],
      "payable": false,
      "stateMutability": "view",
      "type": "function"
    },
    {
      "constant": false,
      "inputs": [],
      "name": "accrueInterest",
      "outputs": [],
      "payable": false,
      "stateMutability": "nonpayable",
      "type": "function"
    },
    {
      "constant": true,
      "inputs": [],
      "name": "adjustSpeed",
      "outputs": [
        {
          "internalType": "uint256",
          "name": "",
          "type": "uint256"
        }
      ],
      "payable": false,
      "stateMutability": "view",
      "type": "function"
    },
    {
      "constant": true,
      "inputs": [
        {
          "internalType": "address",
          "name": "",
          "type": "address"
        },
        {
          "internalType": "address",
          "name": "",
          "type": "address"
        }
      ],
      "name": "allowance",
      "outputs": [
        {
          "internalType": "uint256",
          "name": "",
          "type": "uint256"
        }
      ],
      "payable": false,
      "stateMutability": "view",
      "type": "function"
    },
    {
      "constant": false,
      "inputs": [
        {
          "internalType": "address",
          "name": "spender",
          "type": "address"
        },
        {
          "internalType": "uint256",
          "name": "value",
          "type": "uint256"
        }
      ],
      "name": "approve",
      "outputs": [
        {
          "internalType": "bool",
          "name": "",
          "type": "bool"
        }
      ],
      "payable": false,
      "stateMutability": "nonpayable",
      "type": "function"
    },
    {
      "constant": true,
      "inputs": [
        {
          "internalType": "address",
          "name": "",
          "type": "address"
        }
      ],
      "name": "balanceOf",
      "outputs": [
        {
          "internalType": "uint256",
          "name": "",
          "type": "uint256"
        }
      ],
      "payable": false,
      "stateMutability": "view",
      "type": "function"
    },
    {
      "constant": true,
      "inputs": [
        {
          "internalType": "address",
          "name": "",
          "type": "address"
        },
        {
          "internalType": "address",
          "name": "",
          "type": "address"
        }
      ],
      "name": "borrowAllowance",
      "outputs": [
        {
          "internalType": "uint256",
          "name": "",
          "type": "uint256"
        }
      ],
      "payable": false,
      "stateMutability": "view",
      "type": "function"
    },
    {
      "constant": false,
      "inputs": [
        {
          "internalType": "address",
          "name": "spender",
          "type": "address"
        },
        {
          "internalType": "uint256",
          "name": "value",
          "type": "uint256"
        }
      ],
      "name": "borrowApprove",
      "outputs": [
        {
          "internalType": "bool",
          "name": "",
          "type": "bool"
        }
      ],
      "payable": false,
      "stateMutability": "nonpayable",
      "type": "function"
    },
    {
      "constant": true,
      "inputs": [],
      "name": "borrowIndex",
      "outputs": [
        {
          "internalType": "uint112",
          "name": "",
          "type": "uint112"
        }
      ],
      "payable": false,
      "stateMutability": "view",
      "type": "function"
    },
    {
      "constant": false,
      "inputs": [
        {
          "internalType": "address",
          "name": "owner",
          "type": "address"
        },
        {
          "internalType": "address",
          "name": "spender",
          "type": "address"
        },
        {
          "internalType": "uint256",
          "name": "value",
          "type": "uint256"
        },
        {
          "internalType": "uint256",
          "name": "deadline",
          "type": "uint256"
        },
        {
          "internalType": "uint8",
          "name": "v",
          "type": "uint8"
        },
        {
          "internalType": "bytes32",
          "name": "r",
          "type": "bytes32"
        },
        {
          "internalType": "bytes32",
          "name": "s",
          "type": "bytes32"
        }
      ],
      "name": "borrowPermit",
      "outputs": [],
      "payable": false,
      "stateMutability": "nonpayable",
      "type": "function"
    },
    {
      "constant": true,
      "inputs": [],
      "name": "borrowRate",
      "outputs": [
        {
          "internalType": "uint48",
          "name": "",
          "type": "uint48"
        }
      ],
      "payable": false,
      "stateMutability": "view",
      "type": "function"
    },
    {
      "constant": true,
      "inputs": [],
      "name": "borrowTracker",
      "outputs": [
        {
          "internalType": "address",
          "name": "",
          "type": "address"
        }
      ],
      "payable": false,
      "stateMutability": "view",
      "type": "function"
    },
    {
      "constant": true,
      "inputs": [],
      "name": "collateral",
      "outputs": [
        {
          "internalType": "address",
          "name": "",
          "type": "address"
        }
      ],
      "payable": false,
      "stateMutability": "view",
      "type": "function"
    },
    {
      "constant": true,
      "inputs": [],
      "name": "decimals",
      "outputs": [
        {
          "internalType": "uint8",
          "name": "",
          "type": "uint8"
        }
      ],
      "payable": false,
      "stateMutability": "view",
      "type": "function"
    },
    {
      "constant": true,
      "inputs": [],
      "name": "exchangeRateLast",
      "outputs": [
        {
          "internalType": "uint256",
          "name": "",
          "type": "uint256"
        }
      ],
      "payable": false,
      "stateMutability": "view",
      "type": "function"
    },
    {
      "constant": true,
      "inputs": [],
      "name": "factory",
      "outputs": [
        {
          "internalType": "address",
          "name": "",
          "type": "address"
        }
      ],
      "payable": false,
      "stateMutability": "view",
      "type": "function"
    },
    {
      "constant": true,
      "inputs": [],
      "name": "getBlockTimestamp",
      "outputs": [
        {
          "internalType": "uint32",
          "name": "",
          "type": "uint32"
        }
      ],
      "payable": false,
      "stateMutability": "view",
      "type": "function"
    },
    {
      "constant": true,
      "inputs": [],
      "name": "kinkBorrowRate",
      "outputs": [
        {
          "internalType": "uint48",
          "name": "",
          "type": "uint48"
        }
      ],
      "payable": false,
      "stateMutability": "view",
      "type": "function"
    },
    {
      "constant": true,
      "inputs": [],
      "name": "kinkUtilizationRate",
      "outputs": [
        {
          "internalType": "uint256",
          "name": "",
          "type": "uint256"
        }
      ],
      "payable": false,
      "stateMutability": "view",
      "type": "function"
    },
    {
      "constant": false,
      "inputs": [
        {
          "internalType": "address",
          "name": "minter",
          "type": "address"
        }
      ],
      "name": "mint",
      "outputs": [
        {
          "internalType": "uint256",
          "name": "mintTokens",
          "type": "uint256"
        }
      ],
      "payable": false,
      "stateMutability": "nonpayable",
      "type": "function"
    },
    {
      "constant": true,
      "inputs": [],
      "name": "name",
      "outputs": [
        {
          "internalType": "string",
          "name": "",
          "type": "string"
        }
      ],
      "payable": false,
      "stateMutability": "view",
      "type": "function"
    },
    {
      "constant": true,
      "inputs": [
        {
          "internalType": "address",
          "name": "",
          "type": "address"
        }
      ],
      "name": "nonces",
      "outputs": [
        {
          "internalType": "uint256",
          "name": "",
          "type": "uint256"
        }
      ],
      "payable": false,
      "stateMutability": "view",
      "type": "function"
    },
    {
      "constant": false,
      "inputs": [
        {
          "internalType": "address",
          "name": "owner",
          "type": "address"
        },
        {
          "internalType": "address",
          "name": "spender",
          "type": "address"
        },
        {
          "internalType": "uint256",
          "name": "value",
          "type": "uint256"
        },
        {
          "internalType": "uint256",
          "name": "deadline",
          "type": "uint256"
        },
        {
          "internalType": "uint8",
          "name": "v",
          "type": "uint8"
        },
        {
          "internalType": "bytes32",
          "name": "r",
          "type": "bytes32"
        },
        {
          "internalType": "bytes32",
          "name": "s",
          "type": "bytes32"
        }
      ],
      "name": "permit",
      "outputs": [],
      "payable": false,
      "stateMutability": "nonpayable",
      "type": "function"
    },
    {
      "constant": true,
      "inputs": [],
      "name": "rateUpdateTimestamp",
      "outputs": [
        {
          "internalType": "uint32",
          "name": "",
          "type": "uint32"
        }
      ],
      "payable": false,
      "stateMutability": "view",
      "type": "function"
    },
    {
      "constant": false,
      "inputs": [
        {
          "internalType": "address",
          "name": "redeemer",
          "type": "address"
        }
      ],
      "name": "redeem",
      "outputs": [
        {
          "internalType": "uint256",
          "name": "redeemAmount",
          "type": "uint256"
        }
      ],
      "payable": false,
      "stateMutability": "nonpayable",
      "type": "function"
    },
    {
      "constant": true,
      "inputs": [],
      "name": "reserveFactor",
      "outputs": [
        {
          "internalType": "uint256",
          "name": "",
          "type": "uint256"
        }
      ],
      "payable": false,
      "stateMutability": "view",
      "type": "function"
    },
    {
      "constant": false,
      "inputs": [
        {
          "internalType": "address",
          "name": "to",
          "type": "address"
        }
      ],
      "name": "skim",
      "outputs": [],
      "payable": false,
      "stateMutability": "nonpayable",
      "type": "function"
    },
    {
      "constant": true,
      "inputs": [],
      "name": "symbol",
      "outputs": [
        {
          "internalType": "string",
          "name": "",
          "type": "string"
        }
      ],
      "payable": false,
      "stateMutability": "view",
      "type": "function"
    },
    {
      "constant": true,
      "inputs": [],
      "name": "totalBalance",
      "outputs": [
        {
          "internalType": "uint256",
          "name": "",
          "type": "uint256"
        }
      ],
      "payable": false,
      "stateMutability": "view",
      "type": "function"
    },
    {
      "constant": true,
      "inputs": [],
      "name": "totalBorrows",
      "outputs": [
        {
          "internalType": "uint112",
          "name": "",
          "type": "uint112"
        }
      ],
      "payable": false,
      "stateMutability": "view",
      "type": "function"
    },
    {
      "constant": true,
      "inputs": [],
      "name": "totalSupply",
      "outputs": [
        {
          "internalType": "uint256",
          "name": "",
          "type": "uint256"
        }
      ],
      "payable": false,
      "stateMutability": "view",
      "type": "function"
    },
    {
      "constant": false,
      "inputs": [
        {
          "internalType": "address",
          "name": "to",
          "type": "address"
        },
        {
          "internalType": "uint256",
          "name": "value",
          "type": "uint256"
        }
      ],
      "name": "transfer",
      "outputs": [
        {
          "internalType": "bool",
          "name": "",
          "type": "bool"
        }
      ],
      "payable": false,
      "stateMutability": "nonpayable",
      "type": "function"
    },
    {
      "constant": false,
      "inputs": [
        {
          "internalType": "address",
          "name": "from",
          "type": "address"
        },
        {
          "internalType": "address",
          "name": "to",
          "type": "address"
        },
        {
          "internalType": "uint256",
          "name": "value",
          "type": "uint256"
        }
      ],
      "name": "transferFrom",
      "outputs": [
        {
          "internalType": "bool",
          "name": "",
          "type": "bool"
        }
      ],
      "payable": false,
      "stateMutability": "nonpayable",
      "type": "function"
    },
    {
      "constant": true,
      "inputs": [],
      "name": "underlying",
      "outputs": [
        {
          "internalType": "address",
          "name": "",
          "type": "address"
        }
      ],
      "payable": false,
      "stateMutability": "view",
      "type": "function"
    },
    {
      "constant": false,
      "inputs": [],
      "name": "exchangeRate",
      "outputs": [
        {
          "internalType": "uint256",
          "name": "",
          "type": "uint256"
        }
      ],
      "payable": false,
      "stateMutability": "nonpayable",
      "type": "function"
    },
    {
      "constant": false,
      "inputs": [],
      "name": "sync",
      "outputs": [],
      "payable": false,
      "stateMutability": "nonpayable",
      "type": "function"
    },
    {
      "constant": true,
      "inputs": [
        {
          "internalType": "address",
          "name": "borrower",
          "type": "address"
        }
      ],
      "name": "borrowBalance",
      "outputs": [
        {
          "internalType": "uint256",
          "name": "",
          "type": "uint256"
        }
      ],
      "payable": false,
      "stateMutability": "view",
      "type": "function"
    },
    {
      "constant": false,
      "inputs": [
        {
          "internalType": "address",
          "name": "borrower",
          "type": "address"
        },
        {
          "internalType": "address",
          "name": "receiver",
          "type": "address"
        },
        {
          "internalType": "uint256",
          "name": "borrowAmount",
          "type": "uint256"
        },
        {
          "internalType": "bytes",
          "name": "data",
          "type": "bytes"
        }
      ],
      "name": "borrow",
      "outputs": [],
      "payable": false,
      "stateMutability": "nonpayable",
      "type": "function"
    },
    {
      "constant": false,
      "inputs": [
        {
          "internalType": "address",
          "name": "borrower",
          "type": "address"
        },
        {
          "internalType": "address",
          "name": "liquidator",
          "type": "address"
        }
      ],
      "name": "liquidate",
      "outputs": [
        {
          "internalType": "uint256",
          "name": "seizeTokens",
          "type": "uint256"
        }
      ],
      "payable": false,
      "stateMutability": "nonpayable",
      "type": "function"
    },
    {
      "constant": false,
      "inputs": [
        {
          "internalType": "address",
          "name": "borrower",
          "type": "address"
        }
      ],
      "name": "trackBorrow",
      "outputs": [],
      "payable": false,
      "stateMutability": "nonpayable",
      "type": "function"
    }
  ],
  "bytecode": "0x60806040526012600260006101000a81548160ff021916908360ff1602179055506001600b60006101000a81548160ff021916908315150217905550670de0b6b3a7640000600e60006101000a8154816dffffffffffffffffffffffffffff02191690836dffffffffffffffffffffffffffff16021790555064010000000042816200008757fe5b06600e601c6101000a81548163ffffffff021916908363ffffffff160217905550635e80a6c0601060066101000a81548165ffffffffffff021916908365ffffffffffff1602179055506401000000004281620000e057fe5b066010600c6101000a81548163ffffffff021916908363ffffffff16021790555067016345785d8a00006011556709b6e64a8ec600006012556486bd6db0206013553480156200012f57600080fd5b506158a480620001406000396000f3fe608060405234801561001057600080fd5b50600436106103995760003560e01c806370a08231116101e9578063b7f1118a1161010f578063c914b437116100ad578063e07660001161007c578063e07660001461126d578063e12b63061461128b578063fca7820b146112b5578063fff6cae9146112e357610399565b8063c914b437146110e4578063d505accf14611112578063d8dfeb45146111ab578063dd62ed3e146111f557610399565b8063bc25cf77116100e9578063bc25cf771461101a578063be340e321461105e578063c45a01551461107c578063c72f3fbb146110c657610399565b8063b7f1118a14610f8e578063b95b92a314610fd2578063ba9a7a5614610ffc57610399565b806395a2251f11610187578063a6afed9511610156578063a6afed9514610ec2578063a9059cbb14610ecc578063aa5af0fd14610f32578063ad7a672f14610f7057610399565b806395a2251f14610d3057806395d89b4114610d885780639e79b55c14610e0b578063a071571914610ea457610399565b806386b9d81f116101c357806386b9d81f14610bf657806391b4274514610c6e578063926d845b14610c9c5780639292b03214610d0257610399565b806370a0823114610b1c578063796b89b914610b745780637ecebe0014610b9e57610399565b806335542822116102ce5780634d73e9ba1161026c5780636a030c111161023b5780636a030c11146108f45780636a62784214610a025780636bd76d2414610a5a5780636f307dc314610ad257610399565b80634d73e9ba14610816578063559572201461086e5780635b2b9d1a146108b857806368544065146108d657610399565b80634322b714116102a85780634322b71414610792578063452ae95f146107b057806347bd3718146107ce5780634a5d316c1461080c57610399565b806335542822146107125780633644e515146107565780633ba0b9a91461077457610399565b80632374e8a91161033b57806327549a0b1161031557806327549a0b146106845780632d5231d3146106b257806330adf81f146106d0578063313ce567146106ee57610399565b80632374e8a9146105c257806323b872dd146105e0578063253c24f31461066657610399565b8063095ea7b311610377578063095ea7b31461045d57806318160ddd146104c35780631aebf12f146104e15780631e7dcc0d146104ff57610399565b806301f8c1c81461039e57806306fdde03146103bc578063075f4e7f1461043f575b600080fd5b6103a66112ed565b6040518082815260200191505060405180910390f35b6103c4611314565b6040518080602001828103825283818151815260200191508051906020019080838360005b838110156104045780820151818401526020810190506103e9565b50505050905090810190601f1680156104315780820380516001836020036101000a031916815260200191505b509250505060405180910390f35b6104476113b2565b6040518082815260200191505060405180910390f35b6104a96004803603604081101561047357600080fd5b81019080803573ffffffffffffffffffffffffffffffffffffffff169060200190929190803590602001909291905050506113bb565b604051808215151515815260200191505060405180910390f35b6104cb6113d2565b6040518082815260200191505060405180910390f35b6104e96113d8565b6040518082815260200191505060405180910390f35b6105c06004803603608081101561051557600080fd5b81019080803573ffffffffffffffffffffffffffffffffffffffff169060200190929190803573ffffffffffffffffffffffffffffffffffffffff169060200190929190803590602001909291908035906020019064010000000081111561057c57600080fd5b82018360208201111561058e57600080fd5b803590602001918460018302840111640100000000831117156105b057600080fd5b90919293919293905050506113de565b005b6105ca611a00565b6040518082815260200191505060405180910390f35b61064c600480360360608110156105f657600080fd5b81019080803573ffffffffffffffffffffffffffffffffffffffff169060200190929190803573ffffffffffffffffffffffffffffffffffffffff16906020019092919080359060200190929190505050611a0c565b604051808215151515815260200191505060405180910390f35b61066e611c0e565b6040518082815260200191505060405180910390f35b6106b06004803603602081101561069a57600080fd5b8101908080359060200190929190505050611c18565b005b6106ba611d27565b6040518082815260200191505060405180910390f35b6106d8611d2d565b6040518082815260200191505060405180910390f35b6106f6611d54565b604051808260ff1660ff16815260200191505060405180910390f35b6107546004803603602081101561072857600080fd5b81019080803573ffffffffffffffffffffffffffffffffffffffff169060200190929190505050611d67565b005b61075e611ece565b6040518082815260200191505060405180910390f35b61077c611ed4565b6040518082815260200191505060405180910390f35b61079a611f93565b6040518082815260200191505060405180910390f35b6107b8611f99565b6040518082815260200191505060405180910390f35b6107d6611fa2565b60405180826dffffffffffffffffffffffffffff166dffffffffffffffffffffffffffff16815260200191505060405180910390f35b610814611fc1565b005b6108586004803603602081101561082c57600080fd5b81019080803573ffffffffffffffffffffffffffffffffffffffff1690602001909291905050506120c8565b6040518082815260200191505060405180910390f35b61087661224f565b604051808273ffffffffffffffffffffffffffffffffffffffff1673ffffffffffffffffffffffffffffffffffffffff16815260200191505060405180910390f35b6108c0612275565b6040518082815260200191505060405180910390f35b6108de61227a565b6040518082815260200191505060405180910390f35b610a006004803603608081101561090a57600080fd5b810190808035906020019064010000000081111561092757600080fd5b82018360208201111561093957600080fd5b8035906020019184600183028401116401000000008311171561095b57600080fd5b90919293919293908035906020019064010000000081111561097c57600080fd5b82018360208201111561098e57600080fd5b803590602001918460018302840111640100000000831117156109b057600080fd5b9091929391929390803573ffffffffffffffffffffffffffffffffffffffff169060200190929190803573ffffffffffffffffffffffffffffffffffffffff169060200190929190505050612286565b005b610a4460048036036020811015610a1857600080fd5b81019080803573ffffffffffffffffffffffffffffffffffffffff169060200190929190505050612474565b6040518082815260200191505060405180910390f35b610abc60048036036040811015610a7057600080fd5b81019080803573ffffffffffffffffffffffffffffffffffffffff169060200190929190803573ffffffffffffffffffffffffffffffffffffffff169060200190929190505050612787565b6040518082815260200191505060405180910390f35b610ada6127ac565b604051808273ffffffffffffffffffffffffffffffffffffffff1673ffffffffffffffffffffffffffffffffffffffff16815260200191505060405180910390f35b610b5e60048036036020811015610b3257600080fd5b81019080803573ffffffffffffffffffffffffffffffffffffffff1690602001909291905050506127d2565b6040518082815260200191505060405180910390f35b610b7c6127ea565b604051808263ffffffff1663ffffffff16815260200191505060405180910390f35b610be060048036036020811015610bb457600080fd5b81019080803573ffffffffffffffffffffffffffffffffffffffff169060200190929190505050612800565b6040518082815260200191505060405180910390f35b610c5860048036036040811015610c0c57600080fd5b81019080803573ffffffffffffffffffffffffffffffffffffffff169060200190929190803573ffffffffffffffffffffffffffffffffffffffff169060200190929190505050612818565b6040518082815260200191505060405180910390f35b610c76612bc8565b604051808265ffffffffffff1665ffffffffffff16815260200191505060405180910390f35b610ce860048036036040811015610cb257600080fd5b81019080803573ffffffffffffffffffffffffffffffffffffffff16906020019092919080359060200190929190505050612be0565b604051808215151515815260200191505060405180910390f35b610d2e60048036036020811015610d1857600080fd5b8101908080359060200190929190505050612bf7565b005b610d7260048036036020811015610d4657600080fd5b81019080803573ffffffffffffffffffffffffffffffffffffffff169060200190929190505050612d0b565b6040518082815260200191505060405180910390f35b610d90612fbc565b6040518080602001828103825283818151815260200191508051906020019080838360005b83811015610dd0578082015181840152602081019050610db5565b50505050905090810190601f168015610dfd5780820380516001836020036101000a031916815260200191505b509250505060405180910390f35b610ea2600480360360e0811015610e2157600080fd5b81019080803573ffffffffffffffffffffffffffffffffffffffff169060200190929190803573ffffffffffffffffffffffffffffffffffffffff1690602001909291908035906020019092919080359060200190929190803560ff169060200190929190803590602001909291908035906020019092919050505061305a565b005b610eac6130a1565b6040518082815260200191505060405180910390f35b610eca6130ac565b005b610f1860048036036040811015610ee257600080fd5b81019080803573ffffffffffffffffffffffffffffffffffffffff169060200190929190803590602001909291905050506132ff565b604051808215151515815260200191505060405180910390f35b610f3a613316565b60405180826dffffffffffffffffffffffffffff166dffffffffffffffffffffffffffff16815260200191505060405180910390f35b610f78613336565b6040518082815260200191505060405180910390f35b610fd060048036036020811015610fa457600080fd5b81019080803573ffffffffffffffffffffffffffffffffffffffff16906020019092919050505061333c565b005b610fda61337e565b604051808263ffffffff1663ffffffff16815260200191505060405180910390f35b611004613394565b6040518082815260200191505060405180910390f35b61105c6004803603602081101561103057600080fd5b81019080803573ffffffffffffffffffffffffffffffffffffffff16906020019092919050505061339a565b005b61106661354c565b6040518082815260200191505060405180910390f35b611084613552565b604051808273ffffffffffffffffffffffffffffffffffffffff1673ffffffffffffffffffffffffffffffffffffffff16815260200191505060405180910390f35b6110ce613578565b6040518082815260200191505060405180910390f35b6110ec613584565b604051808265ffffffffffff1665ffffffffffff16815260200191505060405180910390f35b6111a9600480360360e081101561112857600080fd5b81019080803573ffffffffffffffffffffffffffffffffffffffff169060200190929190803573ffffffffffffffffffffffffffffffffffffffff1690602001909291908035906020019092919080359060200190929190803560ff169060200190929190803590602001909291908035906020019092919050505061359c565b005b6111b36135e3565b604051808273ffffffffffffffffffffffffffffffffffffffff1673ffffffffffffffffffffffffffffffffffffffff16815260200191505060405180910390f35b6112576004803603604081101561120b57600080fd5b81019080803573ffffffffffffffffffffffffffffffffffffffff169060200190929190803573ffffffffffffffffffffffffffffffffffffffff169060200190929190505050613609565b6040518082815260200191505060405180910390f35b61127561362e565b6040518082815260200191505060405180910390f35b611293613636565b604051808263ffffffff1663ffffffff16815260200191505060405180910390f35b6112e1600480360360208110156112cb57600080fd5b810190808035906020019092919050505061364c565b005b6112eb613759565b005b7ff6d86ed606f871fa1a557ac0ba607adce07767acf53f492fb215a1a4db4aea6f60001b81565b60008054600181600116156101000203166002900480601f0160208091040260200160405190810160405280929190818152602001828054600181600116156101000203166002900480156113aa5780601f1061137f576101008083540402835291602001916113aa565b820191906000526020600020905b81548152906001019060200180831161138d57829003601f168201915b505050505081565b640d7957c4d081565b60006113c8338484613823565b6001905092915050565b60035481565b60125481565b600b60009054906101000a900460ff16611460576040517f08c379a00000000000000000000000000000000000000000000000000000000081526004018080602001828103825260138152602001807f496d7065726d61783a205245454e54455245440000000000000000000000000081525060200191505060405180910390fd5b6000600b60006101000a81548160ff0219169083151502179055506114836130ac565b6000600a54905080841115611500576040517f08c379a000000000000000000000000000000000000000000000000000000000815260040180806020018281038252601b8152602001807f496d7065726d61783a20494e53554646494349454e545f43415348000000000081525060200191505060405180910390fd5b61150b86338661390e565b600084111561151f5761151e8585613af0565b5b6000838390501115611633578473ffffffffffffffffffffffffffffffffffffffff1663876d9d9e33888787876040518663ffffffff1660e01b8152600401808673ffffffffffffffffffffffffffffffffffffffff1673ffffffffffffffffffffffffffffffffffffffff1681526020018573ffffffffffffffffffffffffffffffffffffffff1673ffffffffffffffffffffffffffffffffffffffff168152602001848152602001806020018281038252848482818152602001925080828437600081840152601f19601f8201169050808301925050509650505050505050600060405180830381600087803b15801561161a57600080fd5b505af115801561162e573d6000803e3d6000fd5b505050505b6000600860009054906101000a900473ffffffffffffffffffffffffffffffffffffffff1673ffffffffffffffffffffffffffffffffffffffff166370a08231306040518263ffffffff1660e01b8152600401808273ffffffffffffffffffffffffffffffffffffffff1673ffffffffffffffffffffffffffffffffffffffff16815260200191505060206040518083038186803b1580156116d457600080fd5b505afa1580156116e8573d6000803e3d6000fd5b505050506040513d60208110156116fe57600080fd5b810190808051906020019092919050505090506000611747670de0b6b3a764000061173966038d7ea4c6800089613d5e90919063ffffffff16565b613de490919063ffffffff16565b9050600061175e8288613e2e90919063ffffffff16565b90506000611787856117798a87613e2e90919063ffffffff16565b613eb690919063ffffffff16565b905060008060006117998d8686613f00565b9250925092508385111561193257600b60019054906101000a900473ffffffffffffffffffffffffffffffffffffffff1673ffffffffffffffffffffffffffffffffffffffff16639aac2c538e30856040518463ffffffff1660e01b8152600401808473ffffffffffffffffffffffffffffffffffffffff1673ffffffffffffffffffffffffffffffffffffffff1681526020018373ffffffffffffffffffffffffffffffffffffffff1673ffffffffffffffffffffffffffffffffffffffff1681526020018281526020019350505050602060405180830381600087803b15801561188457600080fd5b505af1158015611898573d6000803e3d6000fd5b505050506040513d60208110156118ae57600080fd5b8101908080519060200190929190505050611931576040517f08c379a00000000000000000000000000000000000000000000000000000000081526004018080602001828103825260208152602001807f496d7065726d61783a20494e53554646494349454e545f4c495155494449545981525060200191505060405180910390fd5b5b8b73ffffffffffffffffffffffffffffffffffffffff168d73ffffffffffffffffffffffffffffffffffffffff163373ffffffffffffffffffffffffffffffffffffffff167f33f3048bd4e6af45e53afb722adfd57dbde82da7e93e44db921fb4b8c6a70c4b8e88888888604051808681526020018581526020018481526020018381526020018281526020019550505050505060405180910390a450505050505050506119de6142af565b6001600b60006101000a81548160ff0219169083151502179055505050505050565b670853a0d2313c000081565b60007fffffffffffffffffffffffffffffffffffffffffffffffffffffffffffffffff600560008673ffffffffffffffffffffffffffffffffffffffff1673ffffffffffffffffffffffffffffffffffffffff16815260200190815260200160002060003373ffffffffffffffffffffffffffffffffffffffff1673ffffffffffffffffffffffffffffffffffffffff1681526020019081526020016000205414611bf857611b77826040518060400160405280601e81526020017f496d7065726d61783a205452414e534645525f4e4f545f414c4c4f5745440000815250600560008873ffffffffffffffffffffffffffffffffffffffff1673ffffffffffffffffffffffffffffffffffffffff16815260200190815260200160002060003373ffffffffffffffffffffffffffffffffffffffff1673ffffffffffffffffffffffffffffffffffffffff168152602001908152602001600020546142c19092919063ffffffff16565b600560008673ffffffffffffffffffffffffffffffffffffffff1673ffffffffffffffffffffffffffffffffffffffff16815260200190815260200160002060003373ffffffffffffffffffffffffffffffffffffffff1673ffffffffffffffffffffffffffffffffffffffff168152602001908152602001600020819055505b611c03848484614381565b600190509392505050565b6505436648e14081565b600b60009054906101000a900460ff16611c9a576040517f08c379a00000000000000000000000000000000000000000000000000000000081526004018080602001828103825260138152602001807f496d7065726d61783a205245454e54455245440000000000000000000000000081525060200191505060405180910390fd5b6000600b60006101000a81548160ff021916908315150217905550611ccb81640d7957c4d06505436648e14061454c565b806013819055507f1396dfcdb64fb7eb77fb84966f27b81afe14aa70b6e966c68d74af3302a9fe90816040518082815260200191505060405180910390a16001600b60006101000a81548160ff02191690831515021790555050565b60135481565b7f6e71edae12b1b97f4d1f60370fef10105fa2faae0126114a169c64845d6126c960001b81565b600260009054906101000a900460ff1681565b600b60009054906101000a900460ff16611de9576040517f08c379a00000000000000000000000000000000000000000000000000000000081526004018080602001828103825260138152602001807f496d7065726d61783a205245454e54455245440000000000000000000000000081525060200191505060405180910390fd5b6000600b60006101000a81548160ff021916908315150217905550611e0c614645565b80601460006101000a81548173ffffffffffffffffffffffffffffffffffffffff021916908373ffffffffffffffffffffffffffffffffffffffff1602179055507f468b6598e7e810c65c9858b5f23a2d5b8692fb753b78a032232de4c6ed3cabbf81604051808273ffffffffffffffffffffffffffffffffffffffff1673ffffffffffffffffffffffffffffffffffffffff16815260200191505060405180910390a16001600b60006101000a81548160ff02191690831515021790555050565b60065481565b6000611ede6130ac565b600060035490506000611f27600e809054906101000a90046dffffffffffffffffffffffffffff166dffffffffffffffffffffffffffff16600a54613e2e90919063ffffffff16565b90506000821480611f385750600081145b15611f4f57670de0b6b3a764000092505050611f90565b6000611f7e83611f70670de0b6b3a764000085613d5e90919063ffffffff16565b613de490919063ffffffff16565b9050611f8a818461478a565b93505050505b90565b60115481565b6407620d070081565b600e809054906101000a90046dffffffffffffffffffffffffffff1681565b600073ffffffffffffffffffffffffffffffffffffffff16600960009054906101000a900473ffffffffffffffffffffffffffffffffffffffff1673ffffffffffffffffffffffffffffffffffffffff1614612085576040517f08c379a000000000000000000000000000000000000000000000000000000000815260040180806020018281038252601d8152602001807f496d7065726d61783a20464143544f52595f414c52454144595f53455400000081525060200191505060405180910390fd5b33600960006101000a81548173ffffffffffffffffffffffffffffffffffffffff021916908373ffffffffffffffffffffffffffffffffffffffff160217905550565b60006120d261571d565b600d60008473ffffffffffffffffffffffffffffffffffffffff1673ffffffffffffffffffffffffffffffffffffffff1681526020019081526020016000206040518060400160405290816000820160009054906101000a90046dffffffffffffffffffffffffffff166dffffffffffffffffffffffffffff166dffffffffffffffffffffffffffff16815260200160008201600e9054906101000a90046dffffffffffffffffffffffffffff166dffffffffffffffffffffffffffff166dffffffffffffffffffffffffffff16815250509050600081602001516dffffffffffffffffffffffffffff1614156121cd57600091505061224a565b61224681602001516dffffffffffffffffffffffffffff16612238600e60009054906101000a90046dffffffffffffffffffffffffffff166dffffffffffffffffffffffffffff1684600001516dffffffffffffffffffffffffffff16613d5e90919063ffffffff16565b613de490919063ffffffff16565b9150505b919050565b601460009054906101000a900473ffffffffffffffffffffffffffffffffffffffff1681565b600581565b670c7d713b49da000081565b600960009054906101000a900473ffffffffffffffffffffffffffffffffffffffff1673ffffffffffffffffffffffffffffffffffffffff163373ffffffffffffffffffffffffffffffffffffffff1614612349576040517f08c379a00000000000000000000000000000000000000000000000000000000081526004018080602001828103825260168152602001807f496d7065726d61783a20554e415554484f52495a45440000000000000000000081525060200191505060405180910390fd5b6123db86868080601f016020809104026020016040519081016040528093929190818152602001838380828437600081840152601f19601f8201169050808301925050505050505085858080601f016020809104026020016040519081016040528093929190818152602001838380828437600081840152601f19601f8201169050808301925050505050505061490f565b81600860006101000a81548173ffffffffffffffffffffffffffffffffffffffff021916908373ffffffffffffffffffffffffffffffffffffffff16021790555080600b60016101000a81548173ffffffffffffffffffffffffffffffffffffffff021916908373ffffffffffffffffffffffffffffffffffffffff160217905550670de0b6b3a7640000600f81905550505050505050565b6000600b60009054906101000a900460ff166124f8576040517f08c379a00000000000000000000000000000000000000000000000000000000081526004018080602001828103825260138152602001807f496d7065726d61783a205245454e54455245440000000000000000000000000081525060200191505060405180910390fd5b6000600b60006101000a81548160ff0219169083151502179055506000600860009054906101000a900473ffffffffffffffffffffffffffffffffffffffff1673ffffffffffffffffffffffffffffffffffffffff166370a08231306040518263ffffffff1660e01b8152600401808273ffffffffffffffffffffffffffffffffffffffff1673ffffffffffffffffffffffffffffffffffffffff16815260200191505060206040518083038186803b1580156125b457600080fd5b505afa1580156125c8573d6000803e3d6000fd5b505050506040513d60208110156125de57600080fd5b810190808051906020019092919050505090506000612608600a5483613eb690919063ffffffff16565b905061263e612615611ed4565b612630670de0b6b3a764000084613d5e90919063ffffffff16565b613de490919063ffffffff16565b925060006003541415612670576126606103e884613eb690919063ffffffff16565b925061266f60006103e8614a1b565b5b600083116126e6576040517f08c379a000000000000000000000000000000000000000000000000000000000815260040180806020018281038252601a8152602001807f496d7065726d61783a204d494e545f414d4f554e545f5a45524f00000000000081525060200191505060405180910390fd5b6126f08484614a1b565b8373ffffffffffffffffffffffffffffffffffffffff163373ffffffffffffffffffffffffffffffffffffffff167f2f00e3cdd69a77be7ed215ec7b2a36784dd158f921fca79ac29deffa353fe6ee8386604051808381526020018281526020019250505060405180910390a350506127676142af565b6001600b60006101000a81548160ff021916908315150217905550919050565b600c602052816000526040600020602052806000526040600020600091509150505481565b600860009054906101000a900473ffffffffffffffffffffffffffffffffffffffff1681565b60046020528060005260406000206000915090505481565b600064010000000042816127fa57fe5b06905090565b60076020528060005260406000206000915090505481565b6000600b60009054906101000a900460ff1661289c576040517f08c379a00000000000000000000000000000000000000000000000000000000081526004018080602001828103825260138152602001807f496d7065726d61783a205245454e54455245440000000000000000000000000081525060200191505060405180910390fd5b6000600b60006101000a81548160ff0219169083151502179055506128bf6130ac565b6000600860009054906101000a900473ffffffffffffffffffffffffffffffffffffffff1673ffffffffffffffffffffffffffffffffffffffff166370a08231306040518263ffffffff1660e01b8152600401808273ffffffffffffffffffffffffffffffffffffffff1673ffffffffffffffffffffffffffffffffffffffff16815260200191505060206040518083038186803b15801561296057600080fd5b505afa158015612974573d6000803e3d6000fd5b505050506040513d602081101561298a57600080fd5b8101908080519060200190929190505050905060006129b4600a5483613eb690919063ffffffff16565b905060006129ca6129c4876120c8565b83614b35565b9050600b60019054906101000a900473ffffffffffffffffffffffffffffffffffffffff1673ffffffffffffffffffffffffffffffffffffffff1663b2a02ff18688846040518463ffffffff1660e01b8152600401808473ffffffffffffffffffffffffffffffffffffffff1673ffffffffffffffffffffffffffffffffffffffff1681526020018373ffffffffffffffffffffffffffffffffffffffff1673ffffffffffffffffffffffffffffffffffffffff1681526020018281526020019350505050602060405180830381600087803b158015612aa957600080fd5b505af1158015612abd573d6000803e3d6000fd5b505050506040513d6020811015612ad357600080fd5b810190808051906020019092919050505093506000806000612af789600087613f00565b9250925092508773ffffffffffffffffffffffffffffffffffffffff168973ffffffffffffffffffffffffffffffffffffffff163373ffffffffffffffffffffffffffffffffffffffff167fb0dbe18c6ffdf0da655dd690e77211d379205c497be44c64447c3f5f021b51678a89888888604051808681526020018581526020018481526020018381526020018281526020019550505050505060405180910390a4505050505050612ba76142af565b6001600b60006101000a81548160ff02191690831515021790555092915050565b601060069054906101000a900465ffffffffffff1681565b6000612bed338484614b4e565b6001905092915050565b600b60009054906101000a900460ff16612c79576040517f08c379a00000000000000000000000000000000000000000000000000000000081526004018080602001828103825260138152602001807f496d7065726d61783a205245454e54455245440000000000000000000000000081525060200191505060405180910390fd5b6000600b60006101000a81548160ff021916908315150217905550612caf81670853a0d2313c0000670c7d713b49da000061454c565b806012819055507f7a550b1995ff63260fb313f12024e66e73bad425372e5af6b1e04cb3799ef38c816040518082815260200191505060405180910390a16001600b60006101000a81548160ff02191690831515021790555050565b6000600b60009054906101000a900460ff16612d8f576040517f08c379a00000000000000000000000000000000000000000000000000000000081526004018080602001828103825260138152602001807f496d7065726d61783a205245454e54455245440000000000000000000000000081525060200191505060405180910390fd5b6000600b60006101000a81548160ff0219169083151502179055506000600460003073ffffffffffffffffffffffffffffffffffffffff1673ffffffffffffffffffffffffffffffffffffffff168152602001908152602001600020549050612e22670de0b6b3a7640000612e14612e05611ed4565b84613d5e90919063ffffffff16565b613de490919063ffffffff16565b915060008211612e9a576040517f08c379a000000000000000000000000000000000000000000000000000000000815260040180806020018281038252601c8152602001807f496d7065726d61783a2052454445454d5f414d4f554e545f5a45524f0000000081525060200191505060405180910390fd5b600a54821115612f12576040517f08c379a000000000000000000000000000000000000000000000000000000000815260040180806020018281038252601b8152602001807f496d7065726d61783a20494e53554646494349454e545f43415348000000000081525060200191505060405180910390fd5b612f1c8383613af0565b612f263082614c39565b8273ffffffffffffffffffffffffffffffffffffffff163373ffffffffffffffffffffffffffffffffffffffff167f3f693fff038bb8a046aa76d9516190ac7444f7d69cf952c4cbdc086fdef2d6fc8484604051808381526020018281526020019250505060405180910390a350612f9c6142af565b6001600b60006101000a81548160ff021916908315150217905550919050565b60018054600181600116156101000203166002900480601f0160208091040260200160405190810160405280929190818152602001828054600181600116156101000203166002900480156130525780601f1061302757610100808354040283529160200191613052565b820191906000526020600020905b81548152906001019060200180831161303557829003601f168201915b505050505081565b61308d878787878787877ff6d86ed606f871fa1a557ac0ba607adce07767acf53f492fb215a1a4db4aea6f60001b614d53565b613098878787614b4e565b50505050505050565b66038d7ea4c6800081565b6000600e60009054906101000a90046dffffffffffffffffffffffffffff166dffffffffffffffffffffffffffff1690506000600e809054906101000a90046dffffffffffffffffffffffffffff166dffffffffffffffffffffffffffff1690506000600e601c9054906101000a900463ffffffff169050600061312e6127ea565b90508063ffffffff168263ffffffff16141561314d57505050506132fd565b6000828203905081600e601c6101000a81548163ffffffff021916908363ffffffff16021790555060006131ac8263ffffffff16601060009054906101000a900465ffffffffffff1665ffffffffffff16613d5e90919063ffffffff16565b905060006131dd670de0b6b3a76400006131cf8885613d5e90919063ffffffff16565b613de490919063ffffffff16565b90506131f28187613e2e90919063ffffffff16565b9550613233613224670de0b6b3a76400006132168a86613d5e90919063ffffffff16565b613de490919063ffffffff16565b88613e2e90919063ffffffff16565b965061323e8761506a565b600e60006101000a8154816dffffffffffffffffffffffffffff02191690836dffffffffffffffffffffffffffff16021790555061327b8661506a565b600e806101000a8154816dffffffffffffffffffffffffffff02191690836dffffffffffffffffffffffffffff1602179055507f875352fb3fadeb8c0be7cbbe8ff761b308fa7033470cd0287f02f3436fd76cb981888860405180848152602001838152602001828152602001935050505060405180910390a1505050505050505b565b600061330c338484614381565b6001905092915050565b600e60009054906101000a90046dffffffffffffffffffffffffffff1681565b600a5481565b61337b81613349836120c8565b600e60009054906101000a90046dffffffffffffffffffffffffffff166dffffffffffffffffffffffffffff166150f8565b50565b600e601c9054906101000a900463ffffffff1681565b6103e881565b600b60009054906101000a900460ff1661341c576040517f08c379a00000000000000000000000000000000000000000000000000000000081526004018080602001828103825260138152602001807f496d7065726d61783a205245454e54455245440000000000000000000000000081525060200191505060405180910390fd5b6000600b60006101000a81548160ff02191690831515021790555061352e81613529600a54600860009054906101000a900473ffffffffffffffffffffffffffffffffffffffff1673ffffffffffffffffffffffffffffffffffffffff166370a08231306040518263ffffffff1660e01b8152600401808273ffffffffffffffffffffffffffffffffffffffff1673ffffffffffffffffffffffffffffffffffffffff16815260200191505060206040518083038186803b1580156134e057600080fd5b505afa1580156134f4573d6000803e3d6000fd5b505050506040513d602081101561350a57600080fd5b8101908080519060200190929190505050613eb690919063ffffffff16565b613af0565b6001600b60006101000a81548160ff02191690831515021790555050565b600f5481565b600960009054906101000a900473ffffffffffffffffffffffffffffffffffffffff1681565b6702c68af0bb14000081565b601060009054906101000a900465ffffffffffff1681565b6135cf878787878787877f6e71edae12b1b97f4d1f60370fef10105fa2faae0126114a169c64845d6126c960001b614d53565b6135da878787613823565b50505050505050565b600b60019054906101000a900473ffffffffffffffffffffffffffffffffffffffff1681565b6005602052816000526040600020602052806000526040600020600091509150505481565b6312e687c081565b6010600c9054906101000a900463ffffffff1681565b600b60009054906101000a900460ff166136ce576040517f08c379a00000000000000000000000000000000000000000000000000000000081526004018080602001828103825260138152602001807f496d7065726d61783a205245454e54455245440000000000000000000000000081525060200191505060405180910390fd5b6000600b60006101000a81548160ff0219169083151502179055506136fd8160006702c68af0bb14000061454c565b806011819055507f9d9cd27245b4e6b06dcf523ac57b6e851b934e199eee376313f906e94bfbfd55816040518082815260200191505060405180910390a16001600b60006101000a81548160ff02191690831515021790555050565b600b60009054906101000a900460ff166137db576040517f08c379a00000000000000000000000000000000000000000000000000000000081526004018080602001828103825260138152602001807f496d7065726d61783a205245454e54455245440000000000000000000000000081525060200191505060405180910390fd5b6000600b60006101000a81548160ff0219169083151502179055506137fe6130ac565b6138066142af565b6001600b60006101000a81548160ff021916908315150217905550565b80600560008573ffffffffffffffffffffffffffffffffffffffff1673ffffffffffffffffffffffffffffffffffffffff16815260200190815260200160002060008473ffffffffffffffffffffffffffffffffffffffff1673ffffffffffffffffffffffffffffffffffffffff168152602001908152602001600020819055508173ffffffffffffffffffffffffffffffffffffffff168373ffffffffffffffffffffffffffffffffffffffff167f8c5be1e5ebec7d5bd14f71427d1e84f3dd0314c0f7b2291e5b200ac8c7c3b925836040518082815260200191505060405180910390a3505050565b6000600c60008573ffffffffffffffffffffffffffffffffffffffff1673ffffffffffffffffffffffffffffffffffffffff16815260200190815260200160002060008473ffffffffffffffffffffffffffffffffffffffff1673ffffffffffffffffffffffffffffffffffffffff1681526020019081526020016000205490508373ffffffffffffffffffffffffffffffffffffffff168373ffffffffffffffffffffffffffffffffffffffff16141580156139eb57507fffffffffffffffffffffffffffffffffffffffffffffffffffffffffffffffff8114155b15613aea5781811015613a66576040517f08c379a000000000000000000000000000000000000000000000000000000000815260040180806020018281038252601c8152602001807f496d7065726d61783a20424f52524f575f4e4f545f414c4c4f5745440000000081525060200191505060405180910390fd5b818103600c60008673ffffffffffffffffffffffffffffffffffffffff1673ffffffffffffffffffffffffffffffffffffffff16815260200190815260200160002060008573ffffffffffffffffffffffffffffffffffffffff1673ffffffffffffffffffffffffffffffffffffffff168152602001908152602001600020819055505b50505050565b60006060600860009054906101000a900473ffffffffffffffffffffffffffffffffffffffff1673ffffffffffffffffffffffffffffffffffffffff166040518060400160405280601981526020017f7472616e7366657228616464726573732c75696e743235362900000000000000815250805190602001208585604051602401808373ffffffffffffffffffffffffffffffffffffffff1673ffffffffffffffffffffffffffffffffffffffff16815260200182815260200192505050604051602081830303815290604052907bffffffffffffffffffffffffffffffffffffffffffffffffffffffff19166020820180517bffffffffffffffffffffffffffffffffffffffffffffffffffffffff83818316178352505050506040518082805190602001908083835b60208310613c3f5780518252602082019150602081019050602083039250613c1c565b6001836020036101000a0380198251168184511680821785525050505050509050019150506000604051808303816000865af19150503d8060008114613ca1576040519150601f19603f3d011682016040523d82523d6000602084013e613ca6565b606091505b5091509150818015613ce65750600081511480613ce55750808060200190516020811015613cd357600080fd5b81019080805190602001909291905050505b5b613d58576040517f08c379a00000000000000000000000000000000000000000000000000000000081526004018080602001828103825260198152602001807f496d7065726d61783a205452414e534645525f4641494c45440000000000000081525060200191505060405180910390fd5b50505050565b600080831415613d715760009050613dde565b6000828402905082848281613d8257fe5b0414613dd9576040517f08c379a000000000000000000000000000000000000000000000000000000000815260040180806020018281038252602181526020018061584f6021913960400191505060405180910390fd5b809150505b92915050565b6000613e2683836040518060400160405280601a81526020017f536166654d6174683a206469766973696f6e206279207a65726f000000000000815250615208565b905092915050565b600080828401905083811015613eac576040517f08c379a000000000000000000000000000000000000000000000000000000000815260040180806020018281038252601b8152602001807f536166654d6174683a206164646974696f6e206f766572666c6f77000000000081525060200191505060405180910390fd5b8091505092915050565b6000613ef883836040518060400160405280601f81526020017f536166654d6174683a207375627472616374696f6e20756e646572666c6f77008152506142c1565b905092915050565b6000806000613f0e866120c8565b925083851415613f54578283600e809054906101000a90046dffffffffffffffffffffffffffff16806dffffffffffffffffffffffffffff1690509250925092506142a6565b6000600e60009054906101000a90046dffffffffffffffffffffffffffff169050848611156140d5576000600d60008973ffffffffffffffffffffffffffffffffffffffff1673ffffffffffffffffffffffffffffffffffffffff168152602001908152602001600020905060008688039050613fda8187613e2e90919063ffffffff16565b9450613fe58561506a565b8260000160006101000a8154816dffffffffffffffffffffffffffff02191690836dffffffffffffffffffffffffffff1602179055508282600001600e6101000a8154816dffffffffffffffffffffffffffff02191690836dffffffffffffffffffffffffffff16021790555061409081600e809054906101000a90046dffffffffffffffffffffffffffff166dffffffffffffffffffffffffffff16613e2e90919063ffffffff16565b935061409b8461506a565b600e806101000a8154816dffffffffffffffffffffffffffff02191690836dffffffffffffffffffffffffffff1602179055505050614289565b6000600d60008973ffffffffffffffffffffffffffffffffffffffff1673ffffffffffffffffffffffffffffffffffffffff16815260200190815260200160002090506000878703905080861161412d576000614131565b8086035b945061413c8561506a565b8260000160006101000a8154816dffffffffffffffffffffffffffff02191690836dffffffffffffffffffffffffffff16021790555060008514156141b857600082600001600e6101000a8154816dffffffffffffffffffffffffffff02191690836dffffffffffffffffffffffffffff1602179055506141f0565b8282600001600e6101000a8154816dffffffffffffffffffffffffffff02191690836dffffffffffffffffffffffffffff1602179055505b60006142058688613eb690919063ffffffff16565b9050600e809054906101000a90046dffffffffffffffffffffffffffff166dffffffffffffffffffffffffffff169450808511614243576000614247565b8085035b94506142528561506a565b600e806101000a8154816dffffffffffffffffffffffffffff02191690836dffffffffffffffffffffffffffff1602179055505050505b6142a48784836dffffffffffffffffffffffffffff166150f8565b505b93509350939050565b6142b76152ce565b6142bf6153e9565b565b600083831115829061436e576040517f08c379a00000000000000000000000000000000000000000000000000000000081526004018080602001828103825283818151815260200191508051906020019080838360005b83811015614333578082015181840152602081019050614318565b50505050905090810190601f1680156143605780820380516001836020036101000a031916815260200191505b509250505060405180910390fd5b5060008385039050809150509392505050565b61440a816040518060400160405280601b81526020017f496d7065726d61783a205452414e534645525f544f4f5f484947480000000000815250600460008773ffffffffffffffffffffffffffffffffffffffff1673ffffffffffffffffffffffffffffffffffffffff168152602001908152602001600020546142c19092919063ffffffff16565b600460008573ffffffffffffffffffffffffffffffffffffffff1673ffffffffffffffffffffffffffffffffffffffff1681526020019081526020016000208190555061449f81600460008573ffffffffffffffffffffffffffffffffffffffff1673ffffffffffffffffffffffffffffffffffffffff16815260200190815260200160002054613e2e90919063ffffffff16565b600460008473ffffffffffffffffffffffffffffffffffffffff1673ffffffffffffffffffffffffffffffffffffffff168152602001908152602001600020819055508173ffffffffffffffffffffffffffffffffffffffff168373ffffffffffffffffffffffffffffffffffffffff167fddf252ad1be2c89b69c2b068fc378daa952ba7f163c4a11628f55a4df523b3ef836040518082815260200191505060405180910390a3505050565b614554614645565b818310156145ca576040517f08c379a00000000000000000000000000000000000000000000000000000000081526004018080602001828103825260198152602001807f496d7065726d61783a20494e56414c49445f53455454494e470000000000000081525060200191505060405180910390fd5b80831115614640576040517f08c379a00000000000000000000000000000000000000000000000000000000081526004018080602001828103825260198152602001807f496d7065726d61783a20494e56414c49445f53455454494e470000000000000081525060200191505060405180910390fd5b505050565b600960009054906101000a900473ffffffffffffffffffffffffffffffffffffffff1673ffffffffffffffffffffffffffffffffffffffff1663f851a4406040518163ffffffff1660e01b815260040160206040518083038186803b1580156146ad57600080fd5b505afa1580156146c1573d6000803e3d6000fd5b505050506040513d60208110156146d757600080fd5b810190808051906020019092919050505073ffffffffffffffffffffffffffffffffffffffff163373ffffffffffffffffffffffffffffffffffffffff1614614788576040517f08c379a00000000000000000000000000000000000000000000000000000000081526004018080602001828103825260168152602001807f496d7065726d61783a20554e415554484f52495a45440000000000000000000081525060200191505060405180910390fd5b565b600080600f549050808411156149045760006147ef6147e0670de0b6b3a76400006147d26011546147c4878b613eb690919063ffffffff16565b613d5e90919063ffffffff16565b613de490919063ffffffff16565b86613eb690919063ffffffff16565b9050600061482a8561481c8461480e8a8a613d5e90919063ffffffff16565b613de490919063ffffffff16565b613eb690919063ffffffff16565b9050600081141561484057859350505050614909565b6000600960009054906101000a900473ffffffffffffffffffffffffffffffffffffffff1673ffffffffffffffffffffffffffffffffffffffff1663345ef9416040518163ffffffff1660e01b815260040160206040518083038186803b1580156148aa57600080fd5b505afa1580156148be573d6000803e3d6000fd5b505050506040513d60208110156148d457600080fd5b810190808051906020019092919050505090506148f18183614a1b565b82600f8190555082945050505050614909565b839150505b92915050565b8160009080519060200190614925929190615757565b50806001908051906020019061493c929190615757565b50600046905060405180806157fd605291396052019050604051809103902083805190602001206040518060400160405280600181526020017f3100000000000000000000000000000000000000000000000000000000000000815250805190602001208330604051602001808681526020018581526020018481526020018381526020018273ffffffffffffffffffffffffffffffffffffffff1673ffffffffffffffffffffffffffffffffffffffff1681526020019550505050505060405160208183030381529060405280519060200120600681905550505050565b614a3081600354613e2e90919063ffffffff16565b600381905550614a8881600460008573ffffffffffffffffffffffffffffffffffffffff1673ffffffffffffffffffffffffffffffffffffffff16815260200190815260200160002054613e2e90919063ffffffff16565b600460008473ffffffffffffffffffffffffffffffffffffffff1673ffffffffffffffffffffffffffffffffffffffff168152602001908152602001600020819055508173ffffffffffffffffffffffffffffffffffffffff16600073ffffffffffffffffffffffffffffffffffffffff167fddf252ad1be2c89b69c2b068fc378daa952ba7f163c4a11628f55a4df523b3ef836040518082815260200191505060405180910390a35050565b6000818310614b445781614b46565b825b905092915050565b80600c60008573ffffffffffffffffffffffffffffffffffffffff1673ffffffffffffffffffffffffffffffffffffffff16815260200190815260200160002060008473ffffffffffffffffffffffffffffffffffffffff1673ffffffffffffffffffffffffffffffffffffffff168152602001908152602001600020819055508173ffffffffffffffffffffffffffffffffffffffff168373ffffffffffffffffffffffffffffffffffffffff167fc3c1215b41d54142382d54a05fb991007165ae91bcb1879bac8b290d9111aaf4836040518082815260200191505060405180910390a3505050565b614c8b81600460008573ffffffffffffffffffffffffffffffffffffffff1673ffffffffffffffffffffffffffffffffffffffff16815260200190815260200160002054613eb690919063ffffffff16565b600460008473ffffffffffffffffffffffffffffffffffffffff1673ffffffffffffffffffffffffffffffffffffffff16815260200190815260200160002081905550614ce381600354613eb690919063ffffffff16565b600381905550600073ffffffffffffffffffffffffffffffffffffffff168273ffffffffffffffffffffffffffffffffffffffff167fddf252ad1be2c89b69c2b068fc378daa952ba7f163c4a11628f55a4df523b3ef836040518082815260200191505060405180910390a35050565b42851015614dc9576040517f08c379a00000000000000000000000000000000000000000000000000000000081526004018080602001828103825260118152602001807f496d7065726d61783a204558504952454400000000000000000000000000000081525060200191505060405180910390fd5b6000600654828a8a8a600760008f73ffffffffffffffffffffffffffffffffffffffff1673ffffffffffffffffffffffffffffffffffffffff1681526020019081526020016000206000815480929190600101919050558b604051602001808781526020018673ffffffffffffffffffffffffffffffffffffffff1673ffffffffffffffffffffffffffffffffffffffff1681526020018573ffffffffffffffffffffffffffffffffffffffff1673ffffffffffffffffffffffffffffffffffffffff16815260200184815260200183815260200182815260200196505050505050506040516020818303038152906040528051906020012060405160200180807f190100000000000000000000000000000000000000000000000000000000000081525060020183815260200182815260200192505050604051602081830303815290604052805190602001209050600060018287878760405160008152602001604052604051808581526020018460ff1660ff1681526020018381526020018281526020019450505050506020604051602081039080840390855afa158015614f78573d6000803e3d6000fd5b505050602060405103519050600073ffffffffffffffffffffffffffffffffffffffff168173ffffffffffffffffffffffffffffffffffffffff1614158015614fec57508973ffffffffffffffffffffffffffffffffffffffff168173ffffffffffffffffffffffffffffffffffffffff16145b61505e576040517f08c379a000000000000000000000000000000000000000000000000000000000815260040180806020018281038252601b8152602001807f496d7065726d61783a20494e56414c49445f5349474e4154555245000000000081525060200191505060405180910390fd5b50505050505050505050565b60006e01000000000000000000000000000082106150f0576040517f08c379a00000000000000000000000000000000000000000000000000000000081526004018080602001828103825260118152602001807f496d7065726d61783a205341464531313200000000000000000000000000000081525060200191505060405180910390fd5b819050919050565b6000601460009054906101000a900473ffffffffffffffffffffffffffffffffffffffff169050600073ffffffffffffffffffffffffffffffffffffffff168173ffffffffffffffffffffffffffffffffffffffff16141561515a5750615203565b8073ffffffffffffffffffffffffffffffffffffffff166305285d7f8585856040518463ffffffff1660e01b8152600401808473ffffffffffffffffffffffffffffffffffffffff1673ffffffffffffffffffffffffffffffffffffffff1681526020018381526020018281526020019350505050600060405180830381600087803b1580156151e957600080fd5b505af11580156151fd573d6000803e3d6000fd5b50505050505b505050565b600080831182906152b4576040517f08c379a00000000000000000000000000000000000000000000000000000000081526004018080602001828103825283818151815260200191508051906020019080838360005b8381101561527957808201518184015260208101905061525e565b50505050905090810190601f1680156152a65780820380516001836020036101000a031916815260200191505b509250505060405180910390fd5b5060008385816152c057fe5b049050809150509392505050565b600860009054906101000a900473ffffffffffffffffffffffffffffffffffffffff1673ffffffffffffffffffffffffffffffffffffffff166370a08231306040518263ffffffff1660e01b8152600401808273ffffffffffffffffffffffffffffffffffffffff1673ffffffffffffffffffffffffffffffffffffffff16815260200191505060206040518083038186803b15801561536d57600080fd5b505afa158015615381573d6000803e3d6000fd5b505050506040513d602081101561539757600080fd5b8101908080519060200190929190505050600a819055507f8a0df8ef054fae2c3d2d19a7b322e864870cc9fd3cb07fb9526309c596244bf4600a546040518082815260200191505060405180910390a1565b60006012549050600060135490506000601060009054906101000a900465ffffffffffff1665ffffffffffff1690506000601060069054906101000a900465ffffffffffff1665ffffffffffff16905060006010600c9054906101000a900463ffffffff16905060008161545b6127ea565b03905060008163ffffffff1611156155e0576154756127ea565b6010600c6101000a81548163ffffffff021916908363ffffffff1602179055506000838510156154fe576000670de0b6b3a76400008363ffffffff168887670de0b6b3a76400008a8a0302816154c757fe5b040202816154d157fe5b049050670de0b6b3a764000081116154f35780670de0b6b3a7640000036154f6565b60005b915050615542565b6000670de0b6b3a76400008363ffffffff168887670de0b6b3a7640000898b03028161552657fe5b0402028161553057fe5b049050670de0b6b3a764000081019150505b670de0b6b3a76400008185028161555557fe5b0493506407620d070084111561556e576407620d070093505b6312e687c0841015615582576312e687c093505b83601060066101000a81548165ffffffffffff021916908365ffffffffffff1602179055507f713a98ffb7d769b8e33e2ee945ebb6acb7f397532688164d3ce1081f903c77bc846040518082815260200191505060405180910390a1505b600080600e809054906101000a90046dffffffffffffffffffffffffffff166dffffffffffffffffffffffffffff169050600061562882600a54613e2e90919063ffffffff16565b90506000811461564b5780670de0b6b3a764000083028161564557fe5b0461564e565b60005b9250505086811161566c57868185028161566457fe5b0494506156b8565b600087670de0b6b3a764000003670de0b6b3a7640000898403028161568d57fe5b049050670de0b6b3a764000085670de0b6b3a7640000836001600503020102816156b357fe5b049550505b84601060006101000a81548165ffffffffffff021916908365ffffffffffff1602179055507f338541dc9083f6af6715482fb419e1483c1ae9097764fd68a5dc98109bd5a788856040518082815260200191505060405180910390a150505050505050565b604051806040016040528060006dffffffffffffffffffffffffffff16815260200160006dffffffffffffffffffffffffffff1681525090565b828054600181600116156101000203166002900490600052602060002090601f016020900481019282601f1061579857805160ff19168380011785556157c6565b828001600101855582156157c6579182015b828111156157c55782518255916020019190600101906157aa565b5b5090506157d391906157d7565b5090565b6157f991905b808211156157f55760008160009055506001016157dd565b5090565b9056fe454950373132446f6d61696e28737472696e67206e616d652c737472696e672076657273696f6e2c75696e7432353620636861696e49642c6164647265737320766572696679696e67436f6e747261637429536166654d6174683a206d756c7469706c69636174696f6e206f766572666c6f77a265627a7a7231582061b95e98f600883328f4345f410e389b22f8b24fc3c01594efdc9999e6525c8b64736f6c63430005100032",
  "source": "pragma solidity =0.5.16;\r\n\r\nimport \"./PoolToken.sol\";\r\nimport \"./BAllowance.sol\";\r\nimport \"./BInterestRateModel.sol\";\r\nimport \"./BSetter.sol\";\r\nimport \"./BStorage.sol\";\r\nimport \"./interfaces/IBorrowable.sol\";\r\nimport \"./interfaces/ICollateral.sol\";\r\nimport \"./interfaces/IImpermaxCallee.sol\";\r\nimport \"./interfaces/IERC20.sol\";\r\nimport \"./interfaces/IFactory.sol\";\r\nimport \"./interfaces/IBorrowTracker.sol\";\r\nimport \"./libraries/Math.sol\";\r\n\r\ncontract Borrowable is IBorrowable, PoolToken, BStorage, BSetter, BInterestRateModel, BAllowance {\r\n\r\n\tuint public constant BORROW_FEE = 0.001e18; //0.1%\r\n\r\n\tevent Borrow(address indexed sender, address indexed borrower, address indexed receiver, uint borrowAmount, uint repayAmount, uint accountBorrowsPrior, uint accountBorrows, uint totalBorrows);\r\n\tevent Liquidate(address indexed sender, address indexed borrower, address indexed liquidator, uint seizeTokens, uint repayAmount, uint accountBorrowsPrior, uint accountBorrows, uint totalBorrows);\r\n\t\t\r\n\tconstructor() public {}\r\n\r\n\t/*** PoolToken ***/\r\n\t\r\n\tfunction _update() internal {\r\n\t\tsuper._update();\r\n\t\t_calculateBorrowRate();\r\n\t}\r\n\t\r\n\tfunction _mintReserves(uint _exchangeRate, uint _totalSupply) internal returns (uint) {\r\n\t\tuint _exchangeRateLast = exchangeRateLast;\r\n\t\tif (_exchangeRate > _exchangeRateLast) {\r\n\t\t\tuint _exchangeRateNew = _exchangeRate.sub( _exchangeRate.sub(_exchangeRateLast).mul(reserveFactor).div(1e18) );\r\n\t\t\tuint liquidity = _totalSupply.mul(_exchangeRate).div(_exchangeRateNew).sub(_totalSupply);\r\n\t\t\tif (liquidity == 0) return _exchangeRate;\r\n\t\t\taddress reservesManager = IFactory(factory).reservesManager();\r\n\t\t\t_mint(reservesManager, liquidity);\r\n\t\t\texchangeRateLast = _exchangeRateNew;\r\n\t\t\treturn _exchangeRateNew;\r\n\t\t}\r\n\t\telse return _exchangeRate;\r\n\t}\r\n\t\r\n\tfunction exchangeRate() public accrue returns (uint)\t{\r\n\t\tuint _totalSupply = totalSupply;\r\n\t\tuint _actualBalance =  totalBalance.add(totalBorrows);\r\n\t\tif (_totalSupply == 0 || _actualBalance == 0) return initialExchangeRate;\r\n\t\tuint _exchangeRate = _actualBalance.mul(1e18).div(_totalSupply);\r\n\t\treturn _mintReserves(_exchangeRate, _totalSupply);\r\n\t}\r\n\t\r\n\t// force totalBalance to match real balance\r\n\tfunction sync() external nonReentrant update accrue {}\r\n\t\r\n\t/*** Borrowable ***/\r\n\r\n\t// this is the stored borrow balance; the current borrow balance may be slightly higher\r\n\tfunction borrowBalance(address borrower) public view returns (uint) {\r\n\t\tBorrowSnapshot memory borrowSnapshot = borrowBalances[borrower];\r\n\t\tif (borrowSnapshot.interestIndex == 0) return 0; // not initialized\r\n\t\treturn uint(borrowSnapshot.principal).mul(borrowIndex).div(borrowSnapshot.interestIndex);\r\n\t}\r\n\t\r\n\tfunction _trackBorrow(address borrower, uint accountBorrows, uint _borrowIndex) internal {\r\n\t\taddress _borrowTracker = borrowTracker;\r\n\t\tif (_borrowTracker == address(0)) return;\r\n\t\tIBorrowTracker(_borrowTracker).trackBorrow(borrower, accountBorrows, _borrowIndex);\r\n\t}\r\n\t\r\n\tfunction _updateBorrow(address borrower, uint borrowAmount, uint repayAmount) private returns (uint accountBorrowsPrior, uint accountBorrows, uint _totalBorrows) {\r\n\t\taccountBorrowsPrior = borrowBalance(borrower);\r\n\t\tif (borrowAmount == repayAmount) return (accountBorrowsPrior, accountBorrowsPrior, totalBorrows);\r\n\t\tuint112 _borrowIndex = borrowIndex;\r\n\t\tif (borrowAmount > repayAmount) {\r\n\t\t\tBorrowSnapshot storage borrowSnapshot = borrowBalances[borrower];\r\n\t\t\tuint increaseAmount = borrowAmount - repayAmount;\r\n\t\t\taccountBorrows = accountBorrowsPrior.add(increaseAmount);\r\n\t\t\tborrowSnapshot.principal = safe112(accountBorrows);\r\n\t\t\tborrowSnapshot.interestIndex = _borrowIndex;\r\n\t\t\t_totalBorrows = uint(totalBorrows).add(increaseAmount);\t\r\n\t\t\ttotalBorrows = safe112(_totalBorrows);\r\n\t\t}\r\n\t\telse {\r\n\t\t\tBorrowSnapshot storage borrowSnapshot = borrowBalances[borrower];\r\n\t\t\tuint decreaseAmount = repayAmount - borrowAmount;\t\t\r\n\t\t\taccountBorrows = accountBorrowsPrior > decreaseAmount ? accountBorrowsPrior - decreaseAmount : 0;\r\n\t\t\tborrowSnapshot.principal = safe112(accountBorrows);\r\n\t\t\tif(accountBorrows == 0) {\r\n\t\t\t\tborrowSnapshot.interestIndex = 0;\r\n\t\t\t} else {\r\n\t\t\t\tborrowSnapshot.interestIndex = _borrowIndex;\r\n\t\t\t}\r\n\t\t\tuint actualDecreaseAmount = accountBorrowsPrior.sub(accountBorrows);\r\n\t\t\t_totalBorrows = totalBorrows; // gas savings\r\n\t\t\t_totalBorrows = _totalBorrows > actualDecreaseAmount ? _totalBorrows - actualDecreaseAmount : 0;\r\n\t\t\ttotalBorrows = safe112(_totalBorrows);\t\t\t\r\n\t\t}\r\n\t\t_trackBorrow(borrower, accountBorrows, _borrowIndex);\r\n\t}\r\n\t\r\n\t// this low-level function should be called from another contract\r\n\tfunction borrow(address borrower, address receiver, uint borrowAmount, bytes calldata data) external nonReentrant update accrue {\t\t\r\n\t\tuint _totalBalance = totalBalance;\r\n\t\trequire(borrowAmount <= _totalBalance, \"Impermax: INSUFFICIENT_CASH\");\r\n\t\t_checkBorrowAllowance(borrower, msg.sender, borrowAmount);\r\n\t\t\r\n\t\t// optimistically transfer funds\r\n\t\tif (borrowAmount > 0) _safeTransfer(receiver, borrowAmount);\r\n\t\tif (data.length > 0) IImpermaxCallee(receiver).impermaxBorrow(msg.sender, borrower, borrowAmount, data);\r\n\t\tuint balance = IERC20(underlying).balanceOf(address(this));\r\n\t\t\r\n\t\tuint borrowFee = borrowAmount.mul(BORROW_FEE).div(1e18);\r\n\t\tuint adjustedBorrowAmount = borrowAmount.add(borrowFee);\r\n\t\tuint repayAmount = balance.add(borrowAmount).sub(_totalBalance);\r\n\t\t(uint accountBorrowsPrior, uint accountBorrows, uint _totalBorrows) = _updateBorrow(borrower, adjustedBorrowAmount, repayAmount);\r\n\t\t\r\n\t\tif(adjustedBorrowAmount > repayAmount) require(\r\n\t\t\tICollateral(collateral).canBorrow(borrower, address(this), accountBorrows),\r\n\t\t\t\"Impermax: INSUFFICIENT_LIQUIDITY\"\r\n\t\t);\r\n\t\t\r\n\t\temit Borrow(msg.sender, borrower, receiver, borrowAmount, repayAmount, accountBorrowsPrior, accountBorrows, _totalBorrows);\r\n\t}\r\n\r\n\t// this low-level function should be called from another contract\r\n\tfunction liquidate(address borrower, address liquidator) external nonReentrant update accrue returns (uint seizeTokens) {\r\n\t\tuint balance = IERC20(underlying).balanceOf(address(this));\r\n\t\tuint repayAmount = balance.sub(totalBalance);\t\t\r\n\t\t\r\n\t\tuint actualRepayAmount = Math.min(borrowBalance(borrower), repayAmount);\r\n\t\tseizeTokens = ICollateral(collateral).seize(liquidator, borrower, actualRepayAmount);\t\r\n\t\t(uint accountBorrowsPrior, uint accountBorrows, uint _totalBorrows) = _updateBorrow(borrower, 0, repayAmount);\r\n\t\t\r\n\t\temit Liquidate(msg.sender, borrower, liquidator, seizeTokens, repayAmount, accountBorrowsPrior, accountBorrows, _totalBorrows);\r\n\t}\r\n\t\r\n\tfunction trackBorrow(address borrower) external {\r\n\t\t_trackBorrow(borrower, borrowBalance(borrower), borrowIndex);\r\n\t}\r\n\t\r\n\tmodifier accrue() {\r\n\t\taccrueInterest();\r\n\t\t_;\r\n\t}\r\n}",
  "sourcePath": "C:\\Users\\simor\\Desktop\\impermax-x-uniswapv2-periphery\\test\\Contracts\\imx-univ2-core\\Borrowable.sol",
  "compiler": {
    "name": "solc",
    "version": "0.5.16+commit.9c3226ce.Emscripten.clang"
  },
  "schemaVersion": "3.3.2",
  "updatedAt": "2021-01-07T23:07:24.737Z",
  "devdoc": {
    "methods": {}
  },
  "userdoc": {
    "methods": {
      "_setFactory()": {
        "notice": "* Initialize **"
      },
      "borrowBalance(address)": {
        "notice": "* Borrowable **"
      }
    }
  }
}