{
  "contractName": "BStorage",
  "abi": [
    {
      "constant": true,
      "inputs": [],
      "name": "accrualTimestamp",
      "outputs": [
        {
          "internalType": "uint32",
          "name": "",
          "type": "uint32"
        }
      ],
      "payable": false,
      "stateMutability": "view",
      "type": "function"
    },
    {
      "constant": true,
      "inputs": [],
      "name": "adjustSpeed",
      "outputs": [
        {
          "internalType": "uint256",
          "name": "",
          "type": "uint256"
        }
      ],
      "payable": false,
      "stateMutability": "view",
      "type": "function"
    },
    {
      "constant": true,
      "inputs": [
        {
          "internalType": "address",
          "name": "",
          "type": "address"
        },
        {
          "internalType": "address",
          "name": "",
          "type": "address"
        }
      ],
      "name": "borrowAllowance",
      "outputs": [
        {
          "internalType": "uint256",
          "name": "",
          "type": "uint256"
        }
      ],
      "payable": false,
      "stateMutability": "view",
      "type": "function"
    },
    {
      "constant": true,
      "inputs": [],
      "name": "borrowIndex",
      "outputs": [
        {
          "internalType": "uint112",
          "name": "",
          "type": "uint112"
        }
      ],
      "payable": false,
      "stateMutability": "view",
      "type": "function"
    },
    {
      "constant": true,
      "inputs": [],
      "name": "borrowRate",
      "outputs": [
        {
          "internalType": "uint48",
          "name": "",
          "type": "uint48"
        }
      ],
      "payable": false,
      "stateMutability": "view",
      "type": "function"
    },
    {
      "constant": true,
      "inputs": [],
      "name": "borrowTracker",
      "outputs": [
        {
          "internalType": "address",
          "name": "",
          "type": "address"
        }
      ],
      "payable": false,
      "stateMutability": "view",
      "type": "function"
    },
    {
      "constant": true,
      "inputs": [],
      "name": "collateral",
      "outputs": [
        {
          "internalType": "address",
          "name": "",
          "type": "address"
        }
      ],
      "payable": false,
      "stateMutability": "view",
      "type": "function"
    },
    {
      "constant": true,
      "inputs": [],
      "name": "exchangeRateLast",
      "outputs": [
        {
          "internalType": "uint256",
          "name": "",
          "type": "uint256"
        }
      ],
      "payable": false,
      "stateMutability": "view",
      "type": "function"
    },
    {
      "constant": true,
      "inputs": [],
      "name": "kinkBorrowRate",
      "outputs": [
        {
          "internalType": "uint48",
          "name": "",
          "type": "uint48"
        }
      ],
      "payable": false,
      "stateMutability": "view",
      "type": "function"
    },
    {
      "constant": true,
      "inputs": [],
      "name": "kinkUtilizationRate",
      "outputs": [
        {
          "internalType": "uint256",
          "name": "",
          "type": "uint256"
        }
      ],
      "payable": false,
      "stateMutability": "view",
      "type": "function"
    },
    {
      "constant": true,
      "inputs": [],
      "name": "rateUpdateTimestamp",
      "outputs": [
        {
          "internalType": "uint32",
          "name": "",
          "type": "uint32"
        }
      ],
      "payable": false,
      "stateMutability": "view",
      "type": "function"
    },
    {
      "constant": true,
      "inputs": [],
      "name": "reserveFactor",
      "outputs": [
        {
          "internalType": "uint256",
          "name": "",
          "type": "uint256"
        }
      ],
      "payable": false,
      "stateMutability": "view",
      "type": "function"
    },
    {
      "constant": true,
      "inputs": [],
      "name": "totalBorrows",
      "outputs": [
        {
          "internalType": "uint112",
          "name": "",
          "type": "uint112"
        }
      ],
      "payable": false,
      "stateMutability": "view",
      "type": "function"
    }
  ],
  "bytecode": "0x6080604052670de0b6b3a7640000600360006101000a8154816dffffffffffffffffffffffffffff02191690836dffffffffffffffffffffffffffff160217905550640100000000428161004f57fe5b066003601c6101000a81548163ffffffff021916908363ffffffff160217905550635e80a6c0600560066101000a81548165ffffffffffff021916908365ffffffffffff16021790555064010000000042816100a757fe5b066005600c6101000a81548163ffffffff021916908363ffffffff16021790555067016345785d8a00006006556709b6e64a8ec600006007556486bd6db0206008553480156100f557600080fd5b506104dd806101056000396000f3fe608060405234801561001057600080fd5b50600436106100cf5760003560e01c806391b427451161008c578063be340e3211610066578063be340e32146102c4578063c914b437146102e2578063d8dfeb4514610310578063e12b63061461035a576100cf565b806391b427451461022e578063aa5af0fd1461025c578063b95b92a31461029a576100cf565b80631aebf12f146100d45780632d5231d3146100f25780634322b7141461011057806347bd37181461012e578063559572201461016c5780636bd76d24146101b6575b600080fd5b6100dc610384565b6040518082815260200191505060405180910390f35b6100fa61038a565b6040518082815260200191505060405180910390f35b610118610390565b6040518082815260200191505060405180910390f35b610136610396565b60405180826dffffffffffffffffffffffffffff166dffffffffffffffffffffffffffff16815260200191505060405180910390f35b6101746103b6565b604051808273ffffffffffffffffffffffffffffffffffffffff1673ffffffffffffffffffffffffffffffffffffffff16815260200191505060405180910390f35b610218600480360360408110156101cc57600080fd5b81019080803573ffffffffffffffffffffffffffffffffffffffff169060200190929190803573ffffffffffffffffffffffffffffffffffffffff1690602001909291905050506103dc565b6040518082815260200191505060405180910390f35b610236610401565b604051808265ffffffffffff1665ffffffffffff16815260200191505060405180910390f35b610264610419565b60405180826dffffffffffffffffffffffffffff166dffffffffffffffffffffffffffff16815260200191505060405180910390f35b6102a2610439565b604051808263ffffffff1663ffffffff16815260200191505060405180910390f35b6102cc61044f565b6040518082815260200191505060405180910390f35b6102ea610455565b604051808265ffffffffffff1665ffffffffffff16815260200191505060405180910390f35b61031861046d565b604051808273ffffffffffffffffffffffffffffffffffffffff1673ffffffffffffffffffffffffffffffffffffffff16815260200191505060405180910390f35b610362610492565b604051808263ffffffff1663ffffffff16815260200191505060405180910390f35b60075481565b60085481565b60065481565b6003600e9054906101000a90046dffffffffffffffffffffffffffff1681565b600960009054906101000a900473ffffffffffffffffffffffffffffffffffffffff1681565b6001602052816000526040600020602052806000526040600020600091509150505481565b600560069054906101000a900465ffffffffffff1681565b600360009054906101000a90046dffffffffffffffffffffffffffff1681565b6003601c9054906101000a900463ffffffff1681565b60045481565b600560009054906101000a900465ffffffffffff1681565b6000809054906101000a900473ffffffffffffffffffffffffffffffffffffffff1681565b6005600c9054906101000a900463ffffffff168156fea265627a7a723158207abaae02e0739fcd92ce8e427ae2e5a01cf118dc2a536693a5b5b4f689b50c6064736f6c63430005100032",
  "source": "pragma solidity =0.5.16;\r\n\r\ncontract BStorage {\r\n\r\n\taddress public collateral;\r\n\r\n\tmapping (address => mapping (address => uint256)) public borrowAllowance; //provo a ridurlo?\r\n\t\r\n\tstruct BorrowSnapshot {\r\n\t\tuint112 principal;\t\t// amount in underlying when the borrow was last updated\r\n\t\tuint112 interestIndex;\t// borrow index when borrow was last updated\r\n\t}\r\n\tmapping(address => BorrowSnapshot) internal borrowBalances;\t\r\n\r\n\t// use one memory slot\r\n\tuint112 public borrowIndex = 1e18;\r\n\tuint112 public totalBorrows;\r\n\tuint32 public accrualTimestamp = uint32(block.timestamp % 2**32);\t\r\n\r\n\tuint public exchangeRateLast;\r\n\t\t\r\n\t// use one memory slot\r\n\tuint48 public borrowRate;\r\n\tuint48 public kinkBorrowRate = 1.5854896e9; //5% per year\r\n\tuint32 public rateUpdateTimestamp = uint32(block.timestamp % 2**32);\r\n\r\n\tuint public reserveFactor = 0.10e18; //10%\r\n\tuint public kinkUtilizationRate = 0.70e18; //70%\r\n\tuint public adjustSpeed = 0.5787037e12; //5% per day\r\n\taddress public borrowTracker;\r\n\r\n    function safe112(uint n) internal pure returns (uint112) {\r\n        require(n < 2**112, \"Impermax: SAFE112\");\r\n        return uint112(n);\r\n    }\r\n}",
  "sourcePath": "C:\\Users\\simor\\Desktop\\impermax-x-uniswapv2-periphery\\test\\Contracts\\imx-univ2-core\\BStorage.sol",
  "compiler": {
    "name": "solc",
    "version": "0.5.16+commit.9c3226ce.Emscripten.clang"
  },
  "schemaVersion": "3.3.2",
  "updatedAt": "2021-01-07T23:07:24.729Z",
  "devdoc": {
    "methods": {}
  },
  "userdoc": {
    "methods": {}
  }
}