{
  "contractName": "Collateral",
  "abi": [
    {
      "inputs": [],
      "payable": false,
      "stateMutability": "nonpayable",
      "type": "constructor"
    },
    {
      "anonymous": false,
      "inputs": [
        {
          "indexed": true,
          "internalType": "address",
          "name": "owner",
          "type": "address"
        },
        {
          "indexed": true,
          "internalType": "address",
          "name": "spender",
          "type": "address"
        },
        {
          "indexed": false,
          "internalType": "uint256",
          "name": "value",
          "type": "uint256"
        }
      ],
      "name": "Approval",
      "type": "event"
    },
    {
      "anonymous": false,
      "inputs": [
        {
          "indexed": true,
          "internalType": "address",
          "name": "sender",
          "type": "address"
        },
        {
          "indexed": true,
          "internalType": "address",
          "name": "minter",
          "type": "address"
        },
        {
          "indexed": false,
          "internalType": "uint256",
          "name": "mintAmount",
          "type": "uint256"
        },
        {
          "indexed": false,
          "internalType": "uint256",
          "name": "mintTokens",
          "type": "uint256"
        }
      ],
      "name": "Mint",
      "type": "event"
    },
    {
      "anonymous": false,
      "inputs": [
        {
          "indexed": false,
          "internalType": "uint256",
          "name": "newLiquidationIncentive",
          "type": "uint256"
        }
      ],
      "name": "NewLiquidationIncentive",
      "type": "event"
    },
    {
      "anonymous": false,
      "inputs": [
        {
          "indexed": false,
          "internalType": "uint256",
          "name": "newSafetyMarginSqrt",
          "type": "uint256"
        }
      ],
      "name": "NewSafetyMargin",
      "type": "event"
    },
    {
      "anonymous": false,
      "inputs": [
        {
          "indexed": true,
          "internalType": "address",
          "name": "sender",
          "type": "address"
        },
        {
          "indexed": true,
          "internalType": "address",
          "name": "redeemer",
          "type": "address"
        },
        {
          "indexed": false,
          "internalType": "uint256",
          "name": "redeemAmount",
          "type": "uint256"
        },
        {
          "indexed": false,
          "internalType": "uint256",
          "name": "redeemTokens",
          "type": "uint256"
        }
      ],
      "name": "Redeem",
      "type": "event"
    },
    {
      "anonymous": false,
      "inputs": [
        {
          "indexed": false,
          "internalType": "uint256",
          "name": "totalBalance",
          "type": "uint256"
        }
      ],
      "name": "Sync",
      "type": "event"
    },
    {
      "anonymous": false,
      "inputs": [
        {
          "indexed": true,
          "internalType": "address",
          "name": "from",
          "type": "address"
        },
        {
          "indexed": true,
          "internalType": "address",
          "name": "to",
          "type": "address"
        },
        {
          "indexed": false,
          "internalType": "uint256",
          "name": "value",
          "type": "uint256"
        }
      ],
      "name": "Transfer",
      "type": "event"
    },
    {
      "constant": true,
      "inputs": [],
      "name": "DOMAIN_SEPARATOR",
      "outputs": [
        {
          "internalType": "bytes32",
          "name": "",
          "type": "bytes32"
        }
      ],
      "payable": false,
      "stateMutability": "view",
      "type": "function"
    },
    {
      "constant": true,
      "inputs": [],
      "name": "LIQUIDATION_INCENTIVE_MAX",
      "outputs": [
        {
          "internalType": "uint256",
          "name": "",
          "type": "uint256"
        }
      ],
      "payable": false,
      "stateMutability": "view",
      "type": "function"
    },
    {
      "constant": true,
      "inputs": [],
      "name": "LIQUIDATION_INCENTIVE_MIN",
      "outputs": [
        {
          "internalType": "uint256",
          "name": "",
          "type": "uint256"
        }
      ],
      "payable": false,
      "stateMutability": "view",
      "type": "function"
    },
    {
      "constant": true,
      "inputs": [],
      "name": "MINIMUM_LIQUIDITY",
      "outputs": [
        {
          "internalType": "uint256",
          "name": "",
          "type": "uint256"
        }
      ],
      "payable": false,
      "stateMutability": "view",
      "type": "function"
    },
    {
      "constant": true,
      "inputs": [],
      "name": "PERMIT_TYPEHASH",
      "outputs": [
        {
          "internalType": "bytes32",
          "name": "",
          "type": "bytes32"
        }
      ],
      "payable": false,
      "stateMutability": "view",
      "type": "function"
    },
    {
      "constant": true,
      "inputs": [],
      "name": "SAFETY_MARGIN_SQRT_MAX",
      "outputs": [
        {
          "internalType": "uint256",
          "name": "",
          "type": "uint256"
        }
      ],
      "payable": false,
      "stateMutability": "view",
      "type": "function"
    },
    {
      "constant": true,
      "inputs": [],
      "name": "SAFETY_MARGIN_SQRT_MIN",
      "outputs": [
        {
          "internalType": "uint256",
          "name": "",
          "type": "uint256"
        }
      ],
      "payable": false,
      "stateMutability": "view",
      "type": "function"
    },
    {
      "constant": false,
      "inputs": [
        {
          "internalType": "string",
          "name": "_name",
          "type": "string"
        },
        {
          "internalType": "string",
          "name": "_symbol",
          "type": "string"
        },
        {
          "internalType": "address",
          "name": "_underlying",
          "type": "address"
        },
        {
          "internalType": "address",
          "name": "_borrowable0",
          "type": "address"
        },
        {
          "internalType": "address",
          "name": "_borrowable1",
          "type": "address"
        }
      ],
      "name": "_initialize",
      "outputs": [],
      "payable": false,
      "stateMutability": "nonpayable",
      "type": "function"
    },
    {
      "constant": false,
      "inputs": [],
      "name": "_setFactory",
      "outputs": [],
      "payable": false,
      "stateMutability": "nonpayable",
      "type": "function"
    },
    {
      "constant": false,
      "inputs": [
        {
          "internalType": "uint256",
          "name": "newLiquidationIncentive",
          "type": "uint256"
        }
      ],
      "name": "_setLiquidationIncentive",
      "outputs": [],
      "payable": false,
      "stateMutability": "nonpayable",
      "type": "function"
    },
    {
      "constant": false,
      "inputs": [
        {
          "internalType": "uint256",
          "name": "newSafetyMarginSqrt",
          "type": "uint256"
        }
      ],
      "name": "_setSafetyMarginSqrt",
      "outputs": [],
      "payable": false,
      "stateMutability": "nonpayable",
      "type": "function"
    },
    {
      "constant": true,
      "inputs": [
        {
          "internalType": "address",
          "name": "",
          "type": "address"
        },
        {
          "internalType": "address",
          "name": "",
          "type": "address"
        }
      ],
      "name": "allowance",
      "outputs": [
        {
          "internalType": "uint256",
          "name": "",
          "type": "uint256"
        }
      ],
      "payable": false,
      "stateMutability": "view",
      "type": "function"
    },
    {
      "constant": false,
      "inputs": [
        {
          "internalType": "address",
          "name": "spender",
          "type": "address"
        },
        {
          "internalType": "uint256",
          "name": "value",
          "type": "uint256"
        }
      ],
      "name": "approve",
      "outputs": [
        {
          "internalType": "bool",
          "name": "",
          "type": "bool"
        }
      ],
      "payable": false,
      "stateMutability": "nonpayable",
      "type": "function"
    },
    {
      "constant": true,
      "inputs": [
        {
          "internalType": "address",
          "name": "",
          "type": "address"
        }
      ],
      "name": "balanceOf",
      "outputs": [
        {
          "internalType": "uint256",
          "name": "",
          "type": "uint256"
        }
      ],
      "payable": false,
      "stateMutability": "view",
      "type": "function"
    },
    {
      "constant": true,
      "inputs": [],
      "name": "borrowable0",
      "outputs": [
        {
          "internalType": "address",
          "name": "",
          "type": "address"
        }
      ],
      "payable": false,
      "stateMutability": "view",
      "type": "function"
    },
    {
      "constant": true,
      "inputs": [],
      "name": "borrowable1",
      "outputs": [
        {
          "internalType": "address",
          "name": "",
          "type": "address"
        }
      ],
      "payable": false,
      "stateMutability": "view",
      "type": "function"
    },
    {
      "constant": true,
      "inputs": [],
      "name": "decimals",
      "outputs": [
        {
          "internalType": "uint8",
          "name": "",
          "type": "uint8"
        }
      ],
      "payable": false,
      "stateMutability": "view",
      "type": "function"
    },
    {
      "constant": false,
      "inputs": [],
      "name": "exchangeRate",
      "outputs": [
        {
          "internalType": "uint256",
          "name": "",
          "type": "uint256"
        }
      ],
      "payable": false,
      "stateMutability": "nonpayable",
      "type": "function"
    },
    {
      "constant": true,
      "inputs": [],
      "name": "factory",
      "outputs": [
        {
          "internalType": "address",
          "name": "",
          "type": "address"
        }
      ],
      "payable": false,
      "stateMutability": "view",
      "type": "function"
    },
    {
      "constant": true,
      "inputs": [],
      "name": "liquidationIncentive",
      "outputs": [
        {
          "internalType": "uint256",
          "name": "",
          "type": "uint256"
        }
      ],
      "payable": false,
      "stateMutability": "view",
      "type": "function"
    },
    {
      "constant": false,
      "inputs": [
        {
          "internalType": "address",
          "name": "minter",
          "type": "address"
        }
      ],
      "name": "mint",
      "outputs": [
        {
          "internalType": "uint256",
          "name": "mintTokens",
          "type": "uint256"
        }
      ],
      "payable": false,
      "stateMutability": "nonpayable",
      "type": "function"
    },
    {
      "constant": true,
      "inputs": [],
      "name": "name",
      "outputs": [
        {
          "internalType": "string",
          "name": "",
          "type": "string"
        }
      ],
      "payable": false,
      "stateMutability": "view",
      "type": "function"
    },
    {
      "constant": true,
      "inputs": [
        {
          "internalType": "address",
          "name": "",
          "type": "address"
        }
      ],
      "name": "nonces",
      "outputs": [
        {
          "internalType": "uint256",
          "name": "",
          "type": "uint256"
        }
      ],
      "payable": false,
      "stateMutability": "view",
      "type": "function"
    },
    {
      "constant": false,
      "inputs": [
        {
          "internalType": "address",
          "name": "owner",
          "type": "address"
        },
        {
          "internalType": "address",
          "name": "spender",
          "type": "address"
        },
        {
          "internalType": "uint256",
          "name": "value",
          "type": "uint256"
        },
        {
          "internalType": "uint256",
          "name": "deadline",
          "type": "uint256"
        },
        {
          "internalType": "uint8",
          "name": "v",
          "type": "uint8"
        },
        {
          "internalType": "bytes32",
          "name": "r",
          "type": "bytes32"
        },
        {
          "internalType": "bytes32",
          "name": "s",
          "type": "bytes32"
        }
      ],
      "name": "permit",
      "outputs": [],
      "payable": false,
      "stateMutability": "nonpayable",
      "type": "function"
    },
    {
      "constant": false,
      "inputs": [
        {
          "internalType": "address",
          "name": "redeemer",
          "type": "address"
        }
      ],
      "name": "redeem",
      "outputs": [
        {
          "internalType": "uint256",
          "name": "redeemAmount",
          "type": "uint256"
        }
      ],
      "payable": false,
      "stateMutability": "nonpayable",
      "type": "function"
    },
    {
      "constant": true,
      "inputs": [],
      "name": "safetyMarginSqrt",
      "outputs": [
        {
          "internalType": "uint256",
          "name": "",
          "type": "uint256"
        }
      ],
      "payable": false,
      "stateMutability": "view",
      "type": "function"
    },
    {
      "constant": true,
      "inputs": [],
      "name": "simpleUniswapOracle",
      "outputs": [
        {
          "internalType": "address",
          "name": "",
          "type": "address"
        }
      ],
      "payable": false,
      "stateMutability": "view",
      "type": "function"
    },
    {
      "constant": false,
      "inputs": [
        {
          "internalType": "address",
          "name": "to",
          "type": "address"
        }
      ],
      "name": "skim",
      "outputs": [],
      "payable": false,
      "stateMutability": "nonpayable",
      "type": "function"
    },
    {
      "constant": true,
      "inputs": [],
      "name": "symbol",
      "outputs": [
        {
          "internalType": "string",
          "name": "",
          "type": "string"
        }
      ],
      "payable": false,
      "stateMutability": "view",
      "type": "function"
    },
    {
      "constant": false,
      "inputs": [],
      "name": "sync",
      "outputs": [],
      "payable": false,
      "stateMutability": "nonpayable",
      "type": "function"
    },
    {
      "constant": true,
      "inputs": [],
      "name": "totalBalance",
      "outputs": [
        {
          "internalType": "uint256",
          "name": "",
          "type": "uint256"
        }
      ],
      "payable": false,
      "stateMutability": "view",
      "type": "function"
    },
    {
      "constant": true,
      "inputs": [],
      "name": "totalSupply",
      "outputs": [
        {
          "internalType": "uint256",
          "name": "",
          "type": "uint256"
        }
      ],
      "payable": false,
      "stateMutability": "view",
      "type": "function"
    },
    {
      "constant": false,
      "inputs": [
        {
          "internalType": "address",
          "name": "to",
          "type": "address"
        },
        {
          "internalType": "uint256",
          "name": "value",
          "type": "uint256"
        }
      ],
      "name": "transfer",
      "outputs": [
        {
          "internalType": "bool",
          "name": "",
          "type": "bool"
        }
      ],
      "payable": false,
      "stateMutability": "nonpayable",
      "type": "function"
    },
    {
      "constant": false,
      "inputs": [
        {
          "internalType": "address",
          "name": "from",
          "type": "address"
        },
        {
          "internalType": "address",
          "name": "to",
          "type": "address"
        },
        {
          "internalType": "uint256",
          "name": "value",
          "type": "uint256"
        }
      ],
      "name": "transferFrom",
      "outputs": [
        {
          "internalType": "bool",
          "name": "",
          "type": "bool"
        }
      ],
      "payable": false,
      "stateMutability": "nonpayable",
      "type": "function"
    },
    {
      "constant": true,
      "inputs": [],
      "name": "underlying",
      "outputs": [
        {
          "internalType": "address",
          "name": "",
          "type": "address"
        }
      ],
      "payable": false,
      "stateMutability": "view",
      "type": "function"
    },
    {
      "constant": false,
      "inputs": [],
      "name": "getPrices",
      "outputs": [
        {
          "internalType": "uint256",
          "name": "price0",
          "type": "uint256"
        },
        {
          "internalType": "uint256",
          "name": "price1",
          "type": "uint256"
        }
      ],
      "payable": false,
      "stateMutability": "nonpayable",
      "type": "function"
    },
    {
      "constant": false,
      "inputs": [
        {
          "internalType": "address",
          "name": "from",
          "type": "address"
        },
        {
          "internalType": "uint256",
          "name": "value",
          "type": "uint256"
        }
      ],
      "name": "tokensUnlocked",
      "outputs": [
        {
          "internalType": "bool",
          "name": "",
          "type": "bool"
        }
      ],
      "payable": false,
      "stateMutability": "nonpayable",
      "type": "function"
    },
    {
      "constant": false,
      "inputs": [
        {
          "internalType": "address",
          "name": "borrower",
          "type": "address"
        },
        {
          "internalType": "uint256",
          "name": "amount0",
          "type": "uint256"
        },
        {
          "internalType": "uint256",
          "name": "amount1",
          "type": "uint256"
        }
      ],
      "name": "accountLiquidityAmounts",
      "outputs": [
        {
          "internalType": "uint256",
          "name": "liquidity",
          "type": "uint256"
        },
        {
          "internalType": "uint256",
          "name": "shortfall",
          "type": "uint256"
        }
      ],
      "payable": false,
      "stateMutability": "nonpayable",
      "type": "function"
    },
    {
      "constant": false,
      "inputs": [
        {
          "internalType": "address",
          "name": "borrower",
          "type": "address"
        }
      ],
      "name": "accountLiquidity",
      "outputs": [
        {
          "internalType": "uint256",
          "name": "liquidity",
          "type": "uint256"
        },
        {
          "internalType": "uint256",
          "name": "shortfall",
          "type": "uint256"
        }
      ],
      "payable": false,
      "stateMutability": "nonpayable",
      "type": "function"
    },
    {
      "constant": false,
      "inputs": [
        {
          "internalType": "address",
          "name": "borrower",
          "type": "address"
        },
        {
          "internalType": "address",
          "name": "borrowable",
          "type": "address"
        },
        {
          "internalType": "uint256",
          "name": "accountBorrows",
          "type": "uint256"
        }
      ],
      "name": "canBorrow",
      "outputs": [
        {
          "internalType": "bool",
          "name": "",
          "type": "bool"
        }
      ],
      "payable": false,
      "stateMutability": "nonpayable",
      "type": "function"
    },
    {
      "constant": false,
      "inputs": [
        {
          "internalType": "address",
          "name": "liquidator",
          "type": "address"
        },
        {
          "internalType": "address",
          "name": "borrower",
          "type": "address"
        },
        {
          "internalType": "uint256",
          "name": "repayAmount",
          "type": "uint256"
        }
      ],
      "name": "seize",
      "outputs": [
        {
          "internalType": "uint256",
          "name": "seizeTokens",
          "type": "uint256"
        }
      ],
      "payable": false,
      "stateMutability": "nonpayable",
      "type": "function"
    },
    {
      "constant": false,
      "inputs": [
        {
          "internalType": "address",
          "name": "redeemer",
          "type": "address"
        },
        {
          "internalType": "uint256",
          "name": "redeemAmount",
          "type": "uint256"
        },
        {
          "internalType": "bytes",
          "name": "data",
          "type": "bytes"
        }
      ],
      "name": "flashRedeem",
      "outputs": [],
      "payable": false,
      "stateMutability": "nonpayable",
      "type": "function"
    }
  ],
  "bytecode": "0x60806040526012600260006101000a81548160ff021916908360ff1602179055506001600b60006101000a81548160ff0219169083151502179055506715f155637eba0c00600e55670e6ed27d66680000600f5534801561005f57600080fd5b50614da98061006f6000396000f3fe608060405234801561001057600080fd5b506004361061025e5760003560e01c80637ecebe0011610146578063bb6ff386116100c3578063c548e3c511610087578063c548e3c514610c63578063d490e7e014610d91578063d505accf14610daf578063daf8881814610e48578063dd62ed3e14610e92578063fff6cae914610f0a5761025e565b8063bb6ff38614610b64578063bc25cf7714610b92578063bc9bd12a14610bd6578063bd9a548b14610bf4578063c45a015514610c195761025e565b8063a9059cbb1161010a578063a9059cbb14610a22578063ad7a672f14610a88578063afc8276c14610aa6578063b2a02ff114610ac4578063ba9a7a5614610b465761025e565b80637ecebe001461084b5780638c765e94146108a357806395a2251f146108c157806395d89b41146109195780639aac2c531461099c5761025e565b80633644e515116101df5780636a627842116101a35780636a6278421461062e5780636e01be10146106865780636f13cb83146106ec5780636f307dc31461075f57806370a08231146107a95780637c6674b5146108015761025e565b80633644e5151461055b5780633ba0b9a9146105795780634a5d316c146105975780634fd42e17146105a15780635a0f03c6146105cf5761025e565b806323b872dd1161022657806323b872dd1461042b5780632fa5ae1b146104b157806330adf81f146104fb578063313ce56714610519578063356c571f1461053d5761025e565b806306fdde0314610263578063095ea7b3146102e65780630fb60fef1461034c57806318160ddd1461036a57806319f3400d14610388575b600080fd5b61026b610f14565b6040518080602001828103825283818151815260200191508051906020019080838360005b838110156102ab578082015181840152602081019050610290565b50505050905090810190601f1680156102d85780820380516001836020036101000a031916815260200191505b509250505060405180910390f35b610332600480360360408110156102fc57600080fd5b81019080803573ffffffffffffffffffffffffffffffffffffffff16906020019092919080359060200190929190505050610fb2565b604051808215151515815260200191505060405180910390f35b610354610fc9565b6040518082815260200191505060405180910390f35b610372610fd5565b6040518082815260200191505060405180910390f35b6104296004803603606081101561039e57600080fd5b81019080803573ffffffffffffffffffffffffffffffffffffffff16906020019092919080359060200190929190803590602001906401000000008111156103e557600080fd5b8201836020820111156103f757600080fd5b8035906020019184600183028401116401000000008311171561041957600080fd5b9091929391929390505050610fdb565b005b6104976004803603606081101561044157600080fd5b81019080803573ffffffffffffffffffffffffffffffffffffffff169060200190929190803573ffffffffffffffffffffffffffffffffffffffff16906020019092919080359060200190929190505050611364565b604051808215151515815260200191505060405180910390f35b6104b9611566565b604051808273ffffffffffffffffffffffffffffffffffffffff1673ffffffffffffffffffffffffffffffffffffffff16815260200191505060405180910390f35b61050361158c565b6040518082815260200191505060405180910390f35b6105216115b3565b604051808260ff1660ff16815260200191505060405180910390f35b6105456115c6565b6040518082815260200191505060405180910390f35b6105636115cc565b6040518082815260200191505060405180910390f35b6105816115d2565b6040518082815260200191505060405180910390f35b61059f61163c565b005b6105cd600480360360208110156105b757600080fd5b8101908080359060200190929190505050611743565b005b610611600480360360208110156105e557600080fd5b81019080803573ffffffffffffffffffffffffffffffffffffffff169060200190929190505050611857565b604051808381526020018281526020019250505060405180910390f35b6106706004803603602081101561064457600080fd5b81019080803573ffffffffffffffffffffffffffffffffffffffff16906020019092919050505061188e565b6040518082815260200191505060405180910390f35b6106d26004803603604081101561069c57600080fd5b81019080803573ffffffffffffffffffffffffffffffffffffffff16906020019092919080359060200190929190505050611ba1565b604051808215151515815260200191505060405180910390f35b6107426004803603606081101561070257600080fd5b81019080803573ffffffffffffffffffffffffffffffffffffffff1690602001909291908035906020019092919080359060200190929190505050611e16565b604051808381526020018281526020019250505060405180910390f35b6107676120b2565b604051808273ffffffffffffffffffffffffffffffffffffffff1673ffffffffffffffffffffffffffffffffffffffff16815260200191505060405180910390f35b6107eb600480360360208110156107bf57600080fd5b81019080803573ffffffffffffffffffffffffffffffffffffffff1690602001909291905050506120d8565b6040518082815260200191505060405180910390f35b6108096120f0565b604051808273ffffffffffffffffffffffffffffffffffffffff1673ffffffffffffffffffffffffffffffffffffffff16815260200191505060405180910390f35b61088d6004803603602081101561086157600080fd5b81019080803573ffffffffffffffffffffffffffffffffffffffff169060200190929190505050612116565b6040518082815260200191505060405180910390f35b6108ab61212e565b6040518082815260200191505060405180910390f35b610903600480360360208110156108d757600080fd5b81019080803573ffffffffffffffffffffffffffffffffffffffff169060200190929190505050612134565b6040518082815260200191505060405180910390f35b6109216123e5565b6040518080602001828103825283818151815260200191508051906020019080838360005b83811015610961578082015181840152602081019050610946565b50505050905090810190601f16801561098e5780820380516001836020036101000a031916815260200191505b509250505060405180910390f35b610a08600480360360608110156109b257600080fd5b81019080803573ffffffffffffffffffffffffffffffffffffffff169060200190929190803573ffffffffffffffffffffffffffffffffffffffff16906020019092919080359060200190929190505050612483565b604051808215151515815260200191505060405180910390f35b610a6e60048036036040811015610a3857600080fd5b81019080803573ffffffffffffffffffffffffffffffffffffffff16906020019092919080359060200190929190505050612689565b604051808215151515815260200191505060405180910390f35b610a906126a0565b6040518082815260200191505060405180910390f35b610aae6126a6565b6040518082815260200191505060405180910390f35b610b3060048036036060811015610ada57600080fd5b81019080803573ffffffffffffffffffffffffffffffffffffffff169060200190929190803573ffffffffffffffffffffffffffffffffffffffff169060200190929190803590602001909291905050506126b2565b6040518082815260200191505060405180910390f35b610b4e612af7565b6040518082815260200191505060405180910390f35b610b9060048036036020811015610b7a57600080fd5b8101908080359060200190929190505050612afd565b005b610bd460048036036020811015610ba857600080fd5b81019080803573ffffffffffffffffffffffffffffffffffffffff169060200190929190505050612c11565b005b610bde612dc3565b6040518082815260200191505060405180910390f35b610bfc612dcf565b604051808381526020018281526020019250505060405180910390f35b610c216132ae565b604051808273ffffffffffffffffffffffffffffffffffffffff1673ffffffffffffffffffffffffffffffffffffffff16815260200191505060405180910390f35b610d8f600480360360a0811015610c7957600080fd5b8101908080359060200190640100000000811115610c9657600080fd5b820183602082011115610ca857600080fd5b80359060200191846001830284011164010000000083111715610cca57600080fd5b909192939192939080359060200190640100000000811115610ceb57600080fd5b820183602082011115610cfd57600080fd5b80359060200191846001830284011164010000000083111715610d1f57600080fd5b9091929391929390803573ffffffffffffffffffffffffffffffffffffffff169060200190929190803573ffffffffffffffffffffffffffffffffffffffff169060200190929190803573ffffffffffffffffffffffffffffffffffffffff1690602001909291905050506132d4565b005b610d996135d8565b6040518082815260200191505060405180910390f35b610e46600480360360e0811015610dc557600080fd5b81019080803573ffffffffffffffffffffffffffffffffffffffff169060200190929190803573ffffffffffffffffffffffffffffffffffffffff1690602001909291908035906020019092919080359060200190929190803560ff16906020019092919080359060200190929190803590602001909291905050506135e4565b005b610e5061362b565b604051808273ffffffffffffffffffffffffffffffffffffffff1673ffffffffffffffffffffffffffffffffffffffff16815260200191505060405180910390f35b610ef460048036036040811015610ea857600080fd5b81019080803573ffffffffffffffffffffffffffffffffffffffff169060200190929190803573ffffffffffffffffffffffffffffffffffffffff169060200190929190505050613651565b6040518082815260200191505060405180910390f35b610f12613676565b005b60008054600181600116156101000203166002900480601f016020809104026020016040519081016040528092919081815260200182805460018160011615610100020316600290048015610faa5780601f10610f7f57610100808354040283529160200191610faa565b820191906000526020600020905b815481529060010190602001808311610f8d57829003601f168201915b505050505081565b6000610fbf338484613738565b6001905092915050565b6710ff2af864d4fc0081565b60035481565b600b60009054906101000a900460ff1661105d576040517f08c379a00000000000000000000000000000000000000000000000000000000081526004018080602001828103825260138152602001807f496d7065726d61783a205245454e54455245440000000000000000000000000081525060200191505060405180910390fd5b6000600b60006101000a81548160ff021916908315150217905550600a548311156110f0576040517f08c379a000000000000000000000000000000000000000000000000000000000815260040180806020018281038252601b8152602001807f496d7065726d61783a20494e53554646494349454e545f43415348000000000081525060200191505060405180910390fd5b6110fa8484613823565b60008282905011156111da578373ffffffffffffffffffffffffffffffffffffffff1663acb86cbb338585856040518563ffffffff1660e01b8152600401808573ffffffffffffffffffffffffffffffffffffffff1673ffffffffffffffffffffffffffffffffffffffff168152602001848152602001806020018281038252848482818152602001925080828437600081840152601f19601f82011690508083019250505095505050505050600060405180830381600087803b1580156111c157600080fd5b505af11580156111d5573d6000803e3d6000fd5b505050505b6000600460003073ffffffffffffffffffffffffffffffffffffffff1673ffffffffffffffffffffffffffffffffffffffff168152602001908152602001600020549050600061126760016112596112306115d2565b61124b670de0b6b3a76400008a613a9190919063ffffffff16565b613b1790919063ffffffff16565b613b6190919063ffffffff16565b9050808210156112c2576040517f08c379a0000000000000000000000000000000000000000000000000000000008152600401808060200182810382526024815260200180614cbd6024913960400191505060405180910390fd5b6112cc3083613be9565b8573ffffffffffffffffffffffffffffffffffffffff163373ffffffffffffffffffffffffffffffffffffffff167f3f693fff038bb8a046aa76d9516190ac7444f7d69cf952c4cbdc086fdef2d6fc8785604051808381526020018281526020019250505060405180910390a35050611343613d03565b6001600b60006101000a81548160ff02191690831515021790555050505050565b60007fffffffffffffffffffffffffffffffffffffffffffffffffffffffffffffffff600560008673ffffffffffffffffffffffffffffffffffffffff1673ffffffffffffffffffffffffffffffffffffffff16815260200190815260200160002060003373ffffffffffffffffffffffffffffffffffffffff1673ffffffffffffffffffffffffffffffffffffffff1681526020019081526020016000205414611550576114cf826040518060400160405280601e81526020017f496d7065726d61783a205452414e534645525f4e4f545f414c4c4f5745440000815250600560008873ffffffffffffffffffffffffffffffffffffffff1673ffffffffffffffffffffffffffffffffffffffff16815260200190815260200160002060003373ffffffffffffffffffffffffffffffffffffffff1673ffffffffffffffffffffffffffffffffffffffff16815260200190815260200160002054613e1e9092919063ffffffff16565b600560008673ffffffffffffffffffffffffffffffffffffffff1673ffffffffffffffffffffffffffffffffffffffff16815260200190815260200160002060003373ffffffffffffffffffffffffffffffffffffffff1673ffffffffffffffffffffffffffffffffffffffff168152602001908152602001600020819055505b61155b848484613ede565b600190509392505050565b600b60019054906101000a900473ffffffffffffffffffffffffffffffffffffffff1681565b7f6e71edae12b1b97f4d1f60370fef10105fa2faae0126114a169c64845d6126c960001b81565b600260009054906101000a900460ff1681565b600e5481565b60065481565b60008060035490506000600a54905060008214806115f05750600081145b1561160757670de0b6b3a764000092505050611639565b61163482611626670de0b6b3a764000084613a9190919063ffffffff16565b613b1790919063ffffffff16565b925050505b90565b600073ffffffffffffffffffffffffffffffffffffffff16600960009054906101000a900473ffffffffffffffffffffffffffffffffffffffff1673ffffffffffffffffffffffffffffffffffffffff1614611700576040517f08c379a000000000000000000000000000000000000000000000000000000000815260040180806020018281038252601d8152602001807f496d7065726d61783a20464143544f52595f414c52454144595f53455400000081525060200191505060405180910390fd5b33600960006101000a81548173ffffffffffffffffffffffffffffffffffffffff021916908373ffffffffffffffffffffffffffffffffffffffff160217905550565b600b60009054906101000a900460ff166117c5576040517f08c379a00000000000000000000000000000000000000000000000000000000081526004018080602001828103825260138152602001807f496d7065726d61783a205245454e54455245440000000000000000000000000081525060200191505060405180910390fd5b6000600b60006101000a81548160ff0219169083151502179055506117fb81670e043da617250000670e92596fd6290000613f6a565b80600f819055507f8a9bb9067f9ecb13a322b548e6df3dd1bd10a54698834dac43ed8f0e765bf94d816040518082815260200191505060405180910390a16001600b60006101000a81548160ff02191690831515021790555050565b600080611885837fffffffffffffffffffffffffffffffffffffffffffffffffffffffffffffffff80611e16565b91509150915091565b6000600b60009054906101000a900460ff16611912576040517f08c379a00000000000000000000000000000000000000000000000000000000081526004018080602001828103825260138152602001807f496d7065726d61783a205245454e54455245440000000000000000000000000081525060200191505060405180910390fd5b6000600b60006101000a81548160ff0219169083151502179055506000600860009054906101000a900473ffffffffffffffffffffffffffffffffffffffff1673ffffffffffffffffffffffffffffffffffffffff166370a08231306040518263ffffffff1660e01b8152600401808273ffffffffffffffffffffffffffffffffffffffff1673ffffffffffffffffffffffffffffffffffffffff16815260200191505060206040518083038186803b1580156119ce57600080fd5b505afa1580156119e2573d6000803e3d6000fd5b505050506040513d60208110156119f857600080fd5b810190808051906020019092919050505090506000611a22600a548361406390919063ffffffff16565b9050611a58611a2f6115d2565b611a4a670de0b6b3a764000084613a9190919063ffffffff16565b613b1790919063ffffffff16565b925060006003541415611a8a57611a7a6103e88461406390919063ffffffff16565b9250611a8960006103e86140ad565b5b60008311611b00576040517f08c379a000000000000000000000000000000000000000000000000000000000815260040180806020018281038252601a8152602001807f496d7065726d61783a204d494e545f414d4f554e545f5a45524f00000000000081525060200191505060405180910390fd5b611b0a84846140ad565b8373ffffffffffffffffffffffffffffffffffffffff163373ffffffffffffffffffffffffffffffffffffffff167f2f00e3cdd69a77be7ed215ec7b2a36784dd158f921fca79ac29deffa353fe6ee8386604051808381526020018281526020019250505060405180910390a35050611b81613d03565b6001600b60006101000a81548160ff021916908315150217905550919050565b600080600460008573ffffffffffffffffffffffffffffffffffffffff1673ffffffffffffffffffffffffffffffffffffffff16815260200190815260200160002054905080831115611bf8576000915050611e10565b600083820390506000611c35670de0b6b3a7640000611c27611c186115d2565b85613a9190919063ffffffff16565b613b1790919063ffffffff16565b90506000600b60019054906101000a900473ffffffffffffffffffffffffffffffffffffffff1673ffffffffffffffffffffffffffffffffffffffff16634d73e9ba886040518263ffffffff1660e01b8152600401808273ffffffffffffffffffffffffffffffffffffffff1673ffffffffffffffffffffffffffffffffffffffff16815260200191505060206040518083038186803b158015611cd857600080fd5b505afa158015611cec573d6000803e3d6000fd5b505050506040513d6020811015611d0257600080fd5b810190808051906020019092919050505090506000600c60009054906101000a900473ffffffffffffffffffffffffffffffffffffffff1673ffffffffffffffffffffffffffffffffffffffff16634d73e9ba896040518263ffffffff1660e01b8152600401808273ffffffffffffffffffffffffffffffffffffffff1673ffffffffffffffffffffffffffffffffffffffff16815260200191505060206040518083038186803b158015611db657600080fd5b505afa158015611dca573d6000803e3d6000fd5b505050506040513d6020811015611de057600080fd5b810190808051906020019092919050505090506000611e008484846141c7565b9150506000811496505050505050505b92915050565b6000807fffffffffffffffffffffffffffffffffffffffffffffffffffffffffffffffff841415611f1e57600b60019054906101000a900473ffffffffffffffffffffffffffffffffffffffff1673ffffffffffffffffffffffffffffffffffffffff16634d73e9ba866040518263ffffffff1660e01b8152600401808273ffffffffffffffffffffffffffffffffffffffff1673ffffffffffffffffffffffffffffffffffffffff16815260200191505060206040518083038186803b158015611ee057600080fd5b505afa158015611ef4573d6000803e3d6000fd5b505050506040513d6020811015611f0a57600080fd5b810190808051906020019092919050505093505b7fffffffffffffffffffffffffffffffffffffffffffffffffffffffffffffffff83141561202357600c60009054906101000a900473ffffffffffffffffffffffffffffffffffffffff1673ffffffffffffffffffffffffffffffffffffffff16634d73e9ba866040518263ffffffff1660e01b8152600401808273ffffffffffffffffffffffffffffffffffffffff1673ffffffffffffffffffffffffffffffffffffffff16815260200191505060206040518083038186803b158015611fe557600080fd5b505afa158015611ff9573d6000803e3d6000fd5b505050506040513d602081101561200f57600080fd5b810190808051906020019092919050505092505b6000612098670de0b6b3a764000061208a61203c6115d2565b600460008b73ffffffffffffffffffffffffffffffffffffffff1673ffffffffffffffffffffffffffffffffffffffff16815260200190815260200160002054613a9190919063ffffffff16565b613b1790919063ffffffff16565b90506120a58186866141c7565b9250925050935093915050565b600860009054906101000a900473ffffffffffffffffffffffffffffffffffffffff1681565b60046020528060005260406000206000915090505481565b600d60009054906101000a900473ffffffffffffffffffffffffffffffffffffffff1681565b60076020528060005260406000206000915090505481565b600f5481565b6000600b60009054906101000a900460ff166121b8576040517f08c379a00000000000000000000000000000000000000000000000000000000081526004018080602001828103825260138152602001807f496d7065726d61783a205245454e54455245440000000000000000000000000081525060200191505060405180910390fd5b6000600b60006101000a81548160ff0219169083151502179055506000600460003073ffffffffffffffffffffffffffffffffffffffff1673ffffffffffffffffffffffffffffffffffffffff16815260200190815260200160002054905061224b670de0b6b3a764000061223d61222e6115d2565b84613a9190919063ffffffff16565b613b1790919063ffffffff16565b9150600082116122c3576040517f08c379a000000000000000000000000000000000000000000000000000000000815260040180806020018281038252601c8152602001807f496d7065726d61783a2052454445454d5f414d4f554e545f5a45524f0000000081525060200191505060405180910390fd5b600a5482111561233b576040517f08c379a000000000000000000000000000000000000000000000000000000000815260040180806020018281038252601b8152602001807f496d7065726d61783a20494e53554646494349454e545f43415348000000000081525060200191505060405180910390fd5b6123458383613823565b61234f3082613be9565b8273ffffffffffffffffffffffffffffffffffffffff163373ffffffffffffffffffffffffffffffffffffffff167f3f693fff038bb8a046aa76d9516190ac7444f7d69cf952c4cbdc086fdef2d6fc8484604051808381526020018281526020019250505060405180910390a3506123c5613d03565b6001600b60006101000a81548160ff021916908315150217905550919050565b60018054600181600116156101000203166002900480601f01602080910402602001604051908101604052809291908181526020018280546001816001161561010002031660029004801561247b5780601f106124505761010080835404028352916020019161247b565b820191906000526020600020905b81548152906001019060200180831161245e57829003601f168201915b505050505081565b600080600b60019054906101000a900473ffffffffffffffffffffffffffffffffffffffff1690506000600c60009054906101000a900473ffffffffffffffffffffffffffffffffffffffff1690508173ffffffffffffffffffffffffffffffffffffffff168573ffffffffffffffffffffffffffffffffffffffff16148061253757508073ffffffffffffffffffffffffffffffffffffffff168573ffffffffffffffffffffffffffffffffffffffff16145b6125a9576040517f08c379a000000000000000000000000000000000000000000000000000000000815260040180806020018281038252601c8152602001807f496d7065726d61783a20494e56414c49445f424f52524f5741424c450000000081525060200191505060405180910390fd5b60008273ffffffffffffffffffffffffffffffffffffffff168673ffffffffffffffffffffffffffffffffffffffff1614612604577fffffffffffffffffffffffffffffffffffffffffffffffffffffffffffffffff612606565b845b905060008273ffffffffffffffffffffffffffffffffffffffff168773ffffffffffffffffffffffffffffffffffffffff1614612663577fffffffffffffffffffffffffffffffffffffffffffffffffffffffffffffffff612665565b855b90506000612674898484611e16565b91505060008114955050505050509392505050565b6000612696338484613ede565b6001905092915050565b600a5481565b670e92596fd629000081565b6000600b60019054906101000a900473ffffffffffffffffffffffffffffffffffffffff1673ffffffffffffffffffffffffffffffffffffffff163373ffffffffffffffffffffffffffffffffffffffff16148061275d5750600c60009054906101000a900473ffffffffffffffffffffffffffffffffffffffff1673ffffffffffffffffffffffffffffffffffffffff163373ffffffffffffffffffffffffffffffffffffffff16145b6127cf576040517f08c379a00000000000000000000000000000000000000000000000000000000081526004018080602001828103825260168152602001807f496d7065726d61783a20554e415554484f52495a45440000000000000000000081525060200191505060405180910390fd5b60006127da84611857565b91505060008111612853576040517f08c379a00000000000000000000000000000000000000000000000000000000081526004018080602001828103825260208152602001807f496d7065726d61783a20494e53554646494349454e545f53484f525446414c4c81525060200191505060405180910390fd5b6000600b60019054906101000a900473ffffffffffffffffffffffffffffffffffffffff1673ffffffffffffffffffffffffffffffffffffffff163373ffffffffffffffffffffffffffffffffffffffff1614156128bd576128b3612dcf565b50809150506128cc565b6128c5612dcf565b9050809150505b6129266128d76115d2565b6129188361290a670de0b6b3a76400006128fc600f548b613a9190919063ffffffff16565b613b1790919063ffffffff16565b613a9190919063ffffffff16565b613b1790919063ffffffff16565b92506129b1836040518060400160405280601e81526020017f496d7065726d61783a204c49515549444154494e475f544f4f5f4d5543480000815250600460008973ffffffffffffffffffffffffffffffffffffffff1673ffffffffffffffffffffffffffffffffffffffff16815260200190815260200160002054613e1e9092919063ffffffff16565b600460008773ffffffffffffffffffffffffffffffffffffffff1673ffffffffffffffffffffffffffffffffffffffff16815260200190815260200160002081905550612a4683600460008973ffffffffffffffffffffffffffffffffffffffff1673ffffffffffffffffffffffffffffffffffffffff16815260200190815260200160002054613b6190919063ffffffff16565b600460008873ffffffffffffffffffffffffffffffffffffffff1673ffffffffffffffffffffffffffffffffffffffff168152602001908152602001600020819055508573ffffffffffffffffffffffffffffffffffffffff168573ffffffffffffffffffffffffffffffffffffffff167fddf252ad1be2c89b69c2b068fc378daa952ba7f163c4a11628f55a4df523b3ef856040518082815260200191505060405180910390a350509392505050565b6103e881565b600b60009054906101000a900460ff16612b7f576040517f08c379a00000000000000000000000000000000000000000000000000000000081526004018080602001828103825260138152602001807f496d7065726d61783a205245454e54455245440000000000000000000000000081525060200191505060405180910390fd5b6000600b60006101000a81548160ff021916908315150217905550612bb5816710ff2af864d4fc006715f15565d2c5f000613f6a565b80600e819055507fdff9a61839be6f6ce5ea77311cc351786a39a9f337c507ff35e7b358fd39c043816040518082815260200191505060405180910390a16001600b60006101000a81548160ff02191690831515021790555050565b600b60009054906101000a900460ff16612c93576040517f08c379a00000000000000000000000000000000000000000000000000000000081526004018080602001828103825260138152602001807f496d7065726d61783a205245454e54455245440000000000000000000000000081525060200191505060405180910390fd5b6000600b60006101000a81548160ff021916908315150217905550612da581612da0600a54600860009054906101000a900473ffffffffffffffffffffffffffffffffffffffff1673ffffffffffffffffffffffffffffffffffffffff166370a08231306040518263ffffffff1660e01b8152600401808273ffffffffffffffffffffffffffffffffffffffff1673ffffffffffffffffffffffffffffffffffffffff16815260200191505060206040518083038186803b158015612d5757600080fd5b505afa158015612d6b573d6000803e3d6000fd5b505050506040513d6020811015612d8157600080fd5b810190808051906020019092919050505061406390919063ffffffff16565b613823565b6001600b60006101000a81548160ff02191690831515021790555050565b670e043da61725000081565b6000806000600d60009054906101000a900473ffffffffffffffffffffffffffffffffffffffff1673ffffffffffffffffffffffffffffffffffffffff1663446a37e0600860009054906101000a900473ffffffffffffffffffffffffffffffffffffffff166040518263ffffffff1660e01b8152600401808273ffffffffffffffffffffffffffffffffffffffff1673ffffffffffffffffffffffffffffffffffffffff1681526020019150506040805180830381600087803b158015612e9657600080fd5b505af1158015612eaa573d6000803e3d6000fd5b505050506040513d6040811015612ec057600080fd5b810190808051906020019092919080519060200190929190505050509050600080600860009054906101000a900473ffffffffffffffffffffffffffffffffffffffff1673ffffffffffffffffffffffffffffffffffffffff16630902f1ac6040518163ffffffff1660e01b815260040160606040518083038186803b158015612f4957600080fd5b505afa158015612f5d573d6000803e3d6000fd5b505050506040513d6060811015612f7357600080fd5b8101908080519060200190929190805190602001909291908051906020019092919050505050915091506000600860009054906101000a900473ffffffffffffffffffffffffffffffffffffffff1673ffffffffffffffffffffffffffffffffffffffff166318160ddd6040518163ffffffff1660e01b815260040160206040518083038186803b15801561300757600080fd5b505afa15801561301b573d6000803e3d6000fd5b505050506040513d602081101561303157600080fd5b81019080805190602001909291905050509050600061307f8461305385614331565b7bffffffffffffffffffffffffffffffffffffffffffffffffffffffff1661435c90919063ffffffff16565b905060006130e9827bffffffffffffffffffffffffffffffffffffffffffffffffffffffff166130db640100000000897bffffffffffffffffffffffffffffffffffffffffffffffffffffffff16613a9190919063ffffffff16565b613b1790919063ffffffff16565b9050600061310d61310864010000000084613a9190919063ffffffff16565b6143bc565b90506000613151600288026dffffffffffffffffffffffffffff16613143670de0b6b3a764000088613a9190919063ffffffff16565b613b1790919063ffffffff16565b90506000613195600288026dffffffffffffffffffffffffffff16613187670de0b6b3a764000089613a9190919063ffffffff16565b613b1790919063ffffffff16565b90506131c16401000000006131b38585613a9190919063ffffffff16565b613b1790919063ffffffff16565b9a506131ed836131df64010000000084613a9190919063ffffffff16565b613b1790919063ffffffff16565b995060648b11613248576040517f08c379a0000000000000000000000000000000000000000000000000000000008152600401808060200182810382526021815260200180614ce16021913960400191505060405180910390fd5b60648a116132a1576040517f08c379a0000000000000000000000000000000000000000000000000000000008152600401808060200182810382526021815260200180614ce16021913960400191505060405180910390fd5b5050505050505050509091565b600960009054906101000a900473ffffffffffffffffffffffffffffffffffffffff1681565b600960009054906101000a900473ffffffffffffffffffffffffffffffffffffffff1673ffffffffffffffffffffffffffffffffffffffff163373ffffffffffffffffffffffffffffffffffffffff1614613397576040517f08c379a00000000000000000000000000000000000000000000000000000000081526004018080602001828103825260168152602001807f496d7065726d61783a20554e415554484f52495a45440000000000000000000081525060200191505060405180910390fd5b61342987878080601f016020809104026020016040519081016040528093929190818152602001838380828437600081840152601f19601f8201169050808301925050505050505086868080601f016020809104026020016040519081016040528093929190818152602001838380828437600081840152601f19601f8201169050808301925050505050505061441e565b82600860006101000a81548173ffffffffffffffffffffffffffffffffffffffff021916908373ffffffffffffffffffffffffffffffffffffffff16021790555081600b60016101000a81548173ffffffffffffffffffffffffffffffffffffffff021916908373ffffffffffffffffffffffffffffffffffffffff16021790555080600c60006101000a81548173ffffffffffffffffffffffffffffffffffffffff021916908373ffffffffffffffffffffffffffffffffffffffff160217905550600960009054906101000a900473ffffffffffffffffffffffffffffffffffffffff1673ffffffffffffffffffffffffffffffffffffffff16637c6674b56040518163ffffffff1660e01b815260040160206040518083038186803b15801561355457600080fd5b505afa158015613568573d6000803e3d6000fd5b505050506040513d602081101561357e57600080fd5b8101908080519060200190929190505050600d60006101000a81548173ffffffffffffffffffffffffffffffffffffffff021916908373ffffffffffffffffffffffffffffffffffffffff16021790555050505050505050565b6715f15565d2c5f00081565b613617878787878787877f6e71edae12b1b97f4d1f60370fef10105fa2faae0126114a169c64845d6126c960001b61452a565b613622878787613738565b50505050505050565b600c60009054906101000a900473ffffffffffffffffffffffffffffffffffffffff1681565b6005602052816000526040600020602052806000526040600020600091509150505481565b600b60009054906101000a900460ff166136f8576040517f08c379a00000000000000000000000000000000000000000000000000000000081526004018080602001828103825260138152602001807f496d7065726d61783a205245454e54455245440000000000000000000000000081525060200191505060405180910390fd5b6000600b60006101000a81548160ff02191690831515021790555061371b613d03565b6001600b60006101000a81548160ff021916908315150217905550565b80600560008573ffffffffffffffffffffffffffffffffffffffff1673ffffffffffffffffffffffffffffffffffffffff16815260200190815260200160002060008473ffffffffffffffffffffffffffffffffffffffff1673ffffffffffffffffffffffffffffffffffffffff168152602001908152602001600020819055508173ffffffffffffffffffffffffffffffffffffffff168373ffffffffffffffffffffffffffffffffffffffff167f8c5be1e5ebec7d5bd14f71427d1e84f3dd0314c0f7b2291e5b200ac8c7c3b925836040518082815260200191505060405180910390a3505050565b60006060600860009054906101000a900473ffffffffffffffffffffffffffffffffffffffff1673ffffffffffffffffffffffffffffffffffffffff166040518060400160405280601981526020017f7472616e7366657228616464726573732c75696e743235362900000000000000815250805190602001208585604051602401808373ffffffffffffffffffffffffffffffffffffffff1673ffffffffffffffffffffffffffffffffffffffff16815260200182815260200192505050604051602081830303815290604052907bffffffffffffffffffffffffffffffffffffffffffffffffffffffff19166020820180517bffffffffffffffffffffffffffffffffffffffffffffffffffffffff83818316178352505050506040518082805190602001908083835b60208310613972578051825260208201915060208101905060208303925061394f565b6001836020036101000a0380198251168184511680821785525050505050509050019150506000604051808303816000865af19150503d80600081146139d4576040519150601f19603f3d011682016040523d82523d6000602084013e6139d9565b606091505b5091509150818015613a195750600081511480613a185750808060200190516020811015613a0657600080fd5b81019080805190602001909291905050505b5b613a8b576040517f08c379a00000000000000000000000000000000000000000000000000000000081526004018080602001828103825260198152602001807f496d7065726d61783a205452414e534645525f4641494c45440000000000000081525060200191505060405180910390fd5b50505050565b600080831415613aa45760009050613b11565b6000828402905082848281613ab557fe5b0414613b0c576040517f08c379a0000000000000000000000000000000000000000000000000000000008152600401808060200182810382526021815260200180614d546021913960400191505060405180910390fd5b809150505b92915050565b6000613b5983836040518060400160405280601a81526020017f536166654d6174683a206469766973696f6e206279207a65726f000000000000815250614841565b905092915050565b600080828401905083811015613bdf576040517f08c379a000000000000000000000000000000000000000000000000000000000815260040180806020018281038252601b8152602001807f536166654d6174683a206164646974696f6e206f766572666c6f77000000000081525060200191505060405180910390fd5b8091505092915050565b613c3b81600460008573ffffffffffffffffffffffffffffffffffffffff1673ffffffffffffffffffffffffffffffffffffffff1681526020019081526020016000205461406390919063ffffffff16565b600460008473ffffffffffffffffffffffffffffffffffffffff1673ffffffffffffffffffffffffffffffffffffffff16815260200190815260200160002081905550613c938160035461406390919063ffffffff16565b600381905550600073ffffffffffffffffffffffffffffffffffffffff168273ffffffffffffffffffffffffffffffffffffffff167fddf252ad1be2c89b69c2b068fc378daa952ba7f163c4a11628f55a4df523b3ef836040518082815260200191505060405180910390a35050565b600860009054906101000a900473ffffffffffffffffffffffffffffffffffffffff1673ffffffffffffffffffffffffffffffffffffffff166370a08231306040518263ffffffff1660e01b8152600401808273ffffffffffffffffffffffffffffffffffffffff1673ffffffffffffffffffffffffffffffffffffffff16815260200191505060206040518083038186803b158015613da257600080fd5b505afa158015613db6573d6000803e3d6000fd5b505050506040513d6020811015613dcc57600080fd5b8101908080519060200190929190505050600a819055507f8a0df8ef054fae2c3d2d19a7b322e864870cc9fd3cb07fb9526309c596244bf4600a546040518082815260200191505060405180910390a1565b6000838311158290613ecb576040517f08c379a00000000000000000000000000000000000000000000000000000000081526004018080602001828103825283818151815260200191508051906020019080838360005b83811015613e90578082015181840152602081019050613e75565b50505050905090810190601f168015613ebd5780820380516001836020036101000a031916815260200191505b509250505060405180910390fd5b5060008385039050809150509392505050565b613ee88382611ba1565b613f5a576040517f08c379a00000000000000000000000000000000000000000000000000000000081526004018080602001828103825260208152602001807f496d7065726d61783a20494e53554646494349454e545f4c495155494449545981525060200191505060405180910390fd5b613f65838383614907565b505050565b613f72614ad2565b81831015613fe8576040517f08c379a00000000000000000000000000000000000000000000000000000000081526004018080602001828103825260198152602001807f496d7065726d61783a20494e56414c49445f53455454494e470000000000000081525060200191505060405180910390fd5b8083111561405e576040517f08c379a00000000000000000000000000000000000000000000000000000000081526004018080602001828103825260198152602001807f496d7065726d61783a20494e56414c49445f53455454494e470000000000000081525060200191505060405180910390fd5b505050565b60006140a583836040518060400160405280601f81526020017f536166654d6174683a207375627472616374696f6e20756e646572666c6f7700815250613e1e565b905092915050565b6140c281600354613b6190919063ffffffff16565b60038190555061411a81600460008573ffffffffffffffffffffffffffffffffffffffff1673ffffffffffffffffffffffffffffffffffffffff16815260200190815260200160002054613b6190919063ffffffff16565b600460008473ffffffffffffffffffffffffffffffffffffffff1673ffffffffffffffffffffffffffffffffffffffff168152602001908152602001600020819055508173ffffffffffffffffffffffffffffffffffffffff16600073ffffffffffffffffffffffffffffffffffffffff167fddf252ad1be2c89b69c2b068fc378daa952ba7f163c4a11628f55a4df523b3ef836040518082815260200191505060405180910390a35050565b6000806000600e5490506000806141dc612dcf565b91509150600061420f670de0b6b3a7640000614201858b613a9190919063ffffffff16565b613b1790919063ffffffff16565b90506000614240670de0b6b3a7640000614232858b613a9190919063ffffffff16565b613b1790919063ffffffff16565b90508082101561425557808280925081935050505b614282670de0b6b3a76400006142748785613a9190919063ffffffff16565b613b1790919063ffffffff16565b91506142b1856142a3670de0b6b3a764000084613a9190919063ffffffff16565b613b1790919063ffffffff16565b905060006142f6670de0b6b3a76400006142e8600f546142da8688613b6190919063ffffffff16565b613a9190919063ffffffff16565b613b1790919063ffffffff16565b9050808b1061431657808b03600080905097509750505050505050614329565b60008b8203819150975097505050505050505b935093915050565b60006e010000000000000000000000000000826dffffffffffffffffffffffffffff16029050919050565b6000816dffffffffffffffffffffffffffff167bffffffffffffffffffffffffffffffffffffffffffffffffffffffff16837bffffffffffffffffffffffffffffffffffffffffffffffffffffffff16816143b357fe5b04905092915050565b6000600382111561440b5781905060006001600284816143d857fe5b040190505b81811015614405578091506002818285816143f457fe5b0401816143fd57fe5b0490506143dd565b50614419565b6000821461441857600190505b5b919050565b8160009080519060200190614434929190614c17565b50806001908051906020019061444b929190614c17565b5060004690506040518080614d02605291396052019050604051809103902083805190602001206040518060400160405280600181526020017f3100000000000000000000000000000000000000000000000000000000000000815250805190602001208330604051602001808681526020018581526020018481526020018381526020018273ffffffffffffffffffffffffffffffffffffffff1673ffffffffffffffffffffffffffffffffffffffff1681526020019550505050505060405160208183030381529060405280519060200120600681905550505050565b428510156145a0576040517f08c379a00000000000000000000000000000000000000000000000000000000081526004018080602001828103825260118152602001807f496d7065726d61783a204558504952454400000000000000000000000000000081525060200191505060405180910390fd5b6000600654828a8a8a600760008f73ffffffffffffffffffffffffffffffffffffffff1673ffffffffffffffffffffffffffffffffffffffff1681526020019081526020016000206000815480929190600101919050558b604051602001808781526020018673ffffffffffffffffffffffffffffffffffffffff1673ffffffffffffffffffffffffffffffffffffffff1681526020018573ffffffffffffffffffffffffffffffffffffffff1673ffffffffffffffffffffffffffffffffffffffff16815260200184815260200183815260200182815260200196505050505050506040516020818303038152906040528051906020012060405160200180807f190100000000000000000000000000000000000000000000000000000000000081525060020183815260200182815260200192505050604051602081830303815290604052805190602001209050600060018287878760405160008152602001604052604051808581526020018460ff1660ff1681526020018381526020018281526020019450505050506020604051602081039080840390855afa15801561474f573d6000803e3d6000fd5b505050602060405103519050600073ffffffffffffffffffffffffffffffffffffffff168173ffffffffffffffffffffffffffffffffffffffff16141580156147c357508973ffffffffffffffffffffffffffffffffffffffff168173ffffffffffffffffffffffffffffffffffffffff16145b614835576040517f08c379a000000000000000000000000000000000000000000000000000000000815260040180806020018281038252601b8152602001807f496d7065726d61783a20494e56414c49445f5349474e4154555245000000000081525060200191505060405180910390fd5b50505050505050505050565b600080831182906148ed576040517f08c379a00000000000000000000000000000000000000000000000000000000081526004018080602001828103825283818151815260200191508051906020019080838360005b838110156148b2578082015181840152602081019050614897565b50505050905090810190601f1680156148df5780820380516001836020036101000a031916815260200191505b509250505060405180910390fd5b5060008385816148f957fe5b049050809150509392505050565b614990816040518060400160405280601b81526020017f496d7065726d61783a205452414e534645525f544f4f5f484947480000000000815250600460008773ffffffffffffffffffffffffffffffffffffffff1673ffffffffffffffffffffffffffffffffffffffff16815260200190815260200160002054613e1e9092919063ffffffff16565b600460008573ffffffffffffffffffffffffffffffffffffffff1673ffffffffffffffffffffffffffffffffffffffff16815260200190815260200160002081905550614a2581600460008573ffffffffffffffffffffffffffffffffffffffff1673ffffffffffffffffffffffffffffffffffffffff16815260200190815260200160002054613b6190919063ffffffff16565b600460008473ffffffffffffffffffffffffffffffffffffffff1673ffffffffffffffffffffffffffffffffffffffff168152602001908152602001600020819055508173ffffffffffffffffffffffffffffffffffffffff168373ffffffffffffffffffffffffffffffffffffffff167fddf252ad1be2c89b69c2b068fc378daa952ba7f163c4a11628f55a4df523b3ef836040518082815260200191505060405180910390a3505050565b600960009054906101000a900473ffffffffffffffffffffffffffffffffffffffff1673ffffffffffffffffffffffffffffffffffffffff1663f851a4406040518163ffffffff1660e01b815260040160206040518083038186803b158015614b3a57600080fd5b505afa158015614b4e573d6000803e3d6000fd5b505050506040513d6020811015614b6457600080fd5b810190808051906020019092919050505073ffffffffffffffffffffffffffffffffffffffff163373ffffffffffffffffffffffffffffffffffffffff1614614c15576040517f08c379a00000000000000000000000000000000000000000000000000000000081526004018080602001828103825260168152602001807f496d7065726d61783a20554e415554484f52495a45440000000000000000000081525060200191505060405180910390fd5b565b828054600181600116156101000203166002900490600052602060002090601f016020900481019282601f10614c5857805160ff1916838001178555614c86565b82800160010185558215614c86579182015b82811115614c85578251825591602001919060010190614c6a565b5b509050614c939190614c97565b5090565b614cb991905b80821115614cb5576000816000905550600101614c9d565b5090565b9056fe496d7065726d61783a20494e53554646494349454e545f52454445454d5f544f4b454e53496d7065726d61783a2050524943455f43414c43554c4154494f4e5f4552524f52454950373132446f6d61696e28737472696e67206e616d652c737472696e672076657273696f6e2c75696e7432353620636861696e49642c6164647265737320766572696679696e67436f6e747261637429536166654d6174683a206d756c7469706c69636174696f6e206f766572666c6f77a265627a7a723158207046b2f9e9604eb7e8248413a7cf853c486109e907ef4d0637e3776e3513279164736f6c63430005100032",
  "source": "pragma solidity =0.5.16;\r\n\r\nimport \"./PoolToken.sol\";\r\nimport \"./CStorage.sol\";\r\nimport \"./CSetter.sol\";\r\nimport \"./interfaces/IBorrowable.sol\";\r\nimport \"./interfaces/ICollateral.sol\";\r\nimport \"./interfaces/IFactory.sol\";\r\nimport \"./interfaces/ISimpleUniswapOracle.sol\";\r\nimport \"./interfaces/IImpermaxCallee.sol\";\r\nimport \"./interfaces/IUniswapV2Pair.sol\";\r\nimport \"./libraries/UQ112x112.sol\";\r\nimport \"./libraries/Math.sol\";\r\n\r\ncontract Collateral is ICollateral, PoolToken, CStorage, CSetter {\r\n    using UQ112x112 for uint224;\r\n\t\r\n\tconstructor() public {}\r\n\t\r\n\t/*** Collateralization Model ***/\r\n\r\n\t// returns the prices of borrowable0's and borrowable1's underlyings with collateral's underlying as denom\r\n\tfunction getPrices() public returns (uint price0, uint price1) {\r\n\t\t(uint224 twapPrice112x112,) = ISimpleUniswapOracle(simpleUniswapOracle).getResult(underlying);\r\n\t\t(uint112 reserve0, uint112 reserve1,) = IUniswapV2Pair(underlying).getReserves();\r\n\t\tuint256 collateralTotalSupply = IUniswapV2Pair(underlying).totalSupply();\r\n\t\t\r\n\t\tuint224 currentPrice112x112 = UQ112x112.encode(reserve1).uqdiv(reserve0);\r\n\t\tuint256 adjustmentSquared = uint256(twapPrice112x112).mul(2**32).div(currentPrice112x112);\r\n\t\tuint256 adjustment = Math.sqrt(adjustmentSquared.mul(2**32));\r\n\r\n\t\tuint256 currentBorrowable0Price = uint256(collateralTotalSupply).mul(1e18).div(reserve0*2);\r\n\t\tuint256 currentBorrowable1Price = uint256(collateralTotalSupply).mul(1e18).div(reserve1*2);\r\n\t\t\r\n\t\tprice0 = currentBorrowable0Price.mul(adjustment).div(2**32);\r\n\t\tprice1 = currentBorrowable1Price.mul(2**32).div(adjustment);\r\n\t\t\r\n\t\t/*\r\n\t\t * Price calculation errors may happen in some edge pairs where\r\n\t\t * reserve0 / reserve1 is close to 2**112 or 1/2**112\r\n\t\t * We're going to prevent users from using pairs at risk from the UI\r\n\t\t */\r\n\t\trequire(price0 > 100, \"Impermax: PRICE_CALCULATION_ERROR\");\r\n\t\trequire(price1 > 100, \"Impermax: PRICE_CALCULATION_ERROR\");\r\n\t}\r\n\t\r\n\t// returns liquidity in  collateral's underlying\r\n\tfunction _calculateLiquidity(uint amountCollateral, uint amount0, uint amount1) internal returns (uint liquidity, uint shortfall) {\r\n\t\tuint _safetyMarginSqrt = safetyMarginSqrt;\r\n\t\t(uint price0, uint price1) = getPrices();\r\n\t\t\r\n\t\tuint a = amount0.mul(price0).div(1e18);\r\n\t\tuint b = amount1.mul(price1).div(1e18);\r\n\t\tif(a < b) (a, b) = (b, a);\r\n\t\ta = a.mul(_safetyMarginSqrt).div(1e18);\r\n\t\tb = b.mul(1e18).div(_safetyMarginSqrt);\r\n\t\tuint collateralNeeded = a.add(b).mul(liquidationIncentive).div(1e18);\t\t\r\n\r\n\t\tif(amountCollateral >= collateralNeeded){\r\n\t\t\treturn (amountCollateral - collateralNeeded, 0);\r\n\t\t} else {\r\n\t\t\treturn (0, collateralNeeded - amountCollateral);\r\n\t\t}\r\n\t}\r\n\r\n\t/*** ERC20 ***/\r\n\t\r\n\tfunction _transfer(address from, address to, uint value) internal {\r\n\t\trequire(tokensUnlocked(from, value), \"Impermax: INSUFFICIENT_LIQUIDITY\");\r\n\t\tsuper._transfer(from, to, value);\r\n\t}\r\n\t\r\n\tfunction tokensUnlocked(address from, uint value) public returns (bool) {\r\n\t\tuint _balance = balanceOf[from];\r\n\t\tif (value > _balance) return false;\r\n\t\tuint finalBalance = _balance - value;\r\n\t\tuint amountCollateral = finalBalance.mul(exchangeRate()).div(1e18);\r\n\t\tuint amount0 = IBorrowable(borrowable0).borrowBalance(from);\r\n\t\tuint amount1 = IBorrowable(borrowable1).borrowBalance(from);\r\n\t\t(, uint shortfall) = _calculateLiquidity(amountCollateral, amount0, amount1);\r\n\t\treturn shortfall == 0;\r\n\t}\r\n\t\r\n\t/*** Collateral ***/\r\n\t\r\n\tfunction accountLiquidityAmounts(address borrower, uint amount0, uint amount1) public returns (uint liquidity, uint shortfall) {\r\n\t\tif (amount0 == uint(-1)) amount0 = IBorrowable(borrowable0).borrowBalance(borrower);\r\n\t\tif (amount1 == uint(-1)) amount1 = IBorrowable(borrowable1).borrowBalance(borrower);\r\n\t\tuint amountCollateral = balanceOf[borrower].mul(exchangeRate()).div(1e18);\r\n\t\treturn _calculateLiquidity(amountCollateral, amount0, amount1);\r\n\t}\r\n\t\r\n\tfunction accountLiquidity(address borrower) public returns (uint liquidity, uint shortfall) {\r\n\t\treturn accountLiquidityAmounts(borrower, uint(-1), uint(-1));\r\n\t}\r\n\t\r\n\tfunction canBorrow(address borrower, address borrowable, uint accountBorrows) public returns (bool) {\r\n\t\taddress _borrowable0 = borrowable0;\r\n\t\taddress _borrowable1 = borrowable1;\r\n\t\trequire(borrowable == _borrowable0 || borrowable == _borrowable1, \"Impermax: INVALID_BORROWABLE\" );\r\n\t\tuint amount0 = borrowable == _borrowable0 ? accountBorrows : uint(-1);\r\n\t\tuint amount1 = borrowable == _borrowable1 ? accountBorrows : uint(-1);\r\n\t\t(, uint shortfall) = accountLiquidityAmounts(borrower, amount0, amount1);\r\n\t\treturn shortfall == 0;\r\n\t}\r\n\t\r\n\t// this function must be called from borrowable0 or borrowable1\r\n\tfunction seize(address liquidator, address borrower, uint repayAmount) external returns (uint seizeTokens) {\r\n\t\trequire(msg.sender == borrowable0 || msg.sender == borrowable1, \"Impermax: UNAUTHORIZED\");\r\n\t\t\r\n\t\t(, uint shortfall) = accountLiquidity(borrower);\r\n\t\trequire(shortfall > 0, \"Impermax: INSUFFICIENT_SHORTFALL\");\r\n\t\t\r\n\t\tuint price;\r\n\t\tif (msg.sender == borrowable0) (price, ) = getPrices();\r\n\t\telse  (, price) = getPrices();\r\n\t\t\r\n\t\tseizeTokens = repayAmount.mul(liquidationIncentive).div(1e18).mul(price).div( exchangeRate() );\r\n\t\t\r\n\t\tbalanceOf[borrower] = balanceOf[borrower].sub(seizeTokens, \"Impermax: LIQUIDATING_TOO_MUCH\");\r\n\t\tbalanceOf[liquidator] = balanceOf[liquidator].add(seizeTokens);\r\n\t\temit Transfer(borrower, liquidator, seizeTokens);\r\n\t}\r\n\r\n\t// this low-level function should be called from another contract\r\n\tfunction flashRedeem(address redeemer, uint redeemAmount, bytes calldata data) external nonReentrant update {\r\n\t\trequire(redeemAmount <= totalBalance, \"Impermax: INSUFFICIENT_CASH\");\r\n\t\t\r\n\t\t// optimistically transfer funds\r\n\t\t_safeTransfer(redeemer, redeemAmount);\r\n\t\tif (data.length > 0) IImpermaxCallee(redeemer).impermaxRedeem(msg.sender, redeemAmount, data);\r\n\t\t\r\n\t\tuint redeemTokens = balanceOf[address(this)];\r\n\t\tuint declaredRedeemTokens = redeemAmount.mul(1e18).div( exchangeRate() ).add(1); // rounded up\r\n\t\trequire(redeemTokens >= declaredRedeemTokens, \"Impermax: INSUFFICIENT_REDEEM_TOKENS\");\r\n\t\t\r\n\t\t_burn(address(this), redeemTokens);\r\n\t\temit Redeem(msg.sender, redeemer, redeemAmount, redeemTokens);\r\n\t}\r\n}",
  "sourcePath": "C:\\Users\\simor\\Desktop\\impermax-x-uniswapv2-periphery\\test\\Contracts\\imx-univ2-core\\Collateral.sol",
  "compiler": {
    "name": "solc",
    "version": "0.5.16+commit.9c3226ce.Emscripten.clang"
  },
  "schemaVersion": "3.3.2",
  "updatedAt": "2021-01-07T23:07:24.759Z",
  "devdoc": {
    "methods": {}
  },
  "userdoc": {
    "methods": {
      "_setFactory()": {
        "notice": "* Initialize **"
      },
      "accountLiquidityAmounts(address,uint256,uint256)": {
        "notice": "* Collateral **"
      },
      "getPrices()": {
        "notice": "* Collateralization Model **"
      }
    }
  }
}