{
  "contractName": "Factory",
  "abi": [
    {
      "inputs": [
        {
          "internalType": "address",
          "name": "_admin",
          "type": "address"
        },
        {
          "internalType": "contract IBDeployer",
          "name": "_bDeployer",
          "type": "address"
        },
        {
          "internalType": "contract ICDeployer",
          "name": "_cDeployer",
          "type": "address"
        },
        {
          "internalType": "contract IUniswapV2Factory",
          "name": "_uniswapV2Factory",
          "type": "address"
        },
        {
          "internalType": "contract ISimpleUniswapOracle",
          "name": "_simpleUniswapOracle",
          "type": "address"
        }
      ],
      "payable": false,
      "stateMutability": "nonpayable",
      "type": "constructor"
    },
    {
      "anonymous": false,
      "inputs": [
        {
          "indexed": true,
          "internalType": "address",
          "name": "uniswapV2Pair",
          "type": "address"
        },
        {
          "indexed": true,
          "internalType": "address",
          "name": "token0",
          "type": "address"
        },
        {
          "indexed": true,
          "internalType": "address",
          "name": "token1",
          "type": "address"
        },
        {
          "indexed": false,
          "internalType": "address",
          "name": "collateral",
          "type": "address"
        },
        {
          "indexed": false,
          "internalType": "address",
          "name": "borrowable0",
          "type": "address"
        },
        {
          "indexed": false,
          "internalType": "address",
          "name": "borrowable1",
          "type": "address"
        },
        {
          "indexed": false,
          "internalType": "uint256",
          "name": "lendingPoolId",
          "type": "uint256"
        }
      ],
      "name": "LendingPoolInitialized",
      "type": "event"
    },
    {
      "anonymous": false,
      "inputs": [
        {
          "indexed": false,
          "internalType": "address",
          "name": "oldAdmin",
          "type": "address"
        },
        {
          "indexed": false,
          "internalType": "address",
          "name": "newAdmin",
          "type": "address"
        }
      ],
      "name": "NewAdmin",
      "type": "event"
    },
    {
      "anonymous": false,
      "inputs": [
        {
          "indexed": false,
          "internalType": "address",
          "name": "oldPendingAdmin",
          "type": "address"
        },
        {
          "indexed": false,
          "internalType": "address",
          "name": "newPendingAdmin",
          "type": "address"
        }
      ],
      "name": "NewPendingAdmin",
      "type": "event"
    },
    {
      "anonymous": false,
      "inputs": [
        {
          "indexed": false,
          "internalType": "address",
          "name": "oldReservesManager",
          "type": "address"
        },
        {
          "indexed": false,
          "internalType": "address",
          "name": "newReservesManager",
          "type": "address"
        }
      ],
      "name": "NewReservesManager",
      "type": "event"
    },
    {
      "constant": true,
      "inputs": [],
      "name": "admin",
      "outputs": [
        {
          "internalType": "address",
          "name": "",
          "type": "address"
        }
      ],
      "payable": false,
      "stateMutability": "view",
      "type": "function"
    },
    {
      "constant": true,
      "inputs": [
        {
          "internalType": "uint256",
          "name": "",
          "type": "uint256"
        }
      ],
      "name": "allLendingPools",
      "outputs": [
        {
          "internalType": "address",
          "name": "",
          "type": "address"
        }
      ],
      "payable": false,
      "stateMutability": "view",
      "type": "function"
    },
    {
      "constant": true,
      "inputs": [],
      "name": "bDeployer",
      "outputs": [
        {
          "internalType": "contract IBDeployer",
          "name": "",
          "type": "address"
        }
      ],
      "payable": false,
      "stateMutability": "view",
      "type": "function"
    },
    {
      "constant": true,
      "inputs": [],
      "name": "cDeployer",
      "outputs": [
        {
          "internalType": "contract ICDeployer",
          "name": "",
          "type": "address"
        }
      ],
      "payable": false,
      "stateMutability": "view",
      "type": "function"
    },
    {
      "constant": true,
      "inputs": [
        {
          "internalType": "address",
          "name": "",
          "type": "address"
        }
      ],
      "name": "getLendingPool",
      "outputs": [
        {
          "internalType": "bool",
          "name": "initialized",
          "type": "bool"
        },
        {
          "internalType": "uint24",
          "name": "lendingPoolId",
          "type": "uint24"
        },
        {
          "internalType": "address",
          "name": "collateral",
          "type": "address"
        },
        {
          "internalType": "address",
          "name": "borrowable0",
          "type": "address"
        },
        {
          "internalType": "address",
          "name": "borrowable1",
          "type": "address"
        }
      ],
      "payable": false,
      "stateMutability": "view",
      "type": "function"
    },
    {
      "constant": true,
      "inputs": [],
      "name": "pendingAdmin",
      "outputs": [
        {
          "internalType": "address",
          "name": "",
          "type": "address"
        }
      ],
      "payable": false,
      "stateMutability": "view",
      "type": "function"
    },
    {
      "constant": true,
      "inputs": [],
      "name": "reservesManager",
      "outputs": [
        {
          "internalType": "address",
          "name": "",
          "type": "address"
        }
      ],
      "payable": false,
      "stateMutability": "view",
      "type": "function"
    },
    {
      "constant": true,
      "inputs": [],
      "name": "simpleUniswapOracle",
      "outputs": [
        {
          "internalType": "contract ISimpleUniswapOracle",
          "name": "",
          "type": "address"
        }
      ],
      "payable": false,
      "stateMutability": "view",
      "type": "function"
    },
    {
      "constant": true,
      "inputs": [],
      "name": "uniswapV2Factory",
      "outputs": [
        {
          "internalType": "contract IUniswapV2Factory",
          "name": "",
          "type": "address"
        }
      ],
      "payable": false,
      "stateMutability": "view",
      "type": "function"
    },
    {
      "constant": true,
      "inputs": [],
      "name": "allLendingPoolsLength",
      "outputs": [
        {
          "internalType": "uint256",
          "name": "",
          "type": "uint256"
        }
      ],
      "payable": false,
      "stateMutability": "view",
      "type": "function"
    },
    {
      "constant": false,
      "inputs": [
        {
          "internalType": "address",
          "name": "uniswapV2Pair",
          "type": "address"
        }
      ],
      "name": "createCollateral",
      "outputs": [
        {
          "internalType": "address",
          "name": "collateral",
          "type": "address"
        }
      ],
      "payable": false,
      "stateMutability": "nonpayable",
      "type": "function"
    },
    {
      "constant": false,
      "inputs": [
        {
          "internalType": "address",
          "name": "uniswapV2Pair",
          "type": "address"
        }
      ],
      "name": "createBorrowable0",
      "outputs": [
        {
          "internalType": "address",
          "name": "borrowable0",
          "type": "address"
        }
      ],
      "payable": false,
      "stateMutability": "nonpayable",
      "type": "function"
    },
    {
      "constant": false,
      "inputs": [
        {
          "internalType": "address",
          "name": "uniswapV2Pair",
          "type": "address"
        }
      ],
      "name": "createBorrowable1",
      "outputs": [
        {
          "internalType": "address",
          "name": "borrowable1",
          "type": "address"
        }
      ],
      "payable": false,
      "stateMutability": "nonpayable",
      "type": "function"
    },
    {
      "constant": false,
      "inputs": [
        {
          "internalType": "address",
          "name": "uniswapV2Pair",
          "type": "address"
        }
      ],
      "name": "initializeLendingPool",
      "outputs": [],
      "payable": false,
      "stateMutability": "nonpayable",
      "type": "function"
    },
    {
      "constant": false,
      "inputs": [
        {
          "internalType": "address",
          "name": "newPendingAdmin",
          "type": "address"
        }
      ],
      "name": "_setPendingAdmin",
      "outputs": [],
      "payable": false,
      "stateMutability": "nonpayable",
      "type": "function"
    },
    {
      "constant": false,
      "inputs": [],
      "name": "_acceptAdmin",
      "outputs": [],
      "payable": false,
      "stateMutability": "nonpayable",
      "type": "function"
    },
    {
      "constant": false,
      "inputs": [
        {
          "internalType": "address",
          "name": "newReservesManager",
          "type": "address"
        }
      ],
      "name": "_setReservesManager",
      "outputs": [],
      "payable": false,
      "stateMutability": "nonpayable",
      "type": "function"
    },
    {
      "constant": true,
      "inputs": [
        {
          "internalType": "uint256",
          "name": "_i",
          "type": "uint256"
        }
      ],
      "name": "uint2str",
      "outputs": [
        {
          "internalType": "string",
          "name": "_uintAsString",
          "type": "string"
        }
      ],
      "payable": false,
      "stateMutability": "pure",
      "type": "function"
    }
  ],
  "bytecode": "0x608060405234801561001057600080fd5b50604051613957380380613957833981810160405260a081101561003357600080fd5b810190808051906020019092919080519060200190929190805190602001909291908051906020019092919080519060200190929190505050846000806101000a81548173ffffffffffffffffffffffffffffffffffffffff021916908373ffffffffffffffffffffffffffffffffffffffff16021790555083600560006101000a81548173ffffffffffffffffffffffffffffffffffffffff021916908373ffffffffffffffffffffffffffffffffffffffff16021790555082600660006101000a81548173ffffffffffffffffffffffffffffffffffffffff021916908373ffffffffffffffffffffffffffffffffffffffff16021790555081600760006101000a81548173ffffffffffffffffffffffffffffffffffffffff021916908373ffffffffffffffffffffffffffffffffffffffff16021790555080600860006101000a81548173ffffffffffffffffffffffffffffffffffffffff021916908373ffffffffffffffffffffffffffffffffffffffff1602179055507ff9ffabca9c8276e99321725bcb43fb076a6c66a54b7f21c4e8146d8519b417dc600086604051808373ffffffffffffffffffffffffffffffffffffffff1673ffffffffffffffffffffffffffffffffffffffff1681526020018273ffffffffffffffffffffffffffffffffffffffff1673ffffffffffffffffffffffffffffffffffffffff1681526020019250505060405180910390a150505050506136fb8061025c6000396000f3fe608060405234801561001057600080fd5b50600436106101165760003560e01c8063b658ca75116100a2578063db5a269011610071578063db5a269014610633578063e9c714f21461067d578063eb5ab75f14610687578063f76f950e146106cb578063f851a4401461077257610116565b8063b658ca75146104b9578063b71d1a0c146104fd578063cbed6d7114610541578063d4071127146105c557610116565b806349a78838116100e957806349a788381461033957806359d0f713146103bd578063714c0206146104075780637a4660d5146104255780637c6674b51461046f57610116565b80630572bf5f1461011b57806323c6145d1461022157806326782247146102a5578063345ef941146102ef575b600080fd5b61015d6004803603602081101561013157600080fd5b81019080803573ffffffffffffffffffffffffffffffffffffffff1690602001909291905050506107bc565b60405180861515151581526020018562ffffff1662ffffff1681526020018473ffffffffffffffffffffffffffffffffffffffff1673ffffffffffffffffffffffffffffffffffffffff1681526020018373ffffffffffffffffffffffffffffffffffffffff1673ffffffffffffffffffffffffffffffffffffffff1681526020018273ffffffffffffffffffffffffffffffffffffffff1673ffffffffffffffffffffffffffffffffffffffff1681526020019550505050505060405180910390f35b6102636004803603602081101561023757600080fd5b81019080803573ffffffffffffffffffffffffffffffffffffffff16906020019092919050505061086e565b604051808273ffffffffffffffffffffffffffffffffffffffff1673ffffffffffffffffffffffffffffffffffffffff16815260200191505060405180910390f35b6102ad610b4c565b604051808273ffffffffffffffffffffffffffffffffffffffff1673ffffffffffffffffffffffffffffffffffffffff16815260200191505060405180910390f35b6102f7610b72565b604051808273ffffffffffffffffffffffffffffffffffffffff1673ffffffffffffffffffffffffffffffffffffffff16815260200191505060405180910390f35b61037b6004803603602081101561034f57600080fd5b81019080803573ffffffffffffffffffffffffffffffffffffffff169060200190929190505050610b98565b604051808273ffffffffffffffffffffffffffffffffffffffff1673ffffffffffffffffffffffffffffffffffffffff16815260200191505060405180910390f35b6103c5610e82565b604051808273ffffffffffffffffffffffffffffffffffffffff1673ffffffffffffffffffffffffffffffffffffffff16815260200191505060405180910390f35b61040f610ea8565b6040518082815260200191505060405180910390f35b61042d610eb5565b604051808273ffffffffffffffffffffffffffffffffffffffff1673ffffffffffffffffffffffffffffffffffffffff16815260200191505060405180910390f35b610477610edb565b604051808273ffffffffffffffffffffffffffffffffffffffff1673ffffffffffffffffffffffffffffffffffffffff16815260200191505060405180910390f35b6104fb600480360360208110156104cf57600080fd5b81019080803573ffffffffffffffffffffffffffffffffffffffff169060200190929190505050610f01565b005b61053f6004803603602081101561051357600080fd5b81019080803573ffffffffffffffffffffffffffffffffffffffff169060200190929190505050612558565b005b6105836004803603602081101561055757600080fd5b81019080803573ffffffffffffffffffffffffffffffffffffffff16906020019092919050505061271d565b604051808273ffffffffffffffffffffffffffffffffffffffff1673ffffffffffffffffffffffffffffffffffffffff16815260200191505060405180910390f35b6105f1600480360360208110156105db57600080fd5b8101908080359060200190929190505050612a07565b604051808273ffffffffffffffffffffffffffffffffffffffff1673ffffffffffffffffffffffffffffffffffffffff16815260200191505060405180910390f35b61063b612a43565b604051808273ffffffffffffffffffffffffffffffffffffffff1673ffffffffffffffffffffffffffffffffffffffff16815260200191505060405180910390f35b610685612a69565b005b6106c96004803603602081101561069d57600080fd5b81019080803573ffffffffffffffffffffffffffffffffffffffff169060200190929190505050612d71565b005b6106f7600480360360208110156106e157600080fd5b8101908080359060200190929190505050612f36565b6040518080602001828103825283818151815260200191508051906020019080838360005b8381101561073757808201518184015260208101905061071c565b50505050905090810190601f1680156107645780820380516001836020036101000a031916815260200191505b509250505060405180910390f35b61077a613063565b604051808273ffffffffffffffffffffffffffffffffffffffff1673ffffffffffffffffffffffffffffffffffffffff16815260200191505060405180910390f35b60036020528060005260406000206000915090508060000160009054906101000a900460ff16908060000160019054906101000a900462ffffff16908060000160049054906101000a900473ffffffffffffffffffffffffffffffffffffffff16908060010160009054906101000a900473ffffffffffffffffffffffffffffffffffffffff16908060020160009054906101000a900473ffffffffffffffffffffffffffffffffffffffff16905085565b600061087982613088565b5050600073ffffffffffffffffffffffffffffffffffffffff16600360008473ffffffffffffffffffffffffffffffffffffffff1673ffffffffffffffffffffffffffffffffffffffff16815260200190815260200160002060000160049054906101000a900473ffffffffffffffffffffffffffffffffffffffff1673ffffffffffffffffffffffffffffffffffffffff161461097f576040517f08c379a00000000000000000000000000000000000000000000000000000000081526004018080602001828103825260188152602001807f496d7065726d61783a20414c52454144595f455849535453000000000000000081525060200191505060405180910390fd5b600660009054906101000a900473ffffffffffffffffffffffffffffffffffffffff1673ffffffffffffffffffffffffffffffffffffffff16637924fedd836040518263ffffffff1660e01b8152600401808273ffffffffffffffffffffffffffffffffffffffff1673ffffffffffffffffffffffffffffffffffffffff168152602001915050602060405180830381600087803b158015610a2057600080fd5b505af1158015610a34573d6000803e3d6000fd5b505050506040513d6020811015610a4a57600080fd5b810190808051906020019092919050505090508073ffffffffffffffffffffffffffffffffffffffff16634a5d316c6040518163ffffffff1660e01b8152600401600060405180830381600087803b158015610aa557600080fd5b505af1158015610ab9573d6000803e3d6000fd5b50505050610ac682613344565b80600360008473ffffffffffffffffffffffffffffffffffffffff1673ffffffffffffffffffffffffffffffffffffffff16815260200190815260200160002060000160046101000a81548173ffffffffffffffffffffffffffffffffffffffff021916908373ffffffffffffffffffffffffffffffffffffffff160217905550919050565b600160009054906101000a900473ffffffffffffffffffffffffffffffffffffffff1681565b600260009054906101000a900473ffffffffffffffffffffffffffffffffffffffff1681565b6000610ba382613088565b5050600073ffffffffffffffffffffffffffffffffffffffff16600360008473ffffffffffffffffffffffffffffffffffffffff1673ffffffffffffffffffffffffffffffffffffffff16815260200190815260200160002060010160009054906101000a900473ffffffffffffffffffffffffffffffffffffffff1673ffffffffffffffffffffffffffffffffffffffff1614610ca9576040517f08c379a00000000000000000000000000000000000000000000000000000000081526004018080602001828103825260188152602001807f496d7065726d61783a20414c52454144595f455849535453000000000000000081525060200191505060405180910390fd5b600560009054906101000a900473ffffffffffffffffffffffffffffffffffffffff1673ffffffffffffffffffffffffffffffffffffffff166354bcd7ad8360006040518363ffffffff1660e01b8152600401808373ffffffffffffffffffffffffffffffffffffffff1673ffffffffffffffffffffffffffffffffffffffff1681526020018260ff16815260200192505050602060405180830381600087803b158015610d5657600080fd5b505af1158015610d6a573d6000803e3d6000fd5b505050506040513d6020811015610d8057600080fd5b810190808051906020019092919050505090508073ffffffffffffffffffffffffffffffffffffffff16634a5d316c6040518163ffffffff1660e01b8152600401600060405180830381600087803b158015610ddb57600080fd5b505af1158015610def573d6000803e3d6000fd5b50505050610dfc82613344565b80600360008473ffffffffffffffffffffffffffffffffffffffff1673ffffffffffffffffffffffffffffffffffffffff16815260200190815260200160002060010160006101000a81548173ffffffffffffffffffffffffffffffffffffffff021916908373ffffffffffffffffffffffffffffffffffffffff160217905550919050565b600760009054906101000a900473ffffffffffffffffffffffffffffffffffffffff1681565b6000600480549050905090565b600660009054906101000a900473ffffffffffffffffffffffffffffffffffffffff1681565b600860009054906101000a900473ffffffffffffffffffffffffffffffffffffffff1681565b600080610f0d83613088565b91509150610f196135e6565b600360008573ffffffffffffffffffffffffffffffffffffffff1673ffffffffffffffffffffffffffffffffffffffff1681526020019081526020016000206040518060a00160405290816000820160009054906101000a900460ff161515151581526020016000820160019054906101000a900462ffffff1662ffffff1662ffffff1681526020016000820160049054906101000a900473ffffffffffffffffffffffffffffffffffffffff1673ffffffffffffffffffffffffffffffffffffffff1673ffffffffffffffffffffffffffffffffffffffff1681526020016001820160009054906101000a900473ffffffffffffffffffffffffffffffffffffffff1673ffffffffffffffffffffffffffffffffffffffff1673ffffffffffffffffffffffffffffffffffffffff1681526020016002820160009054906101000a900473ffffffffffffffffffffffffffffffffffffffff1673ffffffffffffffffffffffffffffffffffffffff1673ffffffffffffffffffffffffffffffffffffffff1681525050905080600001511561111d576040517f08c379a000000000000000000000000000000000000000000000000000000000815260040180806020018281038252601d8152602001807f496d7065726d61783a20414c52454144595f494e495449414c495a454400000081525060200191505060405180910390fd5b600073ffffffffffffffffffffffffffffffffffffffff16816040015173ffffffffffffffffffffffffffffffffffffffff1614156111a7576040517f08c379a00000000000000000000000000000000000000000000000000000000081526004018080602001828103825260268152602001806136806026913960400191505060405180910390fd5b600073ffffffffffffffffffffffffffffffffffffffff16816060015173ffffffffffffffffffffffffffffffffffffffff161415611231576040517f08c379a00000000000000000000000000000000000000000000000000000000081526004018080602001828103825260218152602001806136a66021913960400191505060405180910390fd5b600073ffffffffffffffffffffffffffffffffffffffff16816080015173ffffffffffffffffffffffffffffffffffffffff1614156112bb576040517f08c379a000000000000000000000000000000000000000000000000000000000815260040180806020018281038252602181526020018061365f6021913960400191505060405180910390fd5b6000600860009054906101000a900473ffffffffffffffffffffffffffffffffffffffff1673ffffffffffffffffffffffffffffffffffffffff16631a788a02866040518263ffffffff1660e01b8152600401808273ffffffffffffffffffffffffffffffffffffffff1673ffffffffffffffffffffffffffffffffffffffff16815260200191505060c06040518083038186803b15801561135c57600080fd5b505afa158015611370573d6000803e3d6000fd5b505050506040513d60c081101561138657600080fd5b81019080805190602001909291908051906020019092919080519060200190929190805190602001909291908051906020019092919080519060200190929190505050955050505050508061148f57600860009054906101000a900473ffffffffffffffffffffffffffffffffffffffff1673ffffffffffffffffffffffffffffffffffffffff1663c4d66de8866040518263ffffffff1660e01b8152600401808273ffffffffffffffffffffffffffffffffffffffff1673ffffffffffffffffffffffffffffffffffffffff168152602001915050600060405180830381600087803b15801561147657600080fd5b505af115801561148a573d6000803e3d6000fd5b505050505b60608473ffffffffffffffffffffffffffffffffffffffff166395d89b416040518163ffffffff1660e01b815260040160006040518083038186803b1580156114d757600080fd5b505afa1580156114eb573d6000803e3d6000fd5b505050506040513d6000823e3d601f19601f82011682018060405250602081101561151557600080fd5b810190808051604051939291908464010000000082111561153557600080fd5b8382019150602082018581111561154b57600080fd5b825186600182028301116401000000008211171561156857600080fd5b8083526020830192505050908051906020019080838360005b8381101561159c578082015181840152602081019050611581565b50505050905090810190601f1680156115c95780820380516001836020036101000a031916815260200191505b50604052505050905060608473ffffffffffffffffffffffffffffffffffffffff166395d89b416040518163ffffffff1660e01b815260040160006040518083038186803b15801561161a57600080fd5b505afa15801561162e573d6000803e3d6000fd5b505050506040513d6000823e3d601f19601f82011682018060405250602081101561165857600080fd5b810190808051604051939291908464010000000082111561167857600080fd5b8382019150602082018581111561168e57600080fd5b82518660018202830111640100000000821117156116ab57600080fd5b8083526020830192505050908051906020019080838360005b838110156116df5780820151818401526020810190506116c4565b50505050905090810190601f16801561170c5780820380516001836020036101000a031916815260200191505b5060405250505090506060611729856020015162ffffff16612f36565b9050606083838360405160200180807f496d7065726d617820556e6956323a200000000000000000000000000000000081525060100184805190602001908083835b6020831061178e578051825260208201915060208101905060208303925061176b565b6001836020036101000a038019825116818451168082178552505050505050905001807f2d0000000000000000000000000000000000000000000000000000000000000081525060010183805190602001908083835b6020831061180757805182526020820191506020810190506020830392506117e4565b6001836020036101000a038019825116818451168082178552505050505050905001807f2d0000000000000000000000000000000000000000000000000000000000000081525060010182805190602001908083835b60208310611880578051825260208201915060208101905060208303925061185d565b6001836020036101000a03801982511681845116808217855250505050505090500193505050506040516020818303038152906040529050606084848460405160200180807f690000000000000000000000000000000000000000000000000000000000000081525060010184805190602001908083835b6020831061191b57805182526020820191506020810190506020830392506118f8565b6001836020036101000a038019825116818451168082178552505050505050905001807f2d0000000000000000000000000000000000000000000000000000000000000081525060010183805190602001908083835b602083106119945780518252602082019150602081019050602083039250611971565b6001836020036101000a038019825116818451168082178552505050505050905001807f2d0000000000000000000000000000000000000000000000000000000000000081525060010182805190602001908083835b60208310611a0d57805182526020820191506020810190506020830392506119ea565b6001836020036101000a03801982511681845116808217855250505050505090500193505050506040516020818303038152906040529050866040015173ffffffffffffffffffffffffffffffffffffffff1663c548e3c583838d8b606001518c608001516040518663ffffffff1660e01b81526004018080602001806020018673ffffffffffffffffffffffffffffffffffffffff1673ffffffffffffffffffffffffffffffffffffffff1681526020018573ffffffffffffffffffffffffffffffffffffffff1673ffffffffffffffffffffffffffffffffffffffff1681526020018473ffffffffffffffffffffffffffffffffffffffff1673ffffffffffffffffffffffffffffffffffffffff168152602001838103835288818151815260200191508051906020019080838360005b83811015611b5b578082015181840152602081019050611b40565b50505050905090810190601f168015611b885780820380516001836020036101000a031916815260200191505b50838103825287818151815260200191508051906020019080838360005b83811015611bc1578082015181840152602081019050611ba6565b50505050905090810190601f168015611bee5780820380516001836020036101000a031916815260200191505b50975050505050505050600060405180830381600087803b158015611c1257600080fd5b505af1158015611c26573d6000803e3d6000fd5b50505050848360405160200180807f496d7065726d617820556e6956323a200000000000000000000000000000000081525060100183805190602001908083835b60208310611c8a5780518252602082019150602081019050602083039250611c67565b6001836020036101000a038019825116818451168082178552505050505050905001807f2d0000000000000000000000000000000000000000000000000000000000000081525060010182805190602001908083835b60208310611d035780518252602082019150602081019050602083039250611ce0565b6001836020036101000a038019825116818451168082178552505050505050905001925050506040516020818303038152906040529150848360405160200180807f690000000000000000000000000000000000000000000000000000000000000081525060010183805190602001908083835b60208310611d9a5780518252602082019150602081019050602083039250611d77565b6001836020036101000a038019825116818451168082178552505050505050905001807f2d0000000000000000000000000000000000000000000000000000000000000081525060010182805190602001908083835b60208310611e135780518252602082019150602081019050602083039250611df0565b6001836020036101000a038019825116818451168082178552505050505050905001925050506040516020818303038152906040529050866060015173ffffffffffffffffffffffffffffffffffffffff16636a030c1183838c8b604001516040518563ffffffff1660e01b81526004018080602001806020018573ffffffffffffffffffffffffffffffffffffffff1673ffffffffffffffffffffffffffffffffffffffff1681526020018473ffffffffffffffffffffffffffffffffffffffff1673ffffffffffffffffffffffffffffffffffffffff168152602001838103835287818151815260200191508051906020019080838360005b83811015611f29578082015181840152602081019050611f0e565b50505050905090810190601f168015611f565780820380516001836020036101000a031916815260200191505b50838103825286818151815260200191508051906020019080838360005b83811015611f8f578082015181840152602081019050611f74565b50505050905090810190601f168015611fbc5780820380516001836020036101000a031916815260200191505b509650505050505050600060405180830381600087803b158015611fdf57600080fd5b505af1158015611ff3573d6000803e3d6000fd5b50505050838360405160200180807f496d7065726d617820556e6956323a200000000000000000000000000000000081525060100183805190602001908083835b602083106120575780518252602082019150602081019050602083039250612034565b6001836020036101000a038019825116818451168082178552505050505050905001807f2d0000000000000000000000000000000000000000000000000000000000000081525060010182805190602001908083835b602083106120d057805182526020820191506020810190506020830392506120ad565b6001836020036101000a038019825116818451168082178552505050505050905001925050506040516020818303038152906040529150838360405160200180807f690000000000000000000000000000000000000000000000000000000000000081525060010183805190602001908083835b602083106121675780518252602082019150602081019050602083039250612144565b6001836020036101000a038019825116818451168082178552505050505050905001807f2d0000000000000000000000000000000000000000000000000000000000000081525060010182805190602001908083835b602083106121e057805182526020820191506020810190506020830392506121bd565b6001836020036101000a038019825116818451168082178552505050505050905001925050506040516020818303038152906040529050866080015173ffffffffffffffffffffffffffffffffffffffff16636a030c1183838b8b604001516040518563ffffffff1660e01b81526004018080602001806020018573ffffffffffffffffffffffffffffffffffffffff1673ffffffffffffffffffffffffffffffffffffffff1681526020018473ffffffffffffffffffffffffffffffffffffffff1673ffffffffffffffffffffffffffffffffffffffff168152602001838103835287818151815260200191508051906020019080838360005b838110156122f65780820151818401526020810190506122db565b50505050905090810190601f1680156123235780820380516001836020036101000a031916815260200191505b50838103825286818151815260200191508051906020019080838360005b8381101561235c578082015181840152602081019050612341565b50505050905090810190601f1680156123895780820380516001836020036101000a031916815260200191505b509650505050505050600060405180830381600087803b1580156123ac57600080fd5b505af11580156123c0573d6000803e3d6000fd5b505050506001600360008c73ffffffffffffffffffffffffffffffffffffffff1673ffffffffffffffffffffffffffffffffffffffff16815260200190815260200160002060000160006101000a81548160ff0219169083151502179055508773ffffffffffffffffffffffffffffffffffffffff168973ffffffffffffffffffffffffffffffffffffffff168b73ffffffffffffffffffffffffffffffffffffffff167f4c3ab495dc8ebd1b2f3232d7632e54411bc7e4d111475e7fbbd5547d9a28c4958a604001518b606001518c608001518d60200151604051808573ffffffffffffffffffffffffffffffffffffffff1673ffffffffffffffffffffffffffffffffffffffff1681526020018473ffffffffffffffffffffffffffffffffffffffff1673ffffffffffffffffffffffffffffffffffffffff1681526020018373ffffffffffffffffffffffffffffffffffffffff1673ffffffffffffffffffffffffffffffffffffffff1681526020018262ffffff16815260200194505050505060405180910390a450505050505050505050565b6000809054906101000a900473ffffffffffffffffffffffffffffffffffffffff1673ffffffffffffffffffffffffffffffffffffffff163373ffffffffffffffffffffffffffffffffffffffff161461261a576040517f08c379a00000000000000000000000000000000000000000000000000000000081526004018080602001828103825260168152602001807f496d7065726d61783a20554e415554484f52495a45440000000000000000000081525060200191505060405180910390fd5b6000600160009054906101000a900473ffffffffffffffffffffffffffffffffffffffff16905081600160006101000a81548173ffffffffffffffffffffffffffffffffffffffff021916908373ffffffffffffffffffffffffffffffffffffffff1602179055507fca4f2f25d0898edd99413412fb94012f9e54ec8142f9b093e7720646a95b16a98183604051808373ffffffffffffffffffffffffffffffffffffffff1673ffffffffffffffffffffffffffffffffffffffff1681526020018273ffffffffffffffffffffffffffffffffffffffff1673ffffffffffffffffffffffffffffffffffffffff1681526020019250505060405180910390a15050565b600061272882613088565b5050600073ffffffffffffffffffffffffffffffffffffffff16600360008473ffffffffffffffffffffffffffffffffffffffff1673ffffffffffffffffffffffffffffffffffffffff16815260200190815260200160002060020160009054906101000a900473ffffffffffffffffffffffffffffffffffffffff1673ffffffffffffffffffffffffffffffffffffffff161461282e576040517f08c379a00000000000000000000000000000000000000000000000000000000081526004018080602001828103825260188152602001807f496d7065726d61783a20414c52454144595f455849535453000000000000000081525060200191505060405180910390fd5b600560009054906101000a900473ffffffffffffffffffffffffffffffffffffffff1673ffffffffffffffffffffffffffffffffffffffff166354bcd7ad8360016040518363ffffffff1660e01b8152600401808373ffffffffffffffffffffffffffffffffffffffff1673ffffffffffffffffffffffffffffffffffffffff1681526020018260ff16815260200192505050602060405180830381600087803b1580156128db57600080fd5b505af11580156128ef573d6000803e3d6000fd5b505050506040513d602081101561290557600080fd5b810190808051906020019092919050505090508073ffffffffffffffffffffffffffffffffffffffff16634a5d316c6040518163ffffffff1660e01b8152600401600060405180830381600087803b15801561296057600080fd5b505af1158015612974573d6000803e3d6000fd5b5050505061298182613344565b80600360008473ffffffffffffffffffffffffffffffffffffffff1673ffffffffffffffffffffffffffffffffffffffff16815260200190815260200160002060020160006101000a81548173ffffffffffffffffffffffffffffffffffffffff021916908373ffffffffffffffffffffffffffffffffffffffff160217905550919050565b60048181548110612a1457fe5b906000526020600020016000915054906101000a900473ffffffffffffffffffffffffffffffffffffffff1681565b600560009054906101000a900473ffffffffffffffffffffffffffffffffffffffff1681565b600160009054906101000a900473ffffffffffffffffffffffffffffffffffffffff1673ffffffffffffffffffffffffffffffffffffffff163373ffffffffffffffffffffffffffffffffffffffff1614612b2c576040517f08c379a00000000000000000000000000000000000000000000000000000000081526004018080602001828103825260168152602001807f496d7065726d61783a20554e415554484f52495a45440000000000000000000081525060200191505060405180910390fd5b60008060009054906101000a900473ffffffffffffffffffffffffffffffffffffffff1690506000600160009054906101000a900473ffffffffffffffffffffffffffffffffffffffff169050600160009054906101000a900473ffffffffffffffffffffffffffffffffffffffff166000806101000a81548173ffffffffffffffffffffffffffffffffffffffff021916908373ffffffffffffffffffffffffffffffffffffffff1602179055506000600160006101000a81548173ffffffffffffffffffffffffffffffffffffffff021916908373ffffffffffffffffffffffffffffffffffffffff1602179055507ff9ffabca9c8276e99321725bcb43fb076a6c66a54b7f21c4e8146d8519b417dc826000809054906101000a900473ffffffffffffffffffffffffffffffffffffffff16604051808373ffffffffffffffffffffffffffffffffffffffff1673ffffffffffffffffffffffffffffffffffffffff1681526020018273ffffffffffffffffffffffffffffffffffffffff1673ffffffffffffffffffffffffffffffffffffffff1681526020019250505060405180910390a17fca4f2f25d0898edd99413412fb94012f9e54ec8142f9b093e7720646a95b16a9816000604051808373ffffffffffffffffffffffffffffffffffffffff1673ffffffffffffffffffffffffffffffffffffffff1681526020018273ffffffffffffffffffffffffffffffffffffffff1673ffffffffffffffffffffffffffffffffffffffff1681526020019250505060405180910390a15050565b6000809054906101000a900473ffffffffffffffffffffffffffffffffffffffff1673ffffffffffffffffffffffffffffffffffffffff163373ffffffffffffffffffffffffffffffffffffffff1614612e33576040517f08c379a00000000000000000000000000000000000000000000000000000000081526004018080602001828103825260168152602001807f496d7065726d61783a20554e415554484f52495a45440000000000000000000081525060200191505060405180910390fd5b6000600260009054906101000a900473ffffffffffffffffffffffffffffffffffffffff16905081600260006101000a81548173ffffffffffffffffffffffffffffffffffffffff021916908373ffffffffffffffffffffffffffffffffffffffff1602179055507f324bacfad26225895fcf55780481bec4ce49013c92500fa1c25626ff43fbf6618183604051808373ffffffffffffffffffffffffffffffffffffffff1673ffffffffffffffffffffffffffffffffffffffff1681526020018273ffffffffffffffffffffffffffffffffffffffff1673ffffffffffffffffffffffffffffffffffffffff1681526020019250505060405180910390a15050565b60606000821415612f7e576040518060400160405280600181526020017f3000000000000000000000000000000000000000000000000000000000000000815250905061305e565b600082905060005b60008214612fa8578080600101915050600a8281612fa057fe5b049150612f86565b6060816040519080825280601f01601f191660200182016040528015612fdd5781602001600182028038833980820191505090505b50905060006001830390505b6000861461305657600a8681612ffb57fe5b0660300160f81b8282806001900393508151811061301557fe5b60200101907effffffffffffffffffffffffffffffffffffffffffffffffffffffffffffff1916908160001a905350600a868161304e57fe5b049550612fe9565b819450505050505b919050565b6000809054906101000a900473ffffffffffffffffffffffffffffffffffffffff1681565b6000808273ffffffffffffffffffffffffffffffffffffffff16630dfe16816040518163ffffffff1660e01b815260040160206040518083038186803b1580156130d157600080fd5b505afa1580156130e5573d6000803e3d6000fd5b505050506040513d60208110156130fb57600080fd5b810190808051906020019092919050505091508273ffffffffffffffffffffffffffffffffffffffff1663d21220a76040518163ffffffff1660e01b815260040160206040518083038186803b15801561315457600080fd5b505afa158015613168573d6000803e3d6000fd5b505050506040513d602081101561317e57600080fd5b810190808051906020019092919050505090508273ffffffffffffffffffffffffffffffffffffffff16600760009054906101000a900473ffffffffffffffffffffffffffffffffffffffff1673ffffffffffffffffffffffffffffffffffffffff1663e6a4390584846040518363ffffffff1660e01b8152600401808373ffffffffffffffffffffffffffffffffffffffff1673ffffffffffffffffffffffffffffffffffffffff1681526020018273ffffffffffffffffffffffffffffffffffffffff1673ffffffffffffffffffffffffffffffffffffffff1681526020019250505060206040518083038186803b15801561327b57600080fd5b505afa15801561328f573d6000803e3d6000fd5b505050506040513d60208110156132a557600080fd5b810190808051906020019092919050505073ffffffffffffffffffffffffffffffffffffffff161461333f576040517f08c379a00000000000000000000000000000000000000000000000000000000081526004018080602001828103825260188152602001807f496d7065726d61783a204e4f545f554e4956325f50414952000000000000000081525060200191505060405180910390fd5b915091565b6000600360008373ffffffffffffffffffffffffffffffffffffffff1673ffffffffffffffffffffffffffffffffffffffff16815260200190815260200160002060000160019054906101000a900462ffffff1662ffffff16146133a7576135e3565b60048190806001815401808255809150509060018203906000526020600020016000909192909190916101000a81548173ffffffffffffffffffffffffffffffffffffffff021916908373ffffffffffffffffffffffffffffffffffffffff160217905550506040518060a0016040528060001515815260200160048054905062ffffff168152602001600073ffffffffffffffffffffffffffffffffffffffff168152602001600073ffffffffffffffffffffffffffffffffffffffff168152602001600073ffffffffffffffffffffffffffffffffffffffff16815250600360008373ffffffffffffffffffffffffffffffffffffffff1673ffffffffffffffffffffffffffffffffffffffff16815260200190815260200160002060008201518160000160006101000a81548160ff02191690831515021790555060208201518160000160016101000a81548162ffffff021916908362ffffff16021790555060408201518160000160046101000a81548173ffffffffffffffffffffffffffffffffffffffff021916908373ffffffffffffffffffffffffffffffffffffffff16021790555060608201518160010160006101000a81548173ffffffffffffffffffffffffffffffffffffffff021916908373ffffffffffffffffffffffffffffffffffffffff16021790555060808201518160020160006101000a81548173ffffffffffffffffffffffffffffffffffffffff021916908373ffffffffffffffffffffffffffffffffffffffff1602179055509050505b50565b6040518060a00160405280600015158152602001600062ffffff168152602001600073ffffffffffffffffffffffffffffffffffffffff168152602001600073ffffffffffffffffffffffffffffffffffffffff168152602001600073ffffffffffffffffffffffffffffffffffffffff168152509056fe496d7065726d61783a20424f52524f5741424c45315f4e4f545f43524541544544496d7065726d61783a20434f4c4c41544552414c495a41424c455f4e4f545f43524541544544496d7065726d61783a20424f52524f5741424c45305f4e4f545f43524541544544a265627a7a7231582026cb29626ba1ce1002a858636ef2cd40a66e5a71fef283cdcc11b58d23fbc32464736f6c63430005100032",
  "source": "pragma solidity =0.5.16;\r\n\r\nimport \"./interfaces/IFactory.sol\";\r\nimport \"./interfaces/IBDeployer.sol\";\r\nimport \"./interfaces/IBorrowable.sol\";\r\nimport \"./interfaces/ICDeployer.sol\";\r\nimport \"./interfaces/ICollateral.sol\";\r\nimport \"./interfaces/IERC20.sol\";\r\nimport \"./interfaces/IUniswapV2Pair.sol\";\r\nimport \"./interfaces/IUniswapV2Factory.sol\";\r\nimport \"./interfaces/ISimpleUniswapOracle.sol\";\r\n\r\ncontract Factory is IFactory {\r\n\taddress public admin;\r\n\taddress public pendingAdmin;\r\n\taddress public reservesManager;\r\n\t\t\r\n\tstruct LendingPool {\r\n\t\tbool initialized;\r\n\t\tuint24 lendingPoolId;\r\n\t\taddress collateral;\r\n\t\taddress borrowable0;\r\n\t\taddress borrowable1;\r\n\t}\r\n\tmapping(address => LendingPool) public getLendingPool; // get by UniswapV2Pair\r\n\taddress[] public allLendingPools; // address of the UniswapV2Pair\r\n\tfunction allLendingPoolsLength() external view returns (uint) {\r\n\t\treturn allLendingPools.length;\r\n\t}\r\n\t\r\n\tIBDeployer public bDeployer;\r\n\tICDeployer public cDeployer;\r\n\tIUniswapV2Factory public uniswapV2Factory;\r\n\tISimpleUniswapOracle public simpleUniswapOracle;\r\n\t\r\n\tevent LendingPoolInitialized(address indexed uniswapV2Pair, address indexed token0, address indexed token1,\r\n\t\taddress collateral, address borrowable0, address borrowable1, uint lendingPoolId);\r\n\tevent NewPendingAdmin(address oldPendingAdmin, address newPendingAdmin);\r\n\tevent NewAdmin(address oldAdmin, address newAdmin);\r\n\tevent NewReservesManager(address oldReservesManager, address newReservesManager);\r\n\t\r\n\tconstructor(address _admin, IBDeployer _bDeployer, ICDeployer _cDeployer, IUniswapV2Factory _uniswapV2Factory, ISimpleUniswapOracle _simpleUniswapOracle) public {\r\n\t\tadmin = _admin;\r\n\t\tbDeployer = _bDeployer;\r\n\t\tcDeployer = _cDeployer;\r\n\t\tuniswapV2Factory = _uniswapV2Factory;\r\n\t\tsimpleUniswapOracle = _simpleUniswapOracle;\r\n\t\temit NewAdmin(address(0), _admin);\r\n\t}\r\n\t\r\n\tfunction _getTokens(address uniswapV2Pair) private view returns (address token0, address token1) {\r\n\t\ttoken0 = IUniswapV2Pair(uniswapV2Pair).token0();\r\n\t\ttoken1 = IUniswapV2Pair(uniswapV2Pair).token1();\r\n\t\trequire(uniswapV2Factory.getPair(token0, token1) == uniswapV2Pair, \"Impermax: NOT_UNIV2_PAIR\");\r\n\t}\r\n\t\r\n\tfunction _createLendingPool(address uniswapV2Pair) private {\r\n\t\tif (getLendingPool[uniswapV2Pair].lendingPoolId != 0) return;\r\n\t\tallLendingPools.push(uniswapV2Pair);\t\t\r\n\t\tgetLendingPool[uniswapV2Pair] = LendingPool(false, uint24(allLendingPools.length), address(0), address(0), address(0));\r\n\t}\r\n\t\r\n\tfunction createCollateral(address uniswapV2Pair) external returns (address collateral) {\r\n\t\t_getTokens(uniswapV2Pair);\r\n\t\trequire(getLendingPool[uniswapV2Pair].collateral == address(0), \"Impermax: ALREADY_EXISTS\");\t\t\r\n\t\tcollateral = cDeployer.deployCollateral(uniswapV2Pair);\r\n\t\tICollateral(collateral)._setFactory();\r\n\t\t_createLendingPool(uniswapV2Pair);\r\n\t\tgetLendingPool[uniswapV2Pair].collateral = collateral;\r\n\t}\r\n\t\r\n\tfunction createBorrowable0(address uniswapV2Pair) external returns (address borrowable0) {\r\n\t\t_getTokens(uniswapV2Pair);\r\n\t\trequire(getLendingPool[uniswapV2Pair].borrowable0 == address(0), \"Impermax: ALREADY_EXISTS\");\t\t\r\n\t\tborrowable0 = bDeployer.deployBorrowable(uniswapV2Pair, 0);\r\n\t\tIBorrowable(borrowable0)._setFactory();\r\n\t\t_createLendingPool(uniswapV2Pair);\r\n\t\tgetLendingPool[uniswapV2Pair].borrowable0 = borrowable0;\r\n\t}\r\n\t\r\n\tfunction createBorrowable1(address uniswapV2Pair) external returns (address borrowable1) {\r\n\t\t_getTokens(uniswapV2Pair);\r\n\t\trequire(getLendingPool[uniswapV2Pair].borrowable1 == address(0), \"Impermax: ALREADY_EXISTS\");\t\t\r\n\t\tborrowable1 = bDeployer.deployBorrowable(uniswapV2Pair, 1);\r\n\t\tIBorrowable(borrowable1)._setFactory();\r\n\t\t_createLendingPool(uniswapV2Pair);\r\n\t\tgetLendingPool[uniswapV2Pair].borrowable1 = borrowable1;\r\n\t}\r\n\t\r\n\tfunction initializeLendingPool(address uniswapV2Pair) external {\r\n\t\t(address token0, address token1) = _getTokens(uniswapV2Pair);\r\n\t\tLendingPool memory lPool = getLendingPool[uniswapV2Pair];\r\n\t\trequire(!lPool.initialized, \"Impermax: ALREADY_INITIALIZED\");\r\n\t\t\r\n\t\trequire(lPool.collateral != address(0), \"Impermax: COLLATERALIZABLE_NOT_CREATED\");\r\n\t\trequire(lPool.borrowable0 != address(0), \"Impermax: BORROWABLE0_NOT_CREATED\");\r\n\t\trequire(lPool.borrowable1 != address(0), \"Impermax: BORROWABLE1_NOT_CREATED\");\r\n\t\t\r\n\t\t(,,,,,bool oracleInitialized) = simpleUniswapOracle.getPair(uniswapV2Pair);\r\n\t\tif (!oracleInitialized) simpleUniswapOracle.initialize(uniswapV2Pair);\r\n\t\t\r\n\t\tstring memory token0Symbol = IERC20(token0).symbol();\r\n\t\tstring memory token1Symbol = IERC20(token1).symbol();\r\n\t\tstring memory lendingPoolId = uint2str(lPool.lendingPoolId);\r\n\t\t\r\n\t\tstring memory name = string(abi.encodePacked(\"Impermax UniV2: \", token0Symbol, \"-\", token1Symbol, \"-\", lendingPoolId));\r\n\t\tstring memory symbol = string(abi.encodePacked(\"i\", token0Symbol, \"-\", token1Symbol, \"-\", lendingPoolId));\r\n\t\tICollateral(lPool.collateral)._initialize(name, symbol, uniswapV2Pair, lPool.borrowable0, lPool.borrowable1);\r\n\t\t\r\n\t\tname = string(abi.encodePacked(\"Impermax UniV2: \", token0Symbol, \"-\", lendingPoolId));\r\n\t\tsymbol = string(abi.encodePacked(\"i\", token0Symbol, \"-\", lendingPoolId));\r\n\t\tIBorrowable(lPool.borrowable0)._initialize(name, symbol, token0, lPool.collateral);\r\n\t\t\r\n\t\tname = string(abi.encodePacked(\"Impermax UniV2: \", token1Symbol, \"-\", lendingPoolId));\r\n\t\tsymbol = string(abi.encodePacked(\"i\", token1Symbol, \"-\", lendingPoolId));\r\n\t\tIBorrowable(lPool.borrowable1)._initialize(name, symbol, token1, lPool.collateral);\r\n\t\t\r\n\t\tgetLendingPool[uniswapV2Pair].initialized = true;\r\n\t\temit LendingPoolInitialized(uniswapV2Pair, token0, token1, lPool.collateral, lPool.borrowable0, lPool.borrowable1, lPool.lendingPoolId);\r\n\t}\r\n\t\r\n\tfunction _setPendingAdmin(address newPendingAdmin) external {\r\n\t\trequire(msg.sender == admin, \"Impermax: UNAUTHORIZED\");\r\n\t\taddress oldPendingAdmin = pendingAdmin;\r\n\t\tpendingAdmin = newPendingAdmin;\r\n\t\temit NewPendingAdmin(oldPendingAdmin, newPendingAdmin);\r\n\t}\r\n\r\n\tfunction _acceptAdmin() external {\r\n\t\trequire(msg.sender == pendingAdmin, \"Impermax: UNAUTHORIZED\");\r\n\t\taddress oldAdmin = admin;\r\n\t\taddress oldPendingAdmin = pendingAdmin;\r\n\t\tadmin = pendingAdmin;\r\n\t\tpendingAdmin = address(0);\r\n\t\temit NewAdmin(oldAdmin, admin);\r\n\t\temit NewPendingAdmin(oldPendingAdmin, address(0));\r\n\t}\r\n\r\n\tfunction _setReservesManager(address newReservesManager) external {\r\n\t\trequire(msg.sender == admin, \"Impermax: UNAUTHORIZED\");\r\n\t\taddress oldReservesManager = reservesManager;\r\n\t\treservesManager = newReservesManager;\r\n\t\temit NewReservesManager(oldReservesManager, newReservesManager);\r\n\t}\r\n\t\r\n\tfunction uint2str(uint _i) public pure returns (string memory _uintAsString) {\r\n\t\tif (_i == 0) return \"0\";\r\n\t\tuint j = _i;\r\n\t\tuint len;\r\n\t\twhile (j != 0) {\r\n\t\t\tlen++;\r\n\t\t\tj /= 10;\r\n\t\t}\r\n\t\tbytes memory bstr = new bytes(len);\r\n\t\tuint k = len - 1;\r\n\t\twhile (_i != 0) {\r\n\t\t\tbstr[k--] = byte(uint8(48 + _i % 10));\r\n\t\t\t_i /= 10;\r\n\t\t}\r\n\t\treturn string(bstr);\r\n\t}\r\n}\r\n",
  "sourcePath": "C:/Users/simor/Desktop/impermax-x-uniswapv2-periphery/test/Contracts/imx-univ2-core/Factory.sol",
  "compiler": {
    "name": "solc",
    "version": "0.5.16+commit.9c3226ce.Emscripten.clang"
  },
  "schemaVersion": "3.3.2",
  "updatedAt": "2021-01-09T21:19:45.608Z",
  "networkType": "ethereum",
  "devdoc": {
    "methods": {}
  },
  "userdoc": {
    "methods": {}
  }
}