{
  "contractName": "Router01",
  "abi": [
    {
      "inputs": [
        {
          "internalType": "address",
          "name": "_factory",
          "type": "address"
        },
        {
          "internalType": "address",
          "name": "_bDeployer",
          "type": "address"
        },
        {
          "internalType": "address",
          "name": "_cDeployer",
          "type": "address"
        },
        {
          "internalType": "address",
          "name": "_WETH",
          "type": "address"
        }
      ],
      "stateMutability": "nonpayable",
      "type": "constructor"
    },
    {
      "inputs": [],
      "name": "WETH",
      "outputs": [
        {
          "internalType": "address",
          "name": "",
          "type": "address"
        }
      ],
      "stateMutability": "view",
      "type": "function",
      "constant": true
    },
    {
      "inputs": [],
      "name": "bDeployer",
      "outputs": [
        {
          "internalType": "address",
          "name": "",
          "type": "address"
        }
      ],
      "stateMutability": "view",
      "type": "function",
      "constant": true
    },
    {
      "inputs": [],
      "name": "cDeployer",
      "outputs": [
        {
          "internalType": "address",
          "name": "",
          "type": "address"
        }
      ],
      "stateMutability": "view",
      "type": "function",
      "constant": true
    },
    {
      "inputs": [],
      "name": "factory",
      "outputs": [
        {
          "internalType": "address",
          "name": "",
          "type": "address"
        }
      ],
      "stateMutability": "view",
      "type": "function",
      "constant": true
    },
    {
      "stateMutability": "payable",
      "type": "receive",
      "payable": true
    },
    {
      "inputs": [
        {
          "internalType": "address",
          "name": "poolToken",
          "type": "address"
        },
        {
          "internalType": "uint256",
          "name": "amount",
          "type": "uint256"
        },
        {
          "internalType": "address",
          "name": "to",
          "type": "address"
        },
        {
          "internalType": "uint256",
          "name": "deadline",
          "type": "uint256"
        }
      ],
      "name": "mint",
      "outputs": [
        {
          "internalType": "uint256",
          "name": "tokens",
          "type": "uint256"
        }
      ],
      "stateMutability": "nonpayable",
      "type": "function"
    },
    {
      "inputs": [
        {
          "internalType": "address",
          "name": "poolToken",
          "type": "address"
        },
        {
          "internalType": "address",
          "name": "to",
          "type": "address"
        },
        {
          "internalType": "uint256",
          "name": "deadline",
          "type": "uint256"
        }
      ],
      "name": "mintETH",
      "outputs": [
        {
          "internalType": "uint256",
          "name": "tokens",
          "type": "uint256"
        }
      ],
      "stateMutability": "payable",
      "type": "function",
      "payable": true
    },
    {
      "inputs": [
        {
          "internalType": "address",
          "name": "poolToken",
          "type": "address"
        },
        {
          "internalType": "uint256",
          "name": "amount",
          "type": "uint256"
        },
        {
          "internalType": "address",
          "name": "to",
          "type": "address"
        },
        {
          "internalType": "uint256",
          "name": "deadline",
          "type": "uint256"
        },
        {
          "internalType": "bytes",
          "name": "permitData",
          "type": "bytes"
        }
      ],
      "name": "mintCollateral",
      "outputs": [
        {
          "internalType": "uint256",
          "name": "tokens",
          "type": "uint256"
        }
      ],
      "stateMutability": "nonpayable",
      "type": "function"
    },
    {
      "inputs": [
        {
          "internalType": "address",
          "name": "poolToken",
          "type": "address"
        },
        {
          "internalType": "uint256",
          "name": "tokens",
          "type": "uint256"
        },
        {
          "internalType": "address",
          "name": "to",
          "type": "address"
        },
        {
          "internalType": "uint256",
          "name": "deadline",
          "type": "uint256"
        },
        {
          "internalType": "bytes",
          "name": "permitData",
          "type": "bytes"
        }
      ],
      "name": "redeem",
      "outputs": [
        {
          "internalType": "uint256",
          "name": "amount",
          "type": "uint256"
        }
      ],
      "stateMutability": "nonpayable",
      "type": "function"
    },
    {
      "inputs": [
        {
          "internalType": "address",
          "name": "poolToken",
          "type": "address"
        },
        {
          "internalType": "uint256",
          "name": "tokens",
          "type": "uint256"
        },
        {
          "internalType": "address",
          "name": "to",
          "type": "address"
        },
        {
          "internalType": "uint256",
          "name": "deadline",
          "type": "uint256"
        },
        {
          "internalType": "bytes",
          "name": "permitData",
          "type": "bytes"
        }
      ],
      "name": "redeemETH",
      "outputs": [
        {
          "internalType": "uint256",
          "name": "amountETH",
          "type": "uint256"
        }
      ],
      "stateMutability": "nonpayable",
      "type": "function"
    },
    {
      "inputs": [
        {
          "internalType": "address",
          "name": "borrowable",
          "type": "address"
        },
        {
          "internalType": "uint256",
          "name": "amount",
          "type": "uint256"
        },
        {
          "internalType": "address",
          "name": "to",
          "type": "address"
        },
        {
          "internalType": "uint256",
          "name": "deadline",
          "type": "uint256"
        },
        {
          "internalType": "bytes",
          "name": "permitData",
          "type": "bytes"
        }
      ],
      "name": "borrow",
      "outputs": [],
      "stateMutability": "nonpayable",
      "type": "function"
    },
    {
      "inputs": [
        {
          "internalType": "address",
          "name": "borrowable",
          "type": "address"
        },
        {
          "internalType": "uint256",
          "name": "amountETH",
          "type": "uint256"
        },
        {
          "internalType": "address",
          "name": "to",
          "type": "address"
        },
        {
          "internalType": "uint256",
          "name": "deadline",
          "type": "uint256"
        },
        {
          "internalType": "bytes",
          "name": "permitData",
          "type": "bytes"
        }
      ],
      "name": "borrowETH",
      "outputs": [],
      "stateMutability": "nonpayable",
      "type": "function"
    },
    {
      "inputs": [
        {
          "internalType": "address",
          "name": "borrowable",
          "type": "address"
        },
        {
          "internalType": "uint256",
          "name": "amountMax",
          "type": "uint256"
        },
        {
          "internalType": "address",
          "name": "borrower",
          "type": "address"
        },
        {
          "internalType": "uint256",
          "name": "deadline",
          "type": "uint256"
        }
      ],
      "name": "repay",
      "outputs": [
        {
          "internalType": "uint256",
          "name": "amount",
          "type": "uint256"
        }
      ],
      "stateMutability": "nonpayable",
      "type": "function"
    },
    {
      "inputs": [
        {
          "internalType": "address",
          "name": "borrowable",
          "type": "address"
        },
        {
          "internalType": "address",
          "name": "borrower",
          "type": "address"
        },
        {
          "internalType": "uint256",
          "name": "deadline",
          "type": "uint256"
        }
      ],
      "name": "repayETH",
      "outputs": [
        {
          "internalType": "uint256",
          "name": "amountETH",
          "type": "uint256"
        }
      ],
      "stateMutability": "payable",
      "type": "function",
      "payable": true
    },
    {
      "inputs": [
        {
          "internalType": "address",
          "name": "borrowable",
          "type": "address"
        },
        {
          "internalType": "uint256",
          "name": "amountMax",
          "type": "uint256"
        },
        {
          "internalType": "address",
          "name": "borrower",
          "type": "address"
        },
        {
          "internalType": "address",
          "name": "to",
          "type": "address"
        },
        {
          "internalType": "uint256",
          "name": "deadline",
          "type": "uint256"
        }
      ],
      "name": "liquidate",
      "outputs": [
        {
          "internalType": "uint256",
          "name": "amount",
          "type": "uint256"
        },
        {
          "internalType": "uint256",
          "name": "seizeTokens",
          "type": "uint256"
        }
      ],
      "stateMutability": "nonpayable",
      "type": "function"
    },
    {
      "inputs": [
        {
          "internalType": "address",
          "name": "borrowable",
          "type": "address"
        },
        {
          "internalType": "address",
          "name": "borrower",
          "type": "address"
        },
        {
          "internalType": "address",
          "name": "to",
          "type": "address"
        },
        {
          "internalType": "uint256",
          "name": "deadline",
          "type": "uint256"
        }
      ],
      "name": "liquidateETH",
      "outputs": [
        {
          "internalType": "uint256",
          "name": "amountETH",
          "type": "uint256"
        },
        {
          "internalType": "uint256",
          "name": "seizeTokens",
          "type": "uint256"
        }
      ],
      "stateMutability": "payable",
      "type": "function",
      "payable": true
    },
    {
      "inputs": [
        {
          "internalType": "address",
          "name": "uniswapV2Pair",
          "type": "address"
        },
        {
          "internalType": "uint256",
          "name": "amountADesired",
          "type": "uint256"
        },
        {
          "internalType": "uint256",
          "name": "amountBDesired",
          "type": "uint256"
        },
        {
          "internalType": "uint256",
          "name": "amountAMin",
          "type": "uint256"
        },
        {
          "internalType": "uint256",
          "name": "amountBMin",
          "type": "uint256"
        },
        {
          "internalType": "address",
          "name": "to",
          "type": "address"
        },
        {
          "internalType": "uint256",
          "name": "deadline",
          "type": "uint256"
        },
        {
          "internalType": "bytes",
          "name": "permitDataA",
          "type": "bytes"
        },
        {
          "internalType": "bytes",
          "name": "permitDataB",
          "type": "bytes"
        }
      ],
      "name": "leverage",
      "outputs": [],
      "stateMutability": "nonpayable",
      "type": "function"
    },
    {
      "inputs": [
        {
          "internalType": "address",
          "name": "sender",
          "type": "address"
        },
        {
          "internalType": "address",
          "name": "borrower",
          "type": "address"
        },
        {
          "internalType": "uint256",
          "name": "borrowAmount",
          "type": "uint256"
        },
        {
          "internalType": "bytes",
          "name": "data",
          "type": "bytes"
        }
      ],
      "name": "impermaxBorrow",
      "outputs": [],
      "stateMutability": "nonpayable",
      "type": "function"
    },
    {
      "inputs": [
        {
          "internalType": "address",
          "name": "sender",
          "type": "address"
        },
        {
          "internalType": "uint256",
          "name": "redeemAmount",
          "type": "uint256"
        },
        {
          "internalType": "bytes",
          "name": "data",
          "type": "bytes"
        }
      ],
      "name": "impermaxRedeem",
      "outputs": [],
      "stateMutability": "nonpayable",
      "type": "function"
    },
    {
      "inputs": [
        {
          "internalType": "address",
          "name": "uniswapV2Pair",
          "type": "address"
        },
        {
          "internalType": "uint256",
          "name": "amountADesired",
          "type": "uint256"
        },
        {
          "internalType": "uint256",
          "name": "amountBDesired",
          "type": "uint256"
        },
        {
          "internalType": "uint256",
          "name": "amountAMin",
          "type": "uint256"
        },
        {
          "internalType": "uint256",
          "name": "amountBMin",
          "type": "uint256"
        }
      ],
      "name": "_optimalLiquidity",
      "outputs": [
        {
          "internalType": "uint256",
          "name": "amountA",
          "type": "uint256"
        },
        {
          "internalType": "uint256",
          "name": "amountB",
          "type": "uint256"
        }
      ],
      "stateMutability": "view",
      "type": "function",
      "constant": true
    },
    {
      "inputs": [
        {
          "internalType": "address",
          "name": "uniswapV2Pair",
          "type": "address"
        },
        {
          "internalType": "uint8",
          "name": "index",
          "type": "uint8"
        }
      ],
      "name": "getBorrowable",
      "outputs": [
        {
          "internalType": "address",
          "name": "borrowable",
          "type": "address"
        }
      ],
      "stateMutability": "view",
      "type": "function",
      "constant": true
    },
    {
      "inputs": [
        {
          "internalType": "address",
          "name": "uniswapV2Pair",
          "type": "address"
        }
      ],
      "name": "getCollateral",
      "outputs": [
        {
          "internalType": "address",
          "name": "collateral",
          "type": "address"
        }
      ],
      "stateMutability": "view",
      "type": "function",
      "constant": true
    },
    {
      "inputs": [
        {
          "internalType": "address",
          "name": "uniswapV2Pair",
          "type": "address"
        }
      ],
      "name": "getLendingPool",
      "outputs": [
        {
          "internalType": "address",
          "name": "collateral",
          "type": "address"
        },
        {
          "internalType": "address",
          "name": "borrowableA",
          "type": "address"
        },
        {
          "internalType": "address",
          "name": "borrowableB",
          "type": "address"
        }
      ],
      "stateMutability": "view",
      "type": "function",
      "constant": true
    }
  ],
  "bytecode": "0x6101006040523480156200001257600080fd5b5060405162004e9e38038062004e9e833981810160405281019062000038919062000135565b8373ffffffffffffffffffffffffffffffffffffffff1660808173ffffffffffffffffffffffffffffffffffffffff1660601b815250508273ffffffffffffffffffffffffffffffffffffffff1660a08173ffffffffffffffffffffffffffffffffffffffff1660601b815250508173ffffffffffffffffffffffffffffffffffffffff1660c08173ffffffffffffffffffffffffffffffffffffffff1660601b815250508073ffffffffffffffffffffffffffffffffffffffff1660e08173ffffffffffffffffffffffffffffffffffffffff1660601b8152505050505050620001ef565b6000815190506200012f81620001d5565b92915050565b600080600080608085870312156200014c57600080fd5b60006200015c878288016200011e565b94505060206200016f878288016200011e565b935050604062000182878288016200011e565b925050606062000195878288016200011e565b91505092959194509250565b6000620001ae82620001b5565b9050919050565b600073ffffffffffffffffffffffffffffffffffffffff82169050919050565b620001e081620001a1565b8114620001ec57600080fd5b50565b60805160601c60a05160601c60c05160601c60e05160601c614c136200028b60003980610140528061089152806109175280610a905280610b145280610c8d5280610d115280610d92528061164a52806116c152806117465280611aa15280611cfd5280611d815280611e0252508061177a5280611a00525080611ae95280611fac525080611a215280611ac55280611fcd5250614c136000f3fe6080604052600436106101395760003560e01c80637a4660d5116100ab578063c45a01551161006f578063c45a0155146104df578063db5a26901461050a578063dbe5f2fb14610535578063eb03419a1461055e578063ef974e9c1461058f578063fcb2a895146105cc57610195565b80637a4660d5146103fa578063876d9d9e146104255780639b56d6c91461044e578063acb86cbb1461048b578063ad5c4648146104b457610195565b80633c173a4f116100fd5780633c173a4f146102ac57806343e26448146102e95780635c1e64041461032657806367bf252f146103645780636aee7c1e1461038d578063703de94c146103ca57610195565b80630572bf5f1461019a5780631f1cc5bc146101d95780632b005cfc146102165780632c3445041461025357806335bb10591461027c57610195565b36610195577f000000000000000000000000000000000000000000000000000000000000000073ffffffffffffffffffffffffffffffffffffffff163373ffffffffffffffffffffffffffffffffffffffff161461019357fe5b005b600080fd5b3480156101a657600080fd5b506101c160048036038101906101bc9190613388565b61060a565b6040516101d0939291906145a9565b60405180910390f35b3480156101e557600080fd5b5061020060048036038101906101fb9190613678565b61063b565b60405161020d919061488b565b60405180910390f35b34801561022257600080fd5b5061023d60048036038101906102389190613678565b6107b4565b60405161024a919061488b565b60405180910390f35b34801561025f57600080fd5b5061027a60048036038101906102759190613678565b6109b5565b005b6102966004803603810190610291919061343d565b610bb0565b6040516102a3919061488b565b60405180910390f35b3480156102b857600080fd5b506102d360048036038101906102ce9190613583565b610f1e565b6040516102e0919061488b565b60405180910390f35b3480156102f557600080fd5b50610310600480360381019061030b91906135e6565b610ff9565b60405161031d919061488b565b60405180910390f35b34801561033257600080fd5b5061034d6004803603810190610348919061350c565b61112c565b60405161035b9291906148a6565b60405180910390f35b34801561037057600080fd5b5061038b600480360381019061038691906137ea565b6112a3565b005b34801561039957600080fd5b506103b460048036038101906103af9190613583565b6113cb565b6040516103c1919061488b565b60405180910390f35b6103e460048036038101906103df919061343d565b61156d565b6040516103f1919061488b565b60405180910390f35b34801561040657600080fd5b5061040f611778565b60405161041c91906143db565b60405180910390f35b34801561043157600080fd5b5061044c6004803603810190610447919061348c565b61179c565b005b34801561045a57600080fd5b5061047560048036038101906104709190613388565b6119fc565b60405161048291906143db565b60405180910390f35b34801561049757600080fd5b506104b260048036038101906104ad9190613707565b611a99565b005b3480156104c057600080fd5b506104c9611a9f565b6040516104d691906143db565b60405180910390f35b3480156104eb57600080fd5b506104f4611ac3565b60405161050191906143db565b60405180910390f35b34801561051657600080fd5b5061051f611ae7565b60405161052c91906143db565b60405180910390f35b34801561054157600080fd5b5061055c60048036038101906105579190613678565b611b0b565b005b610578600480360381019061057391906133da565b611c1f565b6040516105869291906148a6565b60405180910390f35b34801561059b57600080fd5b506105b660048036038101906105b191906138ea565b611f62565b6040516105c391906143db565b60405180910390f35b3480156105d857600080fd5b506105f360048036038101906105ee9190613773565b612048565b6040516106019291906148a6565b60405180910390f35b6000806000610618846119fc565b9250610625846000611f62565b9150610632846001611f62565b90509193909250565b60008242811015610681576040517f08c379a00000000000000000000000000000000000000000000000000000000081526004016106789061472c565b60405180910390fd5b61068d878786866121ce565b8673ffffffffffffffffffffffffffffffffffffffff166323b872dd3389896040518463ffffffff1660e01b81526004016106ca939291906144b1565b602060405180830381600087803b1580156106e457600080fd5b505af11580156106f8573d6000803e3d6000fd5b505050506040513d601f19601f8201168201806040525081019061071c9190613926565b508673ffffffffffffffffffffffffffffffffffffffff166395a2251f866040518263ffffffff1660e01b815260040161075691906143db565b602060405180830381600087803b15801561077057600080fd5b505af1158015610784573d6000803e3d6000fd5b505050506040513d601f19601f820116820180604052508101906107a89190613aac565b91505095945050505050565b600082428110156107fa576040517f08c379a00000000000000000000000000000000000000000000000000000000081526004016107f19061472c565b60405180910390fd5b868073ffffffffffffffffffffffffffffffffffffffff16636f307dc36040518163ffffffff1660e01b815260040160206040518083038186803b15801561084157600080fd5b505afa158015610855573d6000803e3d6000fd5b505050506040513d601f19601f8201168201806040525081019061087991906133b1565b73ffffffffffffffffffffffffffffffffffffffff167f000000000000000000000000000000000000000000000000000000000000000073ffffffffffffffffffffffffffffffffffffffff1614610906576040517f08c379a00000000000000000000000000000000000000000000000000000000081526004016108fd906147cc565b60405180910390fd5b610913888830888861063b565b92507f000000000000000000000000000000000000000000000000000000000000000073ffffffffffffffffffffffffffffffffffffffff16632e1a7d4d846040518263ffffffff1660e01b815260040161096e919061488b565b600060405180830381600087803b15801561098857600080fd5b505af115801561099c573d6000803e3d6000fd5b505050506109aa86846122b3565b505095945050505050565b81428110156109f9576040517f08c379a00000000000000000000000000000000000000000000000000000000081526004016109f09061472c565b60405180910390fd5b858073ffffffffffffffffffffffffffffffffffffffff16636f307dc36040518163ffffffff1660e01b815260040160206040518083038186803b158015610a4057600080fd5b505afa158015610a54573d6000803e3d6000fd5b505050506040513d601f19601f82011682018060405250810190610a7891906133b1565b73ffffffffffffffffffffffffffffffffffffffff167f000000000000000000000000000000000000000000000000000000000000000073ffffffffffffffffffffffffffffffffffffffff1614610b05576040517f08c379a0000000000000000000000000000000000000000000000000000000008152600401610afc906147cc565b60405180910390fd5b610b128787308787611b0b565b7f000000000000000000000000000000000000000000000000000000000000000073ffffffffffffffffffffffffffffffffffffffff16632e1a7d4d876040518263ffffffff1660e01b8152600401610b6b919061488b565b600060405180830381600087803b158015610b8557600080fd5b505af1158015610b99573d6000803e3d6000fd5b50505050610ba785876122b3565b50505050505050565b60008142811015610bf6576040517f08c379a0000000000000000000000000000000000000000000000000000000008152600401610bed9061472c565b60405180910390fd5b848073ffffffffffffffffffffffffffffffffffffffff16636f307dc36040518163ffffffff1660e01b815260040160206040518083038186803b158015610c3d57600080fd5b505afa158015610c51573d6000803e3d6000fd5b505050506040513d601f19601f82011682018060405250810190610c7591906133b1565b73ffffffffffffffffffffffffffffffffffffffff167f000000000000000000000000000000000000000000000000000000000000000073ffffffffffffffffffffffffffffffffffffffff1614610d02576040517f08c379a0000000000000000000000000000000000000000000000000000000008152600401610cf9906147cc565b60405180910390fd5b610d0d8634876123b1565b92507f000000000000000000000000000000000000000000000000000000000000000073ffffffffffffffffffffffffffffffffffffffff1663d0e30db0846040518263ffffffff1660e01b81526004016000604051808303818588803b158015610d7757600080fd5b505af1158015610d8b573d6000803e3d6000fd5b50505050507f000000000000000000000000000000000000000000000000000000000000000073ffffffffffffffffffffffffffffffffffffffff1663a9059cbb87856040518363ffffffff1660e01b8152600401610deb929190614663565b602060405180830381600087803b158015610e0557600080fd5b505af1158015610e19573d6000803e3d6000fd5b505050506040513d601f19601f82011682018060405250810190610e3d9190613926565b610e4357fe5b8573ffffffffffffffffffffffffffffffffffffffff16631e7dcc0d86600080600067ffffffffffffffff81118015610e7b57600080fd5b506040519080825280601f01601f191660200182016040528015610eae5781602001600182028036833780820191505090505b506040518563ffffffff1660e01b8152600401610ece949392919061455d565b600060405180830381600087803b158015610ee857600080fd5b505af1158015610efc573d6000803e3d6000fd5b5050505082341115610f1557610f14338434036122b3565b5b50509392505050565b60008142811015610f64576040517f08c379a0000000000000000000000000000000000000000000000000000000008152600401610f5b9061472c565b60405180910390fd5b610fee868773ffffffffffffffffffffffffffffffffffffffff16636f307dc36040518163ffffffff1660e01b815260040160206040518083038186803b158015610fae57600080fd5b505afa158015610fc2573d6000803e3d6000fd5b505050506040513d601f19601f82011682018060405250810190610fe691906133b1565b8733886124b9565b915050949350505050565b6000834281101561103f576040517f08c379a00000000000000000000000000000000000000000000000000000000081526004016110369061472c565b60405180910390fd5b60008873ffffffffffffffffffffffffffffffffffffffff16636f307dc36040518163ffffffff1660e01b815260040160206040518083038186803b15801561108757600080fd5b505afa15801561109b573d6000803e3d6000fd5b505050506040513d601f19601f820116820180604052508101906110bf91906133b1565b905061111181898888888080601f016020809104026020016040519081016040528093929190818152602001838380828437600081840152601f19601f820116905080830192505050505050506125a2565b61111e89828a338b6124b9565b925050509695505050505050565b6000808242811015611173576040517f08c379a000000000000000000000000000000000000000000000000000000000815260040161116a9061472c565b60405180910390fd5b61117e8888886123b1565b92506112098873ffffffffffffffffffffffffffffffffffffffff16636f307dc36040518163ffffffff1660e01b815260040160206040518083038186803b1580156111c957600080fd5b505afa1580156111dd573d6000803e3d6000fd5b505050506040513d601f19601f8201168201806040525081019061120191906133b1565b338a86612687565b8773ffffffffffffffffffffffffffffffffffffffff166386b9d81f87876040518363ffffffff1660e01b8152600401611244929190614534565b602060405180830381600087803b15801561125e57600080fd5b505af1158015611272573d6000803e3d6000fd5b505050506040513d601f19601f820116820180604052508101906112969190613aac565b9150509550959350505050565b84428110156112e7576040517f08c379a00000000000000000000000000000000000000000000000000000000081526004016112de9061472c565b60405180910390fd5b6113416112f58d6000611f62565b8c8888888080601f016020809104026020016040519081016040528093929190818152602001838380828437600081840152601f19601f820116905080830192505050505050506127c1565b61139b61134f8d6001611f62565b8b8886868080601f016020809104026020016040519081016040528093929190818152602001838380828437600081840152601f19601f820116905080830192505050505050506127c1565b6000806113ab8e8e8e8e8e612048565b915091506113bb8e83838c6128a6565b5050505050505050505050505050565b60008142811015611411576040517f08c379a00000000000000000000000000000000000000000000000000000000081526004016114089061472c565b60405180910390fd5b61141c8686866123b1565b91506114a78673ffffffffffffffffffffffffffffffffffffffff16636f307dc36040518163ffffffff1660e01b815260040160206040518083038186803b15801561146757600080fd5b505afa15801561147b573d6000803e3d6000fd5b505050506040513d601f19601f8201168201806040525081019061149f91906133b1565b338885612687565b8573ffffffffffffffffffffffffffffffffffffffff16631e7dcc0d85600080600067ffffffffffffffff811180156114df57600080fd5b506040519080825280601f01601f1916602001820160405280156115125781602001600182028036833780820191505090505b506040518563ffffffff1660e01b8152600401611532949392919061455d565b600060405180830381600087803b15801561154c57600080fd5b505af1158015611560573d6000803e3d6000fd5b5050505050949350505050565b600081428110156115b3576040517f08c379a00000000000000000000000000000000000000000000000000000000081526004016115aa9061472c565b60405180910390fd5b848073ffffffffffffffffffffffffffffffffffffffff16636f307dc36040518163ffffffff1660e01b815260040160206040518083038186803b1580156115fa57600080fd5b505afa15801561160e573d6000803e3d6000fd5b505050506040513d601f19601f8201168201806040525081019061163291906133b1565b73ffffffffffffffffffffffffffffffffffffffff167f000000000000000000000000000000000000000000000000000000000000000073ffffffffffffffffffffffffffffffffffffffff16146116bf576040517f08c379a00000000000000000000000000000000000000000000000000000000081526004016116b6906147cc565b60405180910390fd5b7f000000000000000000000000000000000000000000000000000000000000000073ffffffffffffffffffffffffffffffffffffffff1663d0e30db0346040518263ffffffff1660e01b81526004016000604051808303818588803b15801561172757600080fd5b505af115801561173b573d6000803e3d6000fd5b505050505061176d867f00000000000000000000000000000000000000000000000000000000000000003430896124b9565b925050509392505050565b7f000000000000000000000000000000000000000000000000000000000000000081565b6117a4612f60565b82828101906117b39190613a1c565b90503073ffffffffffffffffffffffffffffffffffffffff168673ffffffffffffffffffffffffffffffffffffffff1614611823576040517f08c379a000000000000000000000000000000000000000000000000000000000815260040161181a9061470c565b60405180910390fd5b600061183782602001518360400151611f62565b90508073ffffffffffffffffffffffffffffffffffffffff163373ffffffffffffffffffffffffffffffffffffffff16146118a7576040517f08c379a000000000000000000000000000000000000000000000000000000000815260040161189e9061468c565b60405180910390fd5b600060018111156118b457fe5b826000015160018111156118c457fe5b141561190e576118d2612fac565b82606001518060200190518101906118ea91906139b2565b90506119088360200151826000015183602001518460400151612abc565b506119f3565b60018081111561191a57fe5b8260000151600181111561192a57fe5b14156119ed57611938612fe3565b826060015180602001905181019061195091906139db565b9050600061196384602001516001611f62565b90508073ffffffffffffffffffffffffffffffffffffffff16631e7dcc0d83600001518460200151856040015186606001516040518563ffffffff1660e01b81526004016119b49493929190614617565b600060405180830381600087803b1580156119ce57600080fd5b505af11580156119e2573d6000803e3d6000fd5b5050505050506119f2565b600080fd5b5b50505050505050565b60007f00000000000000000000000000000000000000000000000000000000000000007f000000000000000000000000000000000000000000000000000000000000000083604051602001611a529291906142d7565b60405160208183030381529060405280519060200120604051602001611a79929190614399565b6040516020818303038152906040528051906020012060001c9050919050565b50505050565b7f000000000000000000000000000000000000000000000000000000000000000081565b7f000000000000000000000000000000000000000000000000000000000000000081565b7f000000000000000000000000000000000000000000000000000000000000000081565b8142811015611b4f576040517f08c379a0000000000000000000000000000000000000000000000000000000008152600401611b469061472c565b60405180910390fd5b611b5b868685856127c1565b8573ffffffffffffffffffffffffffffffffffffffff16631e7dcc0d338688600067ffffffffffffffff81118015611b9257600080fd5b506040519080825280601f01601f191660200182016040528015611bc55781602001600182028036833780820191505090505b506040518563ffffffff1660e01b8152600401611be594939291906144e8565b600060405180830381600087803b158015611bff57600080fd5b505af1158015611c13573d6000803e3d6000fd5b50505050505050505050565b6000808242811015611c66576040517f08c379a0000000000000000000000000000000000000000000000000000000008152600401611c5d9061472c565b60405180910390fd5b868073ffffffffffffffffffffffffffffffffffffffff16636f307dc36040518163ffffffff1660e01b815260040160206040518083038186803b158015611cad57600080fd5b505afa158015611cc1573d6000803e3d6000fd5b505050506040513d601f19601f82011682018060405250810190611ce591906133b1565b73ffffffffffffffffffffffffffffffffffffffff167f000000000000000000000000000000000000000000000000000000000000000073ffffffffffffffffffffffffffffffffffffffff1614611d72576040517f08c379a0000000000000000000000000000000000000000000000000000000008152600401611d69906147cc565b60405180910390fd5b611d7d8834896123b1565b93507f000000000000000000000000000000000000000000000000000000000000000073ffffffffffffffffffffffffffffffffffffffff1663d0e30db0856040518263ffffffff1660e01b81526004016000604051808303818588803b158015611de757600080fd5b505af1158015611dfb573d6000803e3d6000fd5b50505050507f000000000000000000000000000000000000000000000000000000000000000073ffffffffffffffffffffffffffffffffffffffff1663a9059cbb89866040518363ffffffff1660e01b8152600401611e5b929190614663565b602060405180830381600087803b158015611e7557600080fd5b505af1158015611e89573d6000803e3d6000fd5b505050506040513d601f19601f82011682018060405250810190611ead9190613926565b611eb357fe5b8773ffffffffffffffffffffffffffffffffffffffff166386b9d81f88886040518363ffffffff1660e01b8152600401611eee929190614534565b602060405180830381600087803b158015611f0857600080fd5b505af1158015611f1c573d6000803e3d6000fd5b505050506040513d601f19601f82011682018060405250810190611f409190613aac565b925083341115611f5757611f56338534036122b3565b5b505094509492505050565b600060028260ff1610611faa576040517f08c379a0000000000000000000000000000000000000000000000000000000008152600401611fa19061474c565b60405180910390fd5b7f00000000000000000000000000000000000000000000000000000000000000007f0000000000000000000000000000000000000000000000000000000000000000848460405160200161200093929190614303565b60405160208183030381529060405280519060200120604051602001612027929190614357565b6040516020818303038152906040528051906020012060001c905092915050565b6000806000808873ffffffffffffffffffffffffffffffffffffffff16630902f1ac6040518163ffffffff1660e01b815260040160606040518083038186803b15801561209457600080fd5b505afa1580156120a8573d6000803e3d6000fd5b505050506040513d601f19601f820116820180604052508101906120cc9190613a5d565b506dffffffffffffffffffffffffffff1691506dffffffffffffffffffffffffffff16915060006120fe898484612d01565b9050878111612159578581101561214a576040517f08c379a00000000000000000000000000000000000000000000000000000000081526004016121419061480c565b60405180910390fd5b888180955081965050506121c1565b6000612166898486612d01565b90508981111561217257fe5b878110156121b5576040517f08c379a00000000000000000000000000000000000000000000000000000000081526004016121ac906146ac565b60405180910390fd5b80898096508197505050505b5050509550959350505050565b6000815114156121dd576122ad565b600080600080848060200190518101906121f7919061394f565b935093509350935060008461220c578761222e565b7fffffffffffffffffffffffffffffffffffffffffffffffffffffffffffffffff5b90508873ffffffffffffffffffffffffffffffffffffffff1663d505accf3330848b8989896040518863ffffffff1660e01b81526004016122759796959493929190614442565b600060405180830381600087803b15801561228f57600080fd5b505af11580156122a3573d6000803e3d6000fd5b5050505050505050505b50505050565b60008273ffffffffffffffffffffffffffffffffffffffff1682600067ffffffffffffffff811180156122e557600080fd5b506040519080825280601f01601f1916602001820160405280156123185781602001600182028036833780820191505090505b506040516123269190614340565b60006040518083038185875af1925050503d8060008114612363576040519150601f19603f3d011682016040523d82523d6000602084013e612368565b606091505b50509050806123ac576040517f08c379a00000000000000000000000000000000000000000000000000000000081526004016123a3906146ec565b60405180910390fd5b505050565b60008373ffffffffffffffffffffffffffffffffffffffff1663a6afed956040518163ffffffff1660e01b8152600401600060405180830381600087803b1580156123fb57600080fd5b505af115801561240f573d6000803e3d6000fd5b5050505060008473ffffffffffffffffffffffffffffffffffffffff16634d73e9ba846040518263ffffffff1660e01b815260040161244e91906143db565b60206040518083038186803b15801561246657600080fd5b505afa15801561247a573d6000803e3d6000fd5b505050506040513d601f19601f8201168201806040525081019061249e9190613aac565b90508084106124ad57806124af565b835b9150509392505050565b60003073ffffffffffffffffffffffffffffffffffffffff168373ffffffffffffffffffffffffffffffffffffffff1614156124ff576124fa858786612db9565b61250c565b61250b85848887612687565b5b8573ffffffffffffffffffffffffffffffffffffffff16636a627842836040518263ffffffff1660e01b815260040161254591906143db565b602060405180830381600087803b15801561255f57600080fd5b505af1158015612573573d6000803e3d6000fd5b505050506040513d601f19601f820116820180604052508101906125979190613aac565b905095945050505050565b6000815114156125b157612681565b600080600080848060200190518101906125cb919061394f565b93509350935093506000846125e05787612602565b7fffffffffffffffffffffffffffffffffffffffffffffffffffffffffffffffff5b90508873ffffffffffffffffffffffffffffffffffffffff1663d505accf3330848b8989896040518863ffffffff1660e01b81526004016126499796959493929190614442565b600060405180830381600087803b15801561266357600080fd5b505af1158015612677573d6000803e3d6000fd5b5050505050505050505b50505050565b600060608573ffffffffffffffffffffffffffffffffffffffff166323b872dd8686866040516024016126bc939291906145e0565b6040516020818303038152906040529060e01b6020820180517bffffffffffffffffffffffffffffffffffffffffffffffffffffffff838183161783525050505060405161270a9190614340565b6000604051808303816000865af19150503d8060008114612747576040519150601f19603f3d011682016040523d82523d6000602084013e61274c565b606091505b509150915081801561277a57506000815114806127795750808060200190518101906127789190613926565b5b5b6127b9576040517f08c379a00000000000000000000000000000000000000000000000000000000081526004016127b0906146cc565b60405180910390fd5b505050505050565b6000815114156127d0576128a0565b600080600080848060200190518101906127ea919061394f565b93509350935093506000846127ff5787612821565b7fffffffffffffffffffffffffffffffffffffffffffffffffffffffffffffffff5b90508873ffffffffffffffffffffffffffffffffffffffff16639e79b55c3330848b8989896040518863ffffffff1660e01b81526004016128689796959493929190614442565b600060405180830381600087803b15801561288257600080fd5b505af1158015612896573d6000803e3d6000fd5b5050505050505050505b50505050565b60006128b3856000611f62565b905060606040518060800160405280600060018111156128cf57fe5b81526020018773ffffffffffffffffffffffffffffffffffffffff168152602001600160ff16815260200160405180606001604052808881526020018781526020018673ffffffffffffffffffffffffffffffffffffffff1681525060405160200161293b919061482c565b60405160208183030381529060405281525060405160200161295d9190614869565b60405160208183030381529060405290506060604051806080016040528060018081111561298757fe5b81526020018873ffffffffffffffffffffffffffffffffffffffff168152602001600060ff16815260200160405180608001604052803373ffffffffffffffffffffffffffffffffffffffff1681526020013073ffffffffffffffffffffffffffffffffffffffff16815260200188815260200185815250604051602001612a0f9190614847565b604051602081830303815290604052815250604051602001612a319190614869565b60405160208183030381529060405290508273ffffffffffffffffffffffffffffffffffffffff16631e7dcc0d333089856040518563ffffffff1660e01b8152600401612a8194939291906143f6565b600060405180830381600087803b158015612a9b57600080fd5b505af1158015612aaf573d6000803e3d6000fd5b5050505050505050505050565b6000806000612aca8761060a565b925092509250612b588273ffffffffffffffffffffffffffffffffffffffff16636f307dc36040518163ffffffff1660e01b815260040160206040518083038186803b158015612b1957600080fd5b505afa158015612b2d573d6000803e3d6000fd5b505050506040513d601f19601f82011682018060405250810190612b5191906133b1565b8888612db9565b612be08173ffffffffffffffffffffffffffffffffffffffff16636f307dc36040518163ffffffff1660e01b815260040160206040518083038186803b158015612ba157600080fd5b505afa158015612bb5573d6000803e3d6000fd5b505050506040513d601f19601f82011682018060405250810190612bd991906133b1565b8887612db9565b8673ffffffffffffffffffffffffffffffffffffffff16636a627842846040518263ffffffff1660e01b8152600401612c1991906143db565b602060405180830381600087803b158015612c3357600080fd5b505af1158015612c47573d6000803e3d6000fd5b505050506040513d601f19601f82011682018060405250810190612c6b9190613aac565b508273ffffffffffffffffffffffffffffffffffffffff16636a627842856040518263ffffffff1660e01b8152600401612ca591906143db565b602060405180830381600087803b158015612cbf57600080fd5b505af1158015612cd3573d6000803e3d6000fd5b505050506040513d601f19601f82011682018060405250810190612cf79190613aac565b5050505050505050565b6000808411612d45576040517f08c379a0000000000000000000000000000000000000000000000000000000008152600401612d3c906147ac565b60405180910390fd5b600083118015612d555750600082115b612d94576040517f08c379a0000000000000000000000000000000000000000000000000000000008152600401612d8b9061476c565b60405180910390fd5b82612da88386612ef090919063ffffffff16565b81612daf57fe5b0490509392505050565b600060608473ffffffffffffffffffffffffffffffffffffffff1663a9059cbb8585604051602401612dec929190614663565b6040516020818303038152906040529060e01b6020820180517bffffffffffffffffffffffffffffffffffffffffffffffffffffffff8381831617835250505050604051612e3a9190614340565b6000604051808303816000865af19150503d8060008114612e77576040519150601f19603f3d011682016040523d82523d6000602084013e612e7c565b606091505b5091509150818015612eaa5750600081511480612ea9575080806020019051810190612ea89190613926565b5b5b612ee9576040517f08c379a0000000000000000000000000000000000000000000000000000000008152600401612ee0906147ec565b60405180910390fd5b5050505050565b600080831415612f035760009050612f5a565b6000828402905082848281612f1457fe5b0414612f55576040517f08c379a0000000000000000000000000000000000000000000000000000000008152600401612f4c9061478c565b60405180910390fd5b809150505b92915050565b604051806080016040528060006001811115612f7857fe5b8152602001600073ffffffffffffffffffffffffffffffffffffffff168152602001600060ff168152602001606081525090565b60405180606001604052806000815260200160008152602001600073ffffffffffffffffffffffffffffffffffffffff1681525090565b6040518060800160405280600073ffffffffffffffffffffffffffffffffffffffff168152602001600073ffffffffffffffffffffffffffffffffffffffff16815260200160008152602001606081525090565b60008135905061304681614b2c565b92915050565b60008151905061305b81614b2c565b92915050565b60008151905061307081614b43565b92915050565b60008151905061308581614b5a565b92915050565b60008083601f84011261309d57600080fd5b8235905067ffffffffffffffff8111156130b657600080fd5b6020830191508360018202830111156130ce57600080fd5b9250929050565b600082601f8301126130e657600080fd5b81356130f96130f4826148fc565b6148cf565b9150808252602083016020830185838301111561311557600080fd5b613120838284614a72565b50505092915050565b600082601f83011261313a57600080fd5b815161314d613148826148fc565b6148cf565b9150808252602083016020830185838301111561316957600080fd5b613174838284614a81565b50505092915050565b60008135905061318c81614b71565b92915050565b6000606082840312156131a457600080fd5b6131ae60606148cf565b905060006131be84828501613334565b60008301525060206131d284828501613334565b60208301525060406131e68482850161304c565b60408301525092915050565b60006080828403121561320457600080fd5b61320e60806148cf565b9050600061321e8482850161304c565b60008301525060206132328482850161304c565b602083015250604061324684828501613334565b604083015250606082015167ffffffffffffffff81111561326657600080fd5b61327284828501613129565b60608301525092915050565b60006080828403121561329057600080fd5b61329a60806148cf565b905060006132aa8482850161317d565b60008301525060206132be84828501613037565b60208301525060406132d28482850161335e565b604083015250606082013567ffffffffffffffff8111156132f257600080fd5b6132fe848285016130d5565b60608301525092915050565b60008151905061331981614b81565b92915050565b60008135905061332e81614b98565b92915050565b60008151905061334381614b98565b92915050565b60008151905061335881614baf565b92915050565b60008135905061336d81614bc6565b92915050565b60008151905061338281614bc6565b92915050565b60006020828403121561339a57600080fd5b60006133a884828501613037565b91505092915050565b6000602082840312156133c357600080fd5b60006133d18482850161304c565b91505092915050565b600080600080608085870312156133f057600080fd5b60006133fe87828801613037565b945050602061340f87828801613037565b935050604061342087828801613037565b92505060606134318782880161331f565b91505092959194509250565b60008060006060848603121561345257600080fd5b600061346086828701613037565b935050602061347186828701613037565b92505060406134828682870161331f565b9150509250925092565b6000806000806000608086880312156134a457600080fd5b60006134b288828901613037565b95505060206134c388828901613037565b94505060406134d48882890161331f565b935050606086013567ffffffffffffffff8111156134f157600080fd5b6134fd8882890161308b565b92509250509295509295909350565b600080600080600060a0868803121561352457600080fd5b600061353288828901613037565b95505060206135438882890161331f565b945050604061355488828901613037565b935050606061356588828901613037565b92505060806135768882890161331f565b9150509295509295909350565b6000806000806080858703121561359957600080fd5b60006135a787828801613037565b94505060206135b88782880161331f565b93505060406135c987828801613037565b92505060606135da8782880161331f565b91505092959194509250565b60008060008060008060a087890312156135ff57600080fd5b600061360d89828a01613037565b965050602061361e89828a0161331f565b955050604061362f89828a01613037565b945050606061364089828a0161331f565b935050608087013567ffffffffffffffff81111561365d57600080fd5b61366989828a0161308b565b92509250509295509295509295565b600080600080600060a0868803121561369057600080fd5b600061369e88828901613037565b95505060206136af8882890161331f565b94505060406136c088828901613037565b93505060606136d18882890161331f565b925050608086013567ffffffffffffffff8111156136ee57600080fd5b6136fa888289016130d5565b9150509295509295909350565b6000806000806060858703121561371d57600080fd5b600061372b87828801613037565b945050602061373c8782880161331f565b935050604085013567ffffffffffffffff81111561375957600080fd5b6137658782880161308b565b925092505092959194509250565b600080600080600060a0868803121561378b57600080fd5b600061379988828901613037565b95505060206137aa8882890161331f565b94505060406137bb8882890161331f565b93505060606137cc8882890161331f565b92505060806137dd8882890161331f565b9150509295509295909350565b60008060008060008060008060008060006101208c8e03121561380c57600080fd5b600061381a8e828f01613037565b9b5050602061382b8e828f0161331f565b9a5050604061383c8e828f0161331f565b995050606061384d8e828f0161331f565b985050608061385e8e828f0161331f565b97505060a061386f8e828f01613037565b96505060c06138808e828f0161331f565b95505060e08c013567ffffffffffffffff81111561389d57600080fd5b6138a98e828f0161308b565b94509450506101008c013567ffffffffffffffff8111156138c957600080fd5b6138d58e828f0161308b565b92509250509295989b509295989b9093969950565b600080604083850312156138fd57600080fd5b600061390b85828601613037565b925050602061391c8582860161335e565b9150509250929050565b60006020828403121561393857600080fd5b600061394684828501613061565b91505092915050565b6000806000806080858703121561396557600080fd5b600061397387828801613061565b945050602061398487828801613373565b935050604061399587828801613076565b92505060606139a687828801613076565b91505092959194509250565b6000606082840312156139c457600080fd5b60006139d284828501613192565b91505092915050565b6000602082840312156139ed57600080fd5b600082015167ffffffffffffffff811115613a0757600080fd5b613a13848285016131f2565b91505092915050565b600060208284031215613a2e57600080fd5b600082013567ffffffffffffffff811115613a4857600080fd5b613a548482850161327e565b91505092915050565b600080600060608486031215613a7257600080fd5b6000613a808682870161330a565b9350506020613a918682870161330a565b9250506040613aa286828701613349565b9150509250925092565b600060208284031215613abe57600080fd5b6000613acc84828501613334565b91505092915050565b613ade81614a18565b82525050565b613aed8161497c565b82525050565b613afc8161497c565b82525050565b613b13613b0e8261497c565b614ab4565b82525050565b613b228161499a565b82525050565b613b39613b348261499a565b614ac6565b82525050565b6000613b4a82614928565b613b548185614933565b9350613b64818560208601614a81565b613b6d81614af4565b840191505092915050565b6000613b8382614928565b613b8d8185614944565b9350613b9d818560208601614a81565b613ba681614af4565b840191505092915050565b6000613bbc82614928565b613bc68185614955565b9350613bd6818560208601614a81565b80840191505092915050565b613beb81614a2a565b82525050565b613bfa81614a3c565b82525050565b6000613c0d602083614971565b91507fae4280f2558f430e545f8498139b445a825e8fe028a70f62e6b60b7baf4b05416000830152602082019050919050565b6000613c4d602383614960565b91507f496d7065726d6178526f757465723a20554e415554484f52495a45445f43414c60008301527f4c455200000000000000000000000000000000000000000000000000000000006020830152604082019050919050565b6000613cb3602583614960565b91507f496d7065726d6178526f757465723a20494e53554646494349454e545f415f4160008301527f4d4f554e540000000000000000000000000000000000000000000000000000006020830152604082019050919050565b6000613d19603183614960565b91507f5472616e7366657248656c7065723a3a7472616e7366657246726f6d3a20747260008301527f616e7366657246726f6d206661696c65640000000000000000000000000000006020830152604082019050919050565b6000613d7f603483614960565b91507f5472616e7366657248656c7065723a3a736166655472616e736665724554483a60008301527f20455448207472616e73666572206661696c65640000000000000000000000006020830152604082019050919050565b6000613de5602183614960565b91507f496d7065726d6178526f757465723a2053454e4445525f4e4f545f524f55544560008301527f52000000000000000000000000000000000000000000000000000000000000006020830152604082019050919050565b6000613e4b602083614971565b91507f8fd6557eefe21959c5e4ea83e5892bb580f170a6e305c19c468c80369546b1106000830152602082019050919050565b6000613e8b601783614960565b91507f496d7065726d6178526f757465723a20455850495245440000000000000000006000830152602082019050919050565b6000613ecb601e83614960565b91507f496d7065726d6178526f757465723a20494e4445585f544f4f5f4849474800006000830152602082019050919050565b6000613f0b602883614960565b91507f556e697377617056324c6962726172793a20494e53554646494349454e545f4c60008301527f49515549444954590000000000000000000000000000000000000000000000006020830152604082019050919050565b6000613f71600183614971565b91507fff000000000000000000000000000000000000000000000000000000000000006000830152600182019050919050565b6000613fb1602183614960565b91507f536166654d6174683a206d756c7469706c69636174696f6e206f766572666c6f60008301527f77000000000000000000000000000000000000000000000000000000000000006020830152604082019050919050565b6000614017602583614960565b91507f556e697377617056324c6962726172793a20494e53554646494349454e545f4160008301527f4d4f554e540000000000000000000000000000000000000000000000000000006020830152604082019050919050565b600061407d601883614960565b91507f496d7065726d6178526f757465723a204e4f545f5745544800000000000000006000830152602082019050919050565b60006140bd602d83614960565b91507f5472616e7366657248656c7065723a3a736166655472616e736665723a20747260008301527f616e73666572206661696c6564000000000000000000000000000000000000006020830152604082019050919050565b6000614123602583614960565b91507f496d7065726d6178526f757465723a20494e53554646494349454e545f425f4160008301527f4d4f554e540000000000000000000000000000000000000000000000000000006020830152604082019050919050565b6060820160008201516141926000850182614284565b5060208201516141a56020850182614284565b5060408201516141b86040850182613ae4565b50505050565b60006080830160008301516141d66000860182613ae4565b5060208301516141e96020860182613ae4565b5060408301516141fc6040860182614284565b50606083015184820360608601526142148282613b3f565b9150508091505092915050565b60006080830160008301516142396000860182613be2565b50602083015161424c6020860182613ae4565b50604083015161425f60408601826142a2565b50606083015184820360608601526142778282613b3f565b9150508091505092915050565b61428d816149f1565b82525050565b61429c816149f1565b82525050565b6142ab81614a0b565b82525050565b6142ba81614a0b565b82525050565b6142d16142cc82614a0b565b614ae2565b82525050565b60006142e38285613b02565b6014820191506142f38284613b02565b6014820191508190509392505050565b600061430f8286613b02565b60148201915061431f8285613b02565b60148201915061432f82846142c0565b600182019150819050949350505050565b600061434c8284613bb1565b915081905092915050565b600061436282613f64565b915061436e8285613b02565b60148201915061437e8284613b28565b60208201915061438d82613c00565b91508190509392505050565b60006143a482613f64565b91506143b08285613b02565b6014820191506143c08284613b28565b6020820191506143cf82613e3e565b91508190509392505050565b60006020820190506143f06000830184613af3565b92915050565b600060808201905061440b6000830187613ad5565b6144186020830186613ad5565b6144256040830185614293565b81810360608301526144378184613b78565b905095945050505050565b600060e082019050614457600083018a613ad5565b6144646020830189613ad5565b6144716040830188614293565b61447e6060830187614293565b61448b60808301866142b1565b61449860a0830185613b19565b6144a560c0830184613b19565b98975050505050505050565b60006060820190506144c66000830186613ad5565b6144d36020830185613af3565b6144e06040830184614293565b949350505050565b60006080820190506144fd6000830187613ad5565b61450a6020830186613af3565b6145176040830185614293565b81810360608301526145298184613b78565b905095945050505050565b60006040820190506145496000830185613af3565b6145566020830184613af3565b9392505050565b60006080820190506145726000830187613af3565b61457f6020830186613ad5565b61458c6040830185613bf1565b818103606083015261459e8184613b78565b905095945050505050565b60006060820190506145be6000830186613af3565b6145cb6020830185613af3565b6145d86040830184613af3565b949350505050565b60006060820190506145f56000830186613af3565b6146026020830185613af3565b61460f6040830184614293565b949350505050565b600060808201905061462c6000830187613af3565b6146396020830186613af3565b6146466040830185614293565b81810360608301526146588184613b78565b905095945050505050565b60006040820190506146786000830185613af3565b6146856020830184614293565b9392505050565b600060208201905081810360008301526146a581613c40565b9050919050565b600060208201905081810360008301526146c581613ca6565b9050919050565b600060208201905081810360008301526146e581613d0c565b9050919050565b6000602082019050818103600083015261470581613d72565b9050919050565b6000602082019050818103600083015261472581613dd8565b9050919050565b6000602082019050818103600083015261474581613e7e565b9050919050565b6000602082019050818103600083015261476581613ebe565b9050919050565b6000602082019050818103600083015261478581613efe565b9050919050565b600060208201905081810360008301526147a581613fa4565b9050919050565b600060208201905081810360008301526147c58161400a565b9050919050565b600060208201905081810360008301526147e581614070565b9050919050565b60006020820190508181036000830152614805816140b0565b9050919050565b6000602082019050818103600083015261482581614116565b9050919050565b6000606082019050614841600083018461417c565b92915050565b6000602082019050818103600083015261486181846141be565b905092915050565b600060208201905081810360008301526148838184614221565b905092915050565b60006020820190506148a06000830184614293565b92915050565b60006040820190506148bb6000830185614293565b6148c86020830184614293565b9392505050565b6000604051905081810181811067ffffffffffffffff821117156148f257600080fd5b8060405250919050565b600067ffffffffffffffff82111561491357600080fd5b601f19601f8301169050602081019050919050565b600081519050919050565b600082825260208201905092915050565b600082825260208201905092915050565b600081905092915050565b600082825260208201905092915050565b600081905092915050565b6000614987826149d1565b9050919050565b60008115159050919050565b6000819050919050565b60008190506149b282614b1f565b919050565b60006dffffffffffffffffffffffffffff82169050919050565b600073ffffffffffffffffffffffffffffffffffffffff82169050919050565b6000819050919050565b600063ffffffff82169050919050565b600060ff82169050919050565b6000614a2382614a4e565b9050919050565b6000614a35826149a4565b9050919050565b6000614a47826149f1565b9050919050565b6000614a5982614a60565b9050919050565b6000614a6b826149d1565b9050919050565b82818337600083830152505050565b60005b83811015614a9f578082015181840152602081019050614a84565b83811115614aae576000848401525b50505050565b6000614abf82614ad0565b9050919050565b6000819050919050565b6000614adb82614b12565b9050919050565b6000614aed82614b05565b9050919050565b6000601f19601f8301169050919050565b60008160f81b9050919050565b60008160601b9050919050565b60028110614b2957fe5b50565b614b358161497c565b8114614b4057600080fd5b50565b614b4c8161498e565b8114614b5757600080fd5b50565b614b638161499a565b8114614b6e57600080fd5b50565b60028110614b7e57600080fd5b50565b614b8a816149b7565b8114614b9557600080fd5b50565b614ba1816149f1565b8114614bac57600080fd5b50565b614bb8816149fb565b8114614bc357600080fd5b50565b614bcf81614a0b565b8114614bda57600080fd5b5056fea26469706673582212208de2c18a3c85be50ab1946a4aa1a6e3b82821343720d90ffc9eb308dc1e0408364736f6c63430006060033",
  "immutableReferences": {
    "20": [
      {
        "length": 32,
        "start": 6689
      },
      {
        "length": 32,
        "start": 6853
      },
      {
        "length": 32,
        "start": 8141
      }
    ],
    "23": [
      {
        "length": 32,
        "start": 6889
      },
      {
        "length": 32,
        "start": 8108
      }
    ],
    "26": [
      {
        "length": 32,
        "start": 6010
      },
      {
        "length": 32,
        "start": 6656
      }
    ],
    "29": [
      {
        "length": 32,
        "start": 320
      },
      {
        "length": 32,
        "start": 2193
      },
      {
        "length": 32,
        "start": 2327
      },
      {
        "length": 32,
        "start": 2704
      },
      {
        "length": 32,
        "start": 2836
      },
      {
        "length": 32,
        "start": 3213
      },
      {
        "length": 32,
        "start": 3345
      },
      {
        "length": 32,
        "start": 3474
      },
      {
        "length": 32,
        "start": 5706
      },
      {
        "length": 32,
        "start": 5825
      },
      {
        "length": 32,
        "start": 5958
      },
      {
        "length": 32,
        "start": 6817
      },
      {
        "length": 32,
        "start": 7421
      },
      {
        "length": 32,
        "start": 7553
      },
      {
        "length": 32,
        "start": 7682
      }
    ]
  },
  "source": "pragma solidity =0.6.6;\npragma experimental ABIEncoderV2;\n\nimport \"./interfaces/IRouter01.sol\";\nimport \"./interfaces/IPoolToken.sol\";\nimport \"./interfaces/IBorrowable.sol\";\nimport \"./interfaces/ICollateral.sol\";\nimport \"./interfaces/IImpermaxCallee.sol\";\nimport \"./interfaces/IERC20.sol\";\nimport \"./interfaces/IWETH.sol\";\nimport \"./interfaces/IUniswapV2Pair.sol\";\nimport \"./libraries/SafeMath.sol\";\nimport \"./libraries/TransferHelper.sol\";\nimport \"./libraries/UniswapV2Library.sol\";\n\ncontract Router01 is IRouter01, IImpermaxCallee {\n\n\taddress public immutable override factory;\n\taddress public immutable override bDeployer;\n\taddress public immutable override cDeployer;\n\taddress public immutable override WETH;\n\n\tmodifier ensure(uint deadline) {\n\t\trequire(deadline >= block.timestamp, \"ImpermaxRouter: EXPIRED\");\n\t\t_;\n\t}\n\n\tmodifier checkETH(address poolToken) {\n\t\trequire(WETH == IPoolToken(poolToken).underlying(), \"ImpermaxRouter: NOT_WETH\");\n\t\t_;\n\t}\n\n\tconstructor(address _factory, address _bDeployer, address _cDeployer, address _WETH) public {\n\t\tfactory = _factory;\n\t\tbDeployer = _bDeployer;\n\t\tcDeployer = _cDeployer;\n\t\tWETH = _WETH;\n\t}\n\n\treceive() external payable {\n\t\tassert(msg.sender == WETH); // only accept ETH via fallback from the WETH contract\n\t}\n\n\t/*** Mint ***/\n\t\n\tfunction _mint(\n\t\taddress poolToken, \n\t\taddress underlying, \n\t\tuint amount,\n\t\taddress from,\n\t\taddress to\n\t) internal virtual returns (uint tokens) {\n\t\tif (from == address(this)) TransferHelper.safeTransfer(underlying, poolToken, amount);\n\t\telse TransferHelper.safeTransferFrom(underlying, from, poolToken, amount);\n\t\ttokens = IPoolToken(poolToken).mint(to);\n\t}\n\tfunction mint(\n\t\taddress poolToken, \n\t\tuint amount,\n\t\taddress to,\n\t\tuint deadline\n\t) external virtual override ensure(deadline) returns (uint tokens) {\n\t\treturn _mint(poolToken, IPoolToken(poolToken).underlying(), amount, msg.sender, to);\n\t}\n\tfunction mintETH(\n\t\taddress poolToken, \n\t\taddress to,\n\t\tuint deadline\n\t) external virtual override payable ensure(deadline) checkETH(poolToken) returns (uint tokens) {\n\t\tIWETH(WETH).deposit{value: msg.value}();\n\t\treturn _mint(poolToken, WETH, msg.value, address(this), to);\n\t}\n\tfunction mintCollateral(\n\t\taddress poolToken, \n\t\tuint amount,\n\t\taddress to,\n\t\tuint deadline,\n\t\tbytes calldata permitData\n\t) external virtual override ensure(deadline) returns (uint tokens) {\n\t\taddress uniswapV2Pair = IPoolToken(poolToken).underlying();\n\t\t_permitUniswapV2Pair(uniswapV2Pair, amount, deadline, permitData);\n\t\treturn _mint(poolToken, uniswapV2Pair, amount, msg.sender, to);\n\t}\n\t\n\t/*** Redeem ***/\n\t\n\tfunction redeem(\n\t\taddress poolToken,\n\t\tuint tokens,\n\t\taddress to,\n\t\tuint deadline,\n\t\tbytes memory permitData\n\t) public virtual override ensure(deadline) returns (uint amount) {\n\t\t_permit(poolToken, tokens, deadline, permitData);\n\t\tIPoolToken(poolToken).transferFrom(msg.sender, poolToken, tokens);\n\t\tamount = IPoolToken(poolToken).redeem(to);\n\t}\n\tfunction redeemETH(\n\t\taddress poolToken, \n\t\tuint tokens,\n\t\taddress to,\n\t\tuint deadline,\n\t\tbytes memory permitData\n\t) public virtual override ensure(deadline) checkETH(poolToken) returns (uint amountETH) {\n\t\tamountETH = redeem(poolToken, tokens, address(this), deadline, permitData);\n\t\tIWETH(WETH).withdraw(amountETH);\n\t\tTransferHelper.safeTransferETH(to, amountETH);\n\t}\n\t\t\t\n\t/*** Borrow ***/\n\n\tfunction borrow(\n\t\taddress borrowable, \n\t\tuint amount,\n\t\taddress to,\n\t\tuint deadline,\n\t\tbytes memory permitData\n\t) public virtual override ensure(deadline) {\n\t\t_borrowPermit(borrowable, amount, deadline, permitData);\n\t\tIBorrowable(borrowable).borrow(msg.sender, to, amount, new bytes(0));\n\t}\n\tfunction borrowETH(\n\t\taddress borrowable, \n\t\tuint amountETH,\n\t\taddress to,\n\t\tuint deadline,\n\t\tbytes memory permitData\n\t) public virtual override ensure(deadline) checkETH(borrowable) {\n\t\tborrow(borrowable, amountETH, address(this), deadline, permitData);\n\t\tIWETH(WETH).withdraw(amountETH);\n\t\tTransferHelper.safeTransferETH(to, amountETH);\n\t}\n\t\n\t/*** Repay ***/\n\t\n\tfunction _repayAmount(\n\t\taddress borrowable, \n\t\tuint amountMax,\n\t\taddress borrower\n\t) internal virtual returns (uint amount) {\n\t\tIBorrowable(borrowable).accrueInterest();\n\t\tuint borrowedAmount = IBorrowable(borrowable).borrowBalance(borrower);\n\t\tamount = amountMax < borrowedAmount ? amountMax : borrowedAmount;\n\t}\n\tfunction repay(\n\t\taddress borrowable, \n\t\tuint amountMax,\n\t\taddress borrower,\n\t\tuint deadline\n\t) external virtual override ensure(deadline) returns (uint amount) {\n\t\tamount = _repayAmount(borrowable, amountMax, borrower);\n\t\tTransferHelper.safeTransferFrom(IBorrowable(borrowable).underlying(), msg.sender, borrowable, amount);\n\t\tIBorrowable(borrowable).borrow(borrower, address(0), 0, new bytes(0));\n\t}\n\tfunction repayETH(\n\t\taddress borrowable, \n\t\taddress borrower,\n\t\tuint deadline\n\t) external virtual override payable ensure(deadline) checkETH(borrowable) returns (uint amountETH) {\n\t\tamountETH = _repayAmount(borrowable, msg.value, borrower);\n\t\tIWETH(WETH).deposit{value: amountETH}();\n\t\tassert(IWETH(WETH).transfer(borrowable, amountETH));\n\t\tIBorrowable(borrowable).borrow(borrower, address(0), 0, new bytes(0));\n\t\t// refund surpluss eth, if any\n\t\tif (msg.value > amountETH) TransferHelper.safeTransferETH(msg.sender, msg.value - amountETH);\n\t}\n\t\n\t/*** Liquidate ***/\n\n\tfunction liquidate(\n\t\taddress borrowable, \n\t\tuint amountMax,\n\t\taddress borrower,\n\t\taddress to,\n\t\tuint deadline\n\t) external virtual override ensure(deadline) returns (uint amount, uint seizeTokens) {\n\t\tamount = _repayAmount(borrowable, amountMax, borrower);\n\t\tTransferHelper.safeTransferFrom(IBorrowable(borrowable).underlying(), msg.sender, borrowable, amount);\n\t\tseizeTokens = IBorrowable(borrowable).liquidate(borrower, to);\n\t}\n\tfunction liquidateETH(\n\t\taddress borrowable, \n\t\taddress borrower,\n\t\taddress to,\n\t\tuint deadline\n\t) external virtual override payable ensure(deadline) checkETH(borrowable) returns (uint amountETH, uint seizeTokens) {\n\t\tamountETH = _repayAmount(borrowable, msg.value, borrower);\n\t\tIWETH(WETH).deposit{value: amountETH}();\n\t\tassert(IWETH(WETH).transfer(borrowable, amountETH));\n\t\tseizeTokens = IBorrowable(borrowable).liquidate(borrower, to);\n\t\t// refund surpluss eth, if any\n\t\tif (msg.value > amountETH) TransferHelper.safeTransferETH(msg.sender, msg.value - amountETH);\n\t}\n\t\t\n\t/*** Leverage LP Token ***/\n\t\n\tfunction _leverage(\n\t\taddress uniswapV2Pair, \n\t\tuint amountA,\n\t\tuint amountB,\n\t\taddress to\n\t) internal virtual {\n\t\taddress borrowableA = getBorrowable(uniswapV2Pair, 0);\n\t\t// mint collateral\n\t\tbytes memory borrowBData = abi.encode(CalleeData({\n\t\t\tcallType: CallType.ADD_LIQUIDITY_AND_MINT,\n\t\t\tuniswapV2Pair: uniswapV2Pair,\n\t\t\tborrowableIndex: 1,\n\t\t\tdata: abi.encode(AddLiquidityAndMintCalldata({\n\t\t\t\tamountA: amountA,\n\t\t\t\tamountB: amountB,\n\t\t\t\tto: to\n\t\t\t}))\n\t\t}));\t\n\t\t// borrow borrowableB\n\t\tbytes memory borrowAData = abi.encode(CalleeData({\n\t\t\tcallType: CallType.BORROWB,\n\t\t\tuniswapV2Pair: uniswapV2Pair,\n\t\t\tborrowableIndex: 0,\n\t\t\tdata: abi.encode(BorrowBCalldata({\n\t\t\t\tborrower: msg.sender,\n\t\t\t\treceiver: address(this),\n\t\t\t\tborrowAmount: amountB,\n\t\t\t\tdata: borrowBData\n\t\t\t}))\n\t\t}));\n\t\t// borrow borrowableA\n\t\tIBorrowable(borrowableA).borrow(msg.sender, address(this), amountA, borrowAData);\t\n\t}\n\tfunction leverage(\n\t\taddress uniswapV2Pair,  \n\t\tuint amountADesired,\n\t\tuint amountBDesired,\n\t\tuint amountAMin,\n\t\tuint amountBMin,\n\t\taddress to,\n\t\tuint deadline,\n\t\tbytes calldata permitDataA,\n\t\tbytes calldata permitDataB\n\t) external virtual override ensure(deadline) {\n\t\t_borrowPermit(getBorrowable(uniswapV2Pair, 0), amountADesired, deadline, permitDataA);\n\t\t_borrowPermit(getBorrowable(uniswapV2Pair, 1), amountBDesired, deadline, permitDataB);\n\t\t(uint amountA, uint amountB) = _optimalLiquidity(uniswapV2Pair, amountADesired, amountBDesired, amountAMin, amountBMin);\n\t\t_leverage(uniswapV2Pair, amountA, amountB, to);\n\t}\n\n\tfunction _addLiquidityAndMint(\n\t\taddress uniswapV2Pair, \n\t\tuint amountA,\n\t\tuint amountB,\n\t\taddress to\n\t) internal virtual {\n\t\t(address collateral, address borrowableA, address borrowableB) = getLendingPool(uniswapV2Pair);\n\t\t// add liquidity to uniswap pair\n\t\tTransferHelper.safeTransfer(IBorrowable(borrowableA).underlying(), uniswapV2Pair, amountA);\n\t\tTransferHelper.safeTransfer(IBorrowable(borrowableB).underlying(), uniswapV2Pair, amountB);\n\t\tIUniswapV2Pair(uniswapV2Pair).mint(collateral);\n\t\t// mint collateral\n\t\tICollateral(collateral).mint(to);\n\t}\n\t\t\n\t/*** Impermax Callee ***/\n\t\t\n\tenum CallType {ADD_LIQUIDITY_AND_MINT, BORROWB}\n\tstruct CalleeData {\n\t\tCallType callType;\n\t\taddress uniswapV2Pair;\n\t\tuint8 borrowableIndex;\n\t\tbytes data;\t\t\n\t}\n\tstruct AddLiquidityAndMintCalldata {\n\t\tuint amountA;\n\t\tuint amountB;\n\t\taddress to;\n\t}\n\tstruct BorrowBCalldata {\n\t\taddress borrower; \n\t\taddress receiver;\n\t\tuint borrowAmount;\n\t\tbytes data;\n\t}\n\t\n\tfunction impermaxBorrow(address sender, address borrower, uint borrowAmount, bytes calldata data) external virtual override {\n\t\tborrower; borrowAmount;\n\t\tCalleeData memory calleeData = abi.decode(data, (CalleeData));\n\t\t// only succeeds if called by a borrowable and if that borrowable has been called by the router\n\t\trequire(sender == address(this), \"ImpermaxRouter: SENDER_NOT_ROUTER\");\n\t\taddress declaredCaller = getBorrowable(calleeData.uniswapV2Pair, calleeData.borrowableIndex);\n\t\trequire(msg.sender == declaredCaller, \"ImpermaxRouter: UNAUTHORIZED_CALLER\");\n\t\tif (calleeData.callType == CallType.ADD_LIQUIDITY_AND_MINT) {\n\t\t\tAddLiquidityAndMintCalldata memory d = abi.decode(calleeData.data, (AddLiquidityAndMintCalldata));\n\t\t\t_addLiquidityAndMint(calleeData.uniswapV2Pair, d.amountA, d.amountB, d.to);\n\t\t}\n\t\telse if (calleeData.callType == CallType.BORROWB) {\n\t\t\tBorrowBCalldata memory d = abi.decode(calleeData.data, (BorrowBCalldata));\n\t\t\taddress borrowableB = getBorrowable(calleeData.uniswapV2Pair, 1);\n\t\t\tIBorrowable(borrowableB).borrow(d.borrower, d.receiver, d.borrowAmount, d.data);\n\t\t}\n\t\telse revert();\n\t}\n\t\n\tfunction impermaxRedeem(address sender, uint redeemAmount, bytes calldata data) external virtual override {\n\t\tsender; redeemAmount; data;\n\t}\n\t\t\n\t/*** Utilities ***/\n\t\n\tfunction _permit(\n\t\taddress poolToken, \n\t\tuint amount, \n\t\tuint deadline,\n\t\tbytes memory permitData\n\t) internal virtual {\n\t\tif (permitData.length == 0) return;\n\t\t(bool approveMax, uint8 v, bytes32 r, bytes32 s) = abi.decode(permitData, (bool, uint8, bytes32, bytes32));\n\t\tuint value = approveMax ? uint(-1) : amount;\n\t\tIPoolToken(poolToken).permit(msg.sender, address(this), value, deadline, v, r, s);\n\t}\n\tfunction _permitUniswapV2Pair(\n\t\taddress uniswapV2Pair, \n\t\tuint amount, \n\t\tuint deadline,\n\t\tbytes memory permitData\n\t) internal virtual {\n\t\tif (permitData.length == 0) return;\n\t\t(bool approveMax, uint8 v, bytes32 r, bytes32 s) = abi.decode(permitData, (bool, uint8, bytes32, bytes32));\n\t\tuint value = approveMax ? uint(-1) : amount;\n\t\tIUniswapV2Pair(uniswapV2Pair).permit(msg.sender, address(this), value, deadline, v, r, s);\n\t}\n\tfunction _borrowPermit(\n\t\taddress borrowable, \n\t\tuint amount, \n\t\tuint deadline,\n\t\tbytes memory permitData\n\t) internal virtual {\n\t\tif (permitData.length == 0) return;\n\t\t(bool approveMax, uint8 v, bytes32 r, bytes32 s) = abi.decode(permitData, (bool, uint8, bytes32, bytes32));\n\t\tuint value = approveMax ? uint(-1) : amount;\n\t\tIBorrowable(borrowable).borrowPermit(msg.sender, address(this), value, deadline, v, r, s);\n\t}\n\t\n\tfunction _optimalLiquidity(\n\t\taddress uniswapV2Pair,\n\t\tuint amountADesired,\n\t\tuint amountBDesired,\n\t\tuint amountAMin,\n\t\tuint amountBMin\n\t) public virtual view returns (uint amountA, uint amountB) {\n\t\t(uint reserveA, uint reserveB,) = IUniswapV2Pair(uniswapV2Pair).getReserves();\n\t\tuint amountBOptimal = UniswapV2Library.quote(amountADesired, reserveA, reserveB);\n\t\tif (amountBOptimal <= amountBDesired) {\n\t\t\trequire(amountBOptimal >= amountBMin, \"ImpermaxRouter: INSUFFICIENT_B_AMOUNT\");\n\t\t\t(amountA, amountB) = (amountADesired, amountBOptimal);\n\t\t} else {\n\t\t\tuint amountAOptimal = UniswapV2Library.quote(amountBDesired, reserveB, reserveA);\n\t\t\tassert(amountAOptimal <= amountADesired);\n\t\t\trequire(amountAOptimal >= amountAMin, \"ImpermaxRouter: INSUFFICIENT_A_AMOUNT\");\n\t\t\t(amountA, amountB) = (amountAOptimal, amountBDesired);\n\t\t}\n\t}\n\t\n\tfunction getBorrowable(address uniswapV2Pair, uint8 index) public virtual override view returns (address borrowable) {\n\t\trequire(index < 2, \"ImpermaxRouter: INDEX_TOO_HIGH\");\n\t\tborrowable = address(uint(keccak256(abi.encodePacked(\n\t\t\thex\"ff\",\n\t\t\tbDeployer,\n\t\t\tkeccak256(abi.encodePacked(factory, uniswapV2Pair, index)),\n\t\t\thex\"ae4280f2558f430e545f8498139b445a825e8fe028a70f62e6b60b7baf4b0541\" // Borrowable bytecode keccak256\n\t\t))));\n\t}\n\tfunction getCollateral(address uniswapV2Pair) public virtual override view returns (address collateral) {\n\t\tcollateral = address(uint(keccak256(abi.encodePacked(\n\t\t\thex\"ff\",\n\t\t\tcDeployer,\n\t\t\tkeccak256(abi.encodePacked(factory, uniswapV2Pair)),\n\t\t\thex\"8fd6557eefe21959c5e4ea83e5892bb580f170a6e305c19c468c80369546b110\" // Collateral bytecode keccak256\n\t\t))));\n\t}\n\tfunction getLendingPool(address uniswapV2Pair) public virtual override view returns (address collateral, address borrowableA, address borrowableB) {\n\t\tcollateral = getCollateral(uniswapV2Pair);\n\t\tborrowableA = getBorrowable(uniswapV2Pair, 0);\n\t\tborrowableB = getBorrowable(uniswapV2Pair, 1);\n\t}\n}\n",
  "sourcePath": "C:/Users/simor/Desktop/impermax-x-uniswapv2-periphery/contracts/Router01.sol",
  "compiler": {
    "name": "solc",
    "version": "0.6.6+commit.6c089d02.Emscripten.clang"
  },
  "schemaVersion": "3.3.2",
  "updatedAt": "2021-01-09T21:19:45.632Z",
  "networkType": "ethereum",
  "devdoc": {
    "methods": {}
  },
  "userdoc": {
    "methods": {
      "borrow(address,uint256,address,uint256,bytes)": {
        "notice": "* Borrow **"
      },
      "liquidate(address,uint256,address,address,uint256)": {
        "notice": "* Liquidate **"
      },
      "redeem(address,uint256,address,uint256,bytes)": {
        "notice": "* Redeem **"
      }
    }
  }
}