{
  "contractName": "SimpleUniswapOracle",
  "abi": [
    {
      "anonymous": false,
      "inputs": [
        {
          "indexed": true,
          "internalType": "address",
          "name": "pair",
          "type": "address"
        },
        {
          "indexed": false,
          "internalType": "uint256",
          "name": "priceCumulative",
          "type": "uint256"
        },
        {
          "indexed": false,
          "internalType": "uint32",
          "name": "blockTimestamp",
          "type": "uint32"
        },
        {
          "indexed": false,
          "internalType": "bool",
          "name": "lastIsA",
          "type": "bool"
        }
      ],
      "name": "PriceUpdate",
      "type": "event"
    },
    {
      "constant": true,
      "inputs": [],
      "name": "MIN_T",
      "outputs": [
        {
          "internalType": "uint32",
          "name": "",
          "type": "uint32"
        }
      ],
      "payable": false,
      "stateMutability": "view",
      "type": "function"
    },
    {
      "constant": true,
      "inputs": [
        {
          "internalType": "address",
          "name": "",
          "type": "address"
        }
      ],
      "name": "getPair",
      "outputs": [
        {
          "internalType": "uint256",
          "name": "priceCumulativeA",
          "type": "uint256"
        },
        {
          "internalType": "uint256",
          "name": "priceCumulativeB",
          "type": "uint256"
        },
        {
          "internalType": "uint32",
          "name": "updateA",
          "type": "uint32"
        },
        {
          "internalType": "uint32",
          "name": "updateB",
          "type": "uint32"
        },
        {
          "internalType": "bool",
          "name": "lastIsA",
          "type": "bool"
        },
        {
          "internalType": "bool",
          "name": "initialized",
          "type": "bool"
        }
      ],
      "payable": false,
      "stateMutability": "view",
      "type": "function"
    },
    {
      "constant": false,
      "inputs": [
        {
          "internalType": "address",
          "name": "uniswapV2Pair",
          "type": "address"
        }
      ],
      "name": "initialize",
      "outputs": [],
      "payable": false,
      "stateMutability": "nonpayable",
      "type": "function"
    },
    {
      "constant": false,
      "inputs": [
        {
          "internalType": "address",
          "name": "uniswapV2Pair",
          "type": "address"
        }
      ],
      "name": "getResult",
      "outputs": [
        {
          "internalType": "uint224",
          "name": "price",
          "type": "uint224"
        },
        {
          "internalType": "uint32",
          "name": "T",
          "type": "uint32"
        }
      ],
      "payable": false,
      "stateMutability": "nonpayable",
      "type": "function"
    },
    {
      "constant": true,
      "inputs": [],
      "name": "getBlockTimestamp",
      "outputs": [
        {
          "internalType": "uint32",
          "name": "",
          "type": "uint32"
        }
      ],
      "payable": false,
      "stateMutability": "view",
      "type": "function"
    }
  ],
  "bytecode": "0x608060405234801561001057600080fd5b50610c14806100206000396000f3fe608060405234801561001057600080fd5b50600436106100575760003560e01c80631a788a021461005c578063446a37e0146100f7578063796b89b91461019e578063c4d66de8146101c8578063f51b55311461020c575b600080fd5b61009e6004803603602081101561007257600080fd5b81019080803573ffffffffffffffffffffffffffffffffffffffff169060200190929190505050610236565b604051808781526020018681526020018563ffffffff1663ffffffff1681526020018463ffffffff1663ffffffff1681526020018315151515815260200182151515158152602001965050505050505060405180910390f35b6101396004803603602081101561010d57600080fd5b81019080803573ffffffffffffffffffffffffffffffffffffffff1690602001909291905050506102ac565b60405180837bffffffffffffffffffffffffffffffffffffffffffffffffffffffff167bffffffffffffffffffffffffffffffffffffffffffffffffffffffff1681526020018263ffffffff1663ffffffff1681526020019250505060405180910390f35b6101a66106a3565b604051808263ffffffff1663ffffffff16815260200191505060405180910390f35b61020a600480360360208110156101de57600080fd5b81019080803573ffffffffffffffffffffffffffffffffffffffff1690602001909291905050506106b9565b005b610214610883565b604051808263ffffffff1663ffffffff16815260200191505060405180910390f35b60006020528060005260406000206000915090508060000154908060010154908060020160009054906101000a900463ffffffff16908060020160049054906101000a900463ffffffff16908060020160089054906101000a900460ff16908060020160099054906101000a900460ff16905086565b6000806102b7610b77565b6000808573ffffffffffffffffffffffffffffffffffffffff1673ffffffffffffffffffffffffffffffffffffffff1681526020019081526020016000206040518060c001604052908160008201548152602001600182015481526020016002820160009054906101000a900463ffffffff1663ffffffff1663ffffffff1681526020016002820160049054906101000a900463ffffffff1663ffffffff1663ffffffff1681526020016002820160089054906101000a900460ff161515151581526020016002820160099054906101000a900460ff16151515158152505090508060a0015161040f576040517f08c379a000000000000000000000000000000000000000000000000000000000815260040180806020018281038252601e8152602001807f556e69737761704f7261636c653a204e4f545f494e495449414c495a4544000081525060200191505060405180910390fd5b60008060008673ffffffffffffffffffffffffffffffffffffffff1673ffffffffffffffffffffffffffffffffffffffff1681526020019081526020016000209050600061045b6106a3565b905060008360800151610472578360600151610478565b83604001515b9050600061048588610889565b90506000610e1063ffffffff1683850363ffffffff16106105bc5785608001516104b35785602001516104b9565b85600001515b90508560800151156104f657818560010181905550838560020160046101000a81548163ffffffff021916908363ffffffff160217905550610523565b818560000181905550838560020160006101000a81548163ffffffff021916908363ffffffff1602179055505b8560800151158560020160086101000a81548160ff0219169083151502179055508873ffffffffffffffffffffffffffffffffffffffff167fc58c63744da19faddae8e37958053493f49d71b8f78d4facf6002cd1c2618fcf8386896080015115604051808481526020018363ffffffff1663ffffffff16815260200182151515158152602001935050505060405180910390a26105f3565b85608001516105cf5785604001516105d5565b85606001515b925085608001516105ea5785600001516105f0565b85602001515b90505b8284039650610e1063ffffffff168763ffffffff16101561067c576040517f08c379a00000000000000000000000000000000000000000000000000000000081526004018080602001828103825260188152602001807f556e69737761704f7261636c653a204e4f545f5245414459000000000000000081525060200191505060405180910390fd5b6106968763ffffffff168284038161069057fe5b04610a2e565b9750505050505050915091565b600064010000000042816106b357fe5b06905090565b60008060008373ffffffffffffffffffffffffffffffffffffffff1673ffffffffffffffffffffffffffffffffffffffff16815260200190815260200160002090508060020160099054906101000a900460ff1615610763576040517f08c379a0000000000000000000000000000000000000000000000000000000008152600401808060200182810382526022815260200180610bbe6022913960400191505060405180910390fd5b600061076e83610889565b9050600061077a6106a3565b9050818360000181905550818360010181905550808360020160006101000a81548163ffffffff021916908363ffffffff160217905550808360020160046101000a81548163ffffffff021916908363ffffffff16021790555060018360020160086101000a81548160ff02191690831515021790555060018360020160096101000a81548160ff0219169083151502179055508373ffffffffffffffffffffffffffffffffffffffff167fc58c63744da19faddae8e37958053493f49d71b8f78d4facf6002cd1c2618fcf83836001604051808481526020018363ffffffff1663ffffffff16815260200182151515158152602001935050505060405180910390a250505050565b610e1081565b60008173ffffffffffffffffffffffffffffffffffffffff16635909c0d56040518163ffffffff1660e01b815260040160206040518083038186803b1580156108d157600080fd5b505afa1580156108e5573d6000803e3d6000fd5b505050506040513d60208110156108fb57600080fd5b8101908080519060200190929190505050905060008060008473ffffffffffffffffffffffffffffffffffffffff16630902f1ac6040518163ffffffff1660e01b815260040160606040518083038186803b15801561095957600080fd5b505afa15801561096d573d6000803e3d6000fd5b505050506040513d606081101561098357600080fd5b8101908080519060200190929190805190602001909291908051906020019092919050505092509250925060006109e9846109bd85610aec565b7bffffffffffffffffffffffffffffffffffffffffffffffffffffffff16610b1790919063ffffffff16565b90506000826109f66106a3565b0390508063ffffffff16827bffffffffffffffffffffffffffffffffffffffffffffffffffffffff1602860195505050505050919050565b60007fffffffffffffffffffffffffffffffffffffffffffffffffffffffffffffffff7bffffffffffffffffffffffffffffffffffffffffffffffffffffffff16821115610ae4576040517f08c379a000000000000000000000000000000000000000000000000000000000815260040180806020018281038252601f8152602001807f556e69737761704f7261636c653a2055494e543232345f4f564552464c4f570081525060200191505060405180910390fd5b819050919050565b60006e010000000000000000000000000000826dffffffffffffffffffffffffffff16029050919050565b6000816dffffffffffffffffffffffffffff167bffffffffffffffffffffffffffffffffffffffffffffffffffffffff16837bffffffffffffffffffffffffffffffffffffffffffffffffffffffff1681610b6e57fe5b04905092915050565b6040518060c001604052806000815260200160008152602001600063ffffffff168152602001600063ffffffff168152602001600015158152602001600015158152509056fe556e69737761704f7261636c653a20414c52454144595f494e495449414c495a4544a265627a7a723158208bf1bd6e2a7c94e7a4fd759ccfae9c6b239dd7537f1f2d474c2bbe6268f617e664736f6c63430005100032",
  "source": "pragma solidity =0.5.16;\r\n\r\nimport \"./libraries/UQ112x112.sol\";\r\nimport \"./interfaces/IUniswapV2Pair.sol\";\r\nimport \"./interfaces/ISimpleUniswapOracle.sol\";\r\n\r\ncontract SimpleUniswapOracle is ISimpleUniswapOracle {\r\n\tusing UQ112x112 for uint224;\r\n\t\r\n\tuint32 public constant MIN_T = 3600;\r\n\t\r\n\tstruct Pair {\r\n\t\tuint256 priceCumulativeA;\r\n\t\tuint256 priceCumulativeB;\r\n\t\tuint32 updateA;\r\n\t\tuint32 updateB;\r\n\t\tbool lastIsA;\r\n\t\tbool initialized;\r\n\t}\r\n\tmapping(address => Pair) public getPair;\r\n\r\n\tevent PriceUpdate(address indexed pair, uint256 priceCumulative, uint32 blockTimestamp, bool lastIsA);\r\n\t\r\n\tfunction toUint224(uint256 input) internal pure returns (uint224) {\r\n\t\trequire(input <= uint224(-1), \"UniswapOracle: UINT224_OVERFLOW\");\r\n\t\treturn uint224(input);\r\n\t}\r\n\t\r\n\tfunction getPriceCumulativeCurrent(address uniswapV2Pair) internal view returns (uint256 priceCumulative) {\r\n\t\tpriceCumulative = IUniswapV2Pair(uniswapV2Pair).price0CumulativeLast();\r\n\t\t(uint112 reserve0, uint112 reserve1, uint32 blockTimestampLast) = IUniswapV2Pair(uniswapV2Pair).getReserves();\r\n\t\tuint224 priceLast = UQ112x112.encode(reserve1).uqdiv(reserve0);\r\n\t\tuint32 timeElapsed = getBlockTimestamp() - blockTimestampLast; // overflow is desired\r\n\t\t// * never overflows, and + overflow is desired\r\n\t\tpriceCumulative += uint256(priceLast) * timeElapsed;\r\n\t}\r\n\t\r\n\tfunction initialize(address uniswapV2Pair) external {\r\n\t\tPair storage pairStorage = getPair[uniswapV2Pair];\r\n\t\trequire(!pairStorage.initialized, \"UniswapOracle: ALREADY_INITIALIZED\");\r\n\t\t\r\n\t\tuint256 priceCumulativeCurrent = getPriceCumulativeCurrent(uniswapV2Pair);\r\n\t\tuint32 blockTimestamp = getBlockTimestamp();\r\n\t\tpairStorage.priceCumulativeA = priceCumulativeCurrent;\r\n\t\tpairStorage.priceCumulativeB = priceCumulativeCurrent;\r\n\t\tpairStorage.updateA = blockTimestamp;\r\n\t\tpairStorage.updateB = blockTimestamp;\r\n\t\tpairStorage.lastIsA = true;\r\n\t\tpairStorage.initialized = true;\r\n\t\temit PriceUpdate(uniswapV2Pair, priceCumulativeCurrent, blockTimestamp, true);\r\n\t}\r\n\t\r\n\tfunction getResult(address uniswapV2Pair) external returns (uint224 price, uint32 T) {\r\n\t\tPair memory pair = getPair[uniswapV2Pair];\r\n\t\trequire(pair.initialized, \"UniswapOracle: NOT_INITIALIZED\");\r\n\t\tPair storage pairStorage = getPair[uniswapV2Pair];\r\n\t\t\t\t\r\n\t\tuint32 blockTimestamp = getBlockTimestamp();\r\n\t\tuint32 updateLast = pair.lastIsA ? pair.updateA : pair.updateB;\r\n\t\tuint256 priceCumulativeCurrent = getPriceCumulativeCurrent(uniswapV2Pair);\r\n\t\tuint256 priceCumulativeLast;\r\n\t\t\r\n\t\tif (blockTimestamp - updateLast >= MIN_T) {\r\n\t\t\t// update\r\n\t\t\tpriceCumulativeLast = pair.lastIsA ? pair.priceCumulativeA : pair.priceCumulativeB;\r\n\t\t\tif (pair.lastIsA) {\r\n\t\t\t\tpairStorage.priceCumulativeB = priceCumulativeCurrent;\r\n\t\t\t\tpairStorage.updateB = blockTimestamp;\r\n\t\t\t} else {\r\n\t\t\t\tpairStorage.priceCumulativeA = priceCumulativeCurrent;\r\n\t\t\t\tpairStorage.updateA = blockTimestamp;\r\n\t\t\t}\r\n\t\t\tpairStorage.lastIsA = !pair.lastIsA;\r\n\t\t\temit PriceUpdate(uniswapV2Pair, priceCumulativeCurrent, blockTimestamp, !pair.lastIsA);\r\n\t\t}\r\n\t\telse {\r\n\t\t\t// don't update and return price using previous priceCumulative\r\n\t\t\tupdateLast = pair.lastIsA ? pair.updateB : pair.updateA;\r\n\t\t\tpriceCumulativeLast = pair.lastIsA ? pair.priceCumulativeB : pair.priceCumulativeA;\r\n\t\t}\r\n\t\t\r\n\t\tT = blockTimestamp - updateLast; // overflow is desired\r\n\t\trequire(T >= MIN_T, \"UniswapOracle: NOT_READY\"); //reverts only if the pair has just been initialized\r\n\t\t// / is safe, and - overflow is desired\r\n\t\tprice = toUint224((priceCumulativeCurrent - priceCumulativeLast) / T);\r\n\t}\r\n\t\r\n\t/*** Utilities ***/\r\n\t\r\n\tfunction getBlockTimestamp() public view returns (uint32) {\r\n\t\treturn uint32(block.timestamp % 2**32);\r\n\t}\r\n}",
  "sourcePath": "C:/Users/simor/Desktop/impermax-x-uniswapv2-periphery/test/Contracts/simple-uniswap-oracle/SimpleUniswapOracle.sol",
  "compiler": {
    "name": "solc",
    "version": "0.5.16+commit.9c3226ce.Emscripten.clang"
  },
  "schemaVersion": "3.3.2",
  "updatedAt": "2021-01-09T21:19:45.600Z",
  "networkType": "ethereum",
  "devdoc": {
    "methods": {}
  },
  "userdoc": {
    "methods": {
      "getBlockTimestamp()": {
        "notice": "* Utilities **"
      }
    }
  }
}